:020000040000FA
:0400000053EF04F0C6
:10060000000000803F2DB25D3F0000003F00000071
:1006100000000000BF2DB25DBF000080BF2DB25DA5
:10062000BF000000BF000000000000003F2DB25DD1
:100630003F000000000000003F2DB25D3F00008041
:100640003F2DB25D3F0000003F00000000000000B1
:10065000BF2DB25DBF000080BF2DB25DBF000000A6
:10066000BFA9AAAA3E98CA4CBE0DF5113E4712DAA0
:10067000BD25AC7C3D6937AC3168212233B40F1401
:10068000336821A2333863ED3EDA0F493F5E987B31
:100690003FDA0FC93F6042A20D2EBDBBB3DB0F494D
:0306A00040000017
:1006A40067C06BF068C06CF069C06DF06AC06EF032
:1006B400060ED8906B366C366D366E36E82EF9D74A
:1006C4006B508008596E960E6C545A6E980E6D5489
:1006D4005B6E000E6E545C6E67C06FF068C070F0A5
:1006E40069C071F06AC072F0060ED8906F36703629
:1006F40071367236E82EF9D76FC05DF070C05EF0C7
:1007040071C05FF072C060F0D4EC03F059C073F0B4
:100714005AC074F07404D8A03BD067C06BF068C0B2
:100724006CF069C06DF06AC06EF0040ED8906B3640
:100734006C366D366E36E82EF9D76B508008596EDC
:10074400960E6C545A6E980E6D545B6E000E6E5479
:100754005C6E67C06FF068C070F069C071F06AC009
:1007640072F0040ED8906F36703671367236E82EF9
:10077400F9D76FC05DF070C05EF071C05FF072C0F9
:1007840060F0D4EC03F059C073F05AC074F0AC8438
:100794007404D8B0120073C0AFFFAC98AB8EAB88B2
:1007A400AC8A1200000E626E60AE0AD0601E5F1E3C
:1007B4005E1E5D6C000E5E225F226022010E626E80
:1007C4005CAE0AD05C1E5B1E5A1E596C000E5A2287
:1007D4005B225C22010E621A000E636E000E646ED0
:1007E400000E656E000E666E5D505E105F10601048
:1007F400D8B42AD0010E616E06D0D8905D365E362C
:100804005F366036612A60AEF8D7D89063366436B6
:10081400653666365D50595C5E505A585F505B5879
:1008240060505C58D8A009D05D50595E5E505A5A49
:100834005F505B5A60505C5A6380D89060325F327C
:100844005E325D32612EE1D76250D8B408D0661EA4
:10085400651E641E636C000E64226522662263C0FA
:1008640059F064C05AF065C05BF066C05CF01200D9
:100874009368BF0E946E000E676E960E686E000E3F
:10088400696E000E6A6E52EC03F0020E766E450E2F
:10089400756EAA0EE82EFED7752EFCD7762EFAD7E3
:1008A400F4D700EE01F0580EEE6AE806FDE1000E02
:0C08B400F86E060EF76E00013AEF04F03B
:020000040020DA
:08000000FFFFFFFFFFFFFFFF00
:020000040030CA
:0E000000FF02161EFF0381FF0FC00FE00F402E
:00000001FF
