:10000000F8FF022099010000FD3D0000B53D000011
:10001000B53D0000B53D0000B53D0000B53D000018
:10002000B53D0000B53D0000B53D0000FD3D0000C0
:10003000FD3D0000B53D0000F15F0000F5600000EF
:10004000FD3D0000FD3D0000FD3D0000FD3D0000C8
:10005000FD3D0000FD3D0000FD3D0000FD3D0000B8
:10006000FD3D0000FD3D0000FD3D0000FD3D0000A8
:10007000FD3D0000FD3D0000FD3D0000FD3D000098
:10008000FD3D0000FD3D0000FD3D0000FD3D000088
:10009000FD3D0000FD3D0000FD3D0000FD3D000078
:1000A0006D30000079300000FD3D0000FD3D000096
:1000B000FD3D0000FD3D0000FD3D000069620000C7
:1000C000FD3D000049470000FD3D0000314A0000B1
:1000D000FD3D0000714C0000FD3D0000FD3D0000B5
:1000E000FD3D0000FD3D0000FD3D0000FD3D000028
:1000F000FD3D0000FD3D0000FD3D0000FD3D000018
:10010000F96100000D62000021620000356200000C
:10011000FD3D0000FD4E0000FD3D0000FD3D0000E6
:10012000FD3D0000FD3D0000FD3D0000FD3D0000E7
:10013000FD3D0000FD3D0000FD3D0000FD3D0000D7
:10014000FD3D0000FD3D000095630000FD3D000009
:100150008D640000FD3D0000FD3D0000FD3D000000
:10016000FD3D0000FD3D000085300000FD3D00002C
:10017000FD3D0000FD3D0000FD3D0000FD3D000097
:10018000FD3D0000FD3D0000FD3D0000FD3D000087
:10019000FD3D0000FD3D0000584B4CF2205210B5D3
:1001A0001A804DF628121A8000BF00BF03F02AFE05
:1001B000534B4FF030621A60524A9A60524ADA60EA
:1001C000524B4FF470021A60514A136813F4807353
:1001D00004D150490B604FF4A85313604E4B1A786A
:1001E000110703D51A7842F008021A704B4B4C499C
:1001F0002A221A704B4A4C4B8B4204D252F8040FFD
:1002000043F8040BF8E7494B494900228B4202D2DC
:1002100043F8042BFAE74749474A002352F82300E2
:1002200041F823000133662BF8D1444B444A802126
:1002300003F8011B9342FBD1424B3E4A1A60424BEA
:100240008A221A70A3F5805324225A70A0221A70B1
:100250009A799207FCD59A79D406FCD43B4A9379D3
:1002600003F00C03082B394BF9D103221A714622F3
:100270005A719A799006FCD5344A9179334B4906E4
:10028000FBD5334A4FF08271116009215160202261
:100290001A709A7902F00C020C2AFAD12D4B2E4AD0
:1002A0001A602E4B2E4A1A6000225A60072243F829
:1002B000042C2C4AC3F80C2D62B604F0F9F8154B47
:1002C0001B68DA0705D5284803F062FE274B284A49
:1002D0001A60284B1B785B0609D5244C244B2268F6
:1002E0009A4204D1204803F053FE0023236008F013
:1002F0008DF803F08DFD03F0BBFCFEE70E200540FA
:1003000030800440823F04000100002B88ED00E0B3
:1003100010D0034014D0034002D0074000E0074053
:100320000813FF1F78A10000F806FF1F0813FF1F26
:10033000E824FF1F0002FF1F0000000000E400E0AF
:1003400056E400E008ED00E00050064000400640A2
:100350004480044004800440C010050014E000E024
:10036000BFD4010000002020BFE4105D1CE003406A
:10037000A5C3945A00F00740FFFFFFFFFFFFFFFFF8
:10038000FFFFFFFFFFFFFFFFFFFFFFFFFFFFFFFF7D
:10039000FFFFFFFFFFFFFFFFFFFFFFFFFFFFFFFF6D
:1003A000FFFFFFFFFFFFFFFFFFFFFFFFFFFFFFFF5D
:1003B000FFFFFFFFFFFFFFFFFFFFFFFFFFFFFFFF4D
:1003C000FFFFFFFFFFFFFFFFFFFFFFFFFFFFFFFF3D
:1003D000FFFFFFFFFFFFFFFFFFFFFFFFFFFFFFFF2D
:1003E000FFFFFFFFFFFFFFFFFFFFFFFFFFFFFFFF1D
:1003F000FFFFFFFFFFFFFFFFFFFFFFFFFFFFFFFF0D
:10040000FFFFFFFFFFFFFFFFFFFFFFFFDEF9FFFF23
:1004100010B5054C237833B9044B13B10448AFF33E
:1004200000800123237010BD0813FF1F000000008F
:1004300074A10000084B10B51BB108490848AFF380
:1004400000800848036803B910BD074B002BFBD0A0
:10045000BDE81040184700BF000000000C13FF1F4C
:1004600074A100000813FF1F0000000008B504F08D
:100470009BFA50B905F0BCFB00B908BD05F07CFB48
:10048000BDE80840C0B204F085BA04F09DFAC0B2DD
:1004900005F05CFC014802F0F1FFEBE79808FF1F54
:1004A0002DE9F04F7D4B7E4FDFF81092DFF8308260
:1004B000DFF830A240F2E73283B01A60BB4604F0A6
:1004C000FFF8002840D004F00BF9C4B2592C79D0C1
:1004D000422C63D0792C40F08780724B724D734E62
:1004E00001221A603368012B5FD02B68012BE6D103
:1004F0006C4C2268012A00F098803368012BDED111
:100500006B4A1368012BDAD16A48019203F0DEF9D5
:100510009AF800303860019A13B14042CBF80000DD
:1005200065496448019203F07FF9D8F80010019AF8
:1005300000230131C8F80010336013608AF80030DE
:1005400004F0BEF80028BED1D9F800305B4A13F1A0
:100550004A0F00F089803A68594912F14A0F0B603E
:1005600000F08F80574B1A60D8F80030012B12DD55
:10057000554B1B68012B00F08880D9F80030534A96
:100580005349386808605B421360524A01210023D6
:100590001160C8F8003003B0BDE8F08F424D434E03
:1005A0002B6801229342326010D0414A13683BBB52
:1005B000A4F13003092B2BD92D2C96D101238AF8D5
:1005C000003092E7384D394E01232B60354B1B68C4
:1005D000002B87D1A4F13003092B40D92D2C81D1D8
:1005E0003D4B01221A707DE72F4D622C296802D104
:1005F0002F4B01221A6001292C4E7FF473AFE5E7DF
:10060000296801293FF474AF012B7FF458AF7BE7D1
:100610002146284803F04AF92B68012B7FF46DAF7F
:10062000204C2268012A7FF468AF2C4803F04EF971
:10063000294BC9F800001A7820490AB140420860E5
:100640001D49264803F0F0F8D8F80010224B00228C
:100650000131C8F800102A6022601A704DE7214667
:100660001E4803F023F93DE73B6813F14A0F05D01C
:1006700013481449006810600B6075E7104B1B6845
:100680001360104B1B683B606EE73B680F4A1049D4
:10069000D9F8000008605B42136076E75414FF1F2E
:1006A0003013FF1F3813FF1F5C13FF1F2813FF1F9A
:1006B0005013FF1F6413FF1FBC9600005413FF1F4D
:1006C0004C13FF1F5813FF1F2014FF1F2814FF1F78
:1006D0000C14FF1F7014FF1F6013FF1F3C13FF1F3C
:1006E0002413FF1F3413FF1F0C4B1B685A1EB22A22
:1006F0000BD80B4A2D2BA8BF2D236FF02C018B425A
:10070000B8BF0B461360C01A7047A3F1B402B42AF5
:10071000034A94BFA3F5B4731368EBE75814FF1FA3
:100720002C13FF1F2DE9F0410C4FDFF840800C4ED9
:100730000C4D0D4C3946404603F054F832462946DC
:10074000404605F04DFF3946204603F04BF832464F
:1007500029462046BDE8F04105F042BFBC960000A6
:10076000F806FF1F653700006413FF1F3C13FF1FCF
:1007700070B5384E384C33683848394D0122226004
:10078000A3F11001374C0260B1F5A47FA3F15A0226
:1007900088BF2360362A9CBF03F123022260A3F1A5
:1007A0009102232A9CBF03F12D022260A3F1B5021E
:1007B000A3F1D800222AA3F12D0298BF2260362887
:1007C0009CBFA3F1230020600D299CBF03F11E01F3
:1007D0002160A3F11E010E299CBF03F123002060BC
:1007E0002C2A9CBF03F12D0020606FF4877018182D
:1007F0002C2898BF2260A3F59E720E2A9CBFA3F1FD
:10080000230222606FF4A57213440D2B4FF0FA03FC
:1008100098BF21602B60FFF743FE33681F3BB3F5A1
:10082000957F03D9104B1B688C2B05DC2968206849
:10083000BDE8704001F076B80C4B2968D3ED007A22
:100840002068FDEEE77ABDE8704017EE902A01F0CF
:100850007BB800BF7C14FF1F0014FF1F7814FF1F1C
:100860000414FF1F5014FF1F3C1AFF1F9814FF1F92
:100870001B4B1B68142B19DD1A4BD3ED007AB1EE1C
:100880000E7A77EE877AC3ED007AB3EE0E7AF4EE45
:10089000C77AF1EE10FA06DCBBEE0E7AF4EEC77AF8
:1008A000F1EE10FA01D583ED007A704714330D4B49
:1008B000D3ED007A06DAB1EE0E7A77EEC77AC3EDA1
:1008C000007AE2E7F5EEC07AF1EE10FAB1EE007AC6
:1008D000CCBF77EEC77A77EE877AC3ED007AD4E79C
:1008E0000C14FF1F9814FF1F704700BF704700BF14
:1008F000D0B5104C104988B01A2202A802F010FDA1
:10090000206807F0FBF9DDE9026702460B46304636
:10091000394607F0C1FC20B93046394607F0EEFCF5
:100920002060064A064B12680192019A1A6008B0CC
:10093000D0BD00BF5814FF1F7813FF1F8020FF1F7A
:100940007413FF1F10B5054C0821204602F042FC2D
:1009500020460121BDE8104002F0E0BB7813FF1FE4
:1009600000B5074B074A1B68126883B00193019BCF
:100970009B1A052B01D9FFF7BBFF03B05DF804FB01
:100980008020FF1F7413FF1F00B50D4B0D4A1B681D
:10099000126883B00193019B9B1A052B01D9FFF7C5
:1009A000A7FF0521084805F04DF9084B08481968CC
:1009B00002F0B4FD064802F061FD03B05DF804FBEF
:1009C0008020FF1F7413FF1F9C9600005814FF1F08
:1009D0009808FF1F10B51021044603F04FFA204677
:1009E00010BD00BF10B50A4B0A4C1B6882B02046F0
:1009F0000193094B019A1A604FF0FF31282202F04F
:100A000067FB2046054A064905F0EAFD02B010BD25
:100A10008020FF1F7813FF1F7413FF1FF806FF1FAE
:100A2000ED080000374B9FED387ADFED386AD0B51E
:100A30001C68374B04F15A0207EE902AF8EEE77A69
:100A400067EE877A87EEA67A83ED007A17EE100AB2
:100A500007F066F941EC100B05F0CAFD57EC106B7E
:100A60000022002310EE100A394607F03DFCB0B317
:100A70003046394607F06AFC264B5A2C07EE900A9E
:100A800018601ED9A4F58773592B2CD9B42CCCBF70
:100A9000A4F5B4732346002BCCBF04F11E00A4F1CF
:100AA0001E000028B8BF00F5B470FF2100F03AFF27
:100AB000194B1B68052B00DDD0BDBDE8D04001F00F
:100AC0005FBB9FED167A67EE877A5A2077EEA77A9A
:100AD000FDEEE77A17EE901A00F024FFE8E73046C3
:100AE00007F10041C6E79FED0D7A67EE877A4FF474
:100AF000877077EEA77AFDEEE77A17EE901A00F08E
:100B000011FFD5E77C14FF1FDB0F49400000344381
:100B10008C13FF1F8813FF1F9414FF1F00007F43D7
:100B200030B583B0E8B9184D2B68013317D0174A98
:100B30001749184B126809680446186800F0CEFE81
:100B400050B1154B154A1B6801931168019B40F287
:100B5000ED225B1A934210D94FF0FF332B6003B0A4
:100B600030BD0D4B0B4A1B6800930C49064B009897
:100B7000126808601A6003B030BD22462146204644
:100B800000F0E2FEEBE700BFFC06FF1FAC13FF1F07
:100B9000D813FF1F7C14FF1F8020FF1F9413FF1F1B
:100BA000F0B5A74BA74C1B682268A74E9A4283B0AA
:100BB0002ED033789F0702D5A449022008701D0764
:100BC00002D5A24908200870D80702D5A049012003
:100BD0000870590702D59E49042008700F2B13D0C6
:100BE0000E2B00F29781DFE813F01A004E0063002D
:100BF00078008D00A200B90063006B0115014D0162
:100C0000CE00E9006B01FE00924B1B783370E7E7E2
:100C100090490B78002BCCD133780B70CAE7DFF802
:100C200060E28D4DDEF800108C4F29604FF0FF30F0
:100C3000FF21CEF800003960013A89492260012A7B
:100C40000B70884B00F0648100218A42197040F3D8
:100C50004C812868431C00F04881834B834A1B6801
:100C60000193834B39681768019A1A60814BCEF85B
:100C7000000000221F6000F067FE2268002A40F397
:100C80003B8103B0F0BD744D744F7B487B494FF0FE
:100C9000B40EC5F800E04FF0FF0EC7F800E04FF0CB
:100CA000000EC0F800E01E200860DFF8D4E1C3E7C2
:100CB000694D6A4F704871494FF4877EC5F800E06E
:100CC0004FF0FF0EC7F800E04FF05A0EC0F800E0FA
:100CD0003C200860DFF8A8E1AEE75F4D5F4F664853
:100CE00066494FF0E10EC5F800E04FF0FF0EC7F87F
:100CF00000E04FF02D0EC0F800E014200860DFF88F
:100D000080E199E7544D554F5B485C494FF0000E28
:100D1000C5F800E04FF0FF0EC7F800E04FF0B40E4A
:100D2000C0F800E01E200860DFF854E184E7474B7C
:100D30001B78022B00F03881082B00F0088100237B
:100D4000454D464F2B601A46DC211E203B6002F0C9
:100D500049FC33782268DFF828E16DE73E4D3F4FCC
:100D60004548464940F23B1EC5F800E04FF0FF0EF3
:100D7000C7F800E04FF0870EC0F800E014200860CC
:100D8000DFF8FCE058E7DFF8C8E0334D334F3A486E
:100D90003A494FF0010C8EF800C04FF0B40EC5F880
:100DA00000E04FF0FF0EC7F800E04FF0000EC0F873
:100DB00000E03C200860DFF8C8E03DE7264D274F03
:100DC0002D482E494FF02D0EC5F800E04FF0FF0ED4
:100DD000C7F800E04FF0E10EC0F800E01420086012
:100DE000DFF89CE028E71A49DFF88CE01A4D1B4F2A
:100DF00022484FF0010C81F800C0B421CEF8001059
:100E000029604FF0FF0E3C21C7F800E00160DFF8D9
:100E100070E011E7104D114F174818494FF0870E39
:100E2000C5F800E04FF0FF0EC7F800E040F23B1EAF
:100E3000C0F800E014200860DFF844E0FCE600BFE2
:100E40000007FF1FCC13FF1FD013FF1FC513FF1F89
:100E5000A913FF1FC413FF1F2414FF1F7414FF1FC7
:100E60004114FF1F0814FF1F8020FF1F7C14FF1F69
:100E70009413FF1FFC06FF1FD813FF1FAC13FF1FA7
:100E8000D413FF1F544B1B78012B77D0042B7FF416
:100E900056AF524D524F5348534900231A462B60C8
:100EA000FF233B60B42303601E230B60184640F20F
:100EB0005D1102F097FB33782268DFF838E1BBE67A
:100EC000464D474F474848494FF05A0EC5F800E095
:100ED0004FF0FF0EC7F800E04FF4877EC0F800E047
:100EE0003C200860DFF80CE1A6E64FF0FF33002A53
:100EF000CEF800303FF7C5AE0020FFF711FE1E20F0
:100F000002F002FC002323602B60337003B0F0BDBD
:100F10001A709EE6354936480968304D304F01F168
:100F2000B40E8EFB00010EEB01004FEAEE71C1EB37
:100F300020214FF4B47000FB11E1DFF8B8E0296024
:100F4000FF204FF0FF313860CEF8001074E6234DDB
:100F5000234F244A24495A202860FF201E2338604A
:100F60004FF4877010600B6018460022822102F057
:100F700039FB33782268DFF87CE05DE6174D184FC7
:100F800018481949B4232B60FF2300223B601E231D
:100F900002600B60184640F2745102F023FB337874
:100FA0002268DFF850E047E60C4D0D4F0D4A0E4920
:100FB0004FF487702860FF201E2338605A2010608D
:100FC0000B601846002240F2164102F00BFB33780A
:100FD0002268DFF820E02FE6A913FF1F2414FF1F6B
:100FE0007414FF1FD813FF1FAC13FF1F5014FF1FF3
:100FF000B7600BB6D413FF1F2DE9F84FDFF8BC9094
:10100000284EDFF8BCB0284D284FDFF8B8A0DFF835
:10101000B880002489F8004034705BF8040BC0B23B
:1010200002F06CFD57F8042B7828D4BF002301236D
:10103000D0B22B6002F062FD2A6899F80010337874
:1010400002FA04FE78287144D4BF4FF0000E4FF02E
:10105000010E0EFA04FC6344C9B2DBB2013404355C
:101060004AF804EB0AB9782803DD1148D8F80020C3
:101070000260042C89F800103370CED10D4802783C
:101080000B43134303702BB90B4A1370BDE8F84FA1
:10109000FFF786BD084B01221A70BDE8F84FFFF735
:1010A0007FBD00BFA813FF1F9813FF1F1407FF1F6A
:1010B000CC13FF1FD013FF1FE013FF1F9013FF1F60
:1010C0000407FF1FB413FF1F0007FF1F70B5FFF7D2
:1010D00093FF0A212548264C264D04F0B3FD2648EF
:1010E00002F0CCF904F1100654F8041B224802F077
:1010F00015FA0121214804F0A5FD55F8041B1E48EE
:1011000002F00CFA03211E4804F09CFDB442EBD11E
:10111000194802F0B3F90A21144804F093FD164867
:1011200002F0ACF90821174804F08CFD164B124868
:1011300019780A22002302F0B1F91221134804F0B1
:1011400081FD134B0C48196802F0E8F90A4802F0D7
:1011500095F9962003F05EF90A21044804F072FD27
:101160000548BDE8704002F089B900BFA4960000B0
:101170009813FF1FB413FF1F9808FF1FDC9A00008D
:10118000B0960000B4960000A813FF1FC0960000A0
:101190002414FF1F00B5144B1B7883B043B1134ACE
:1011A000134B12680092009A1A6003B05DF804FBBA
:1011B0000E4B0F4A1B680193019B12689B1AB3F5F3
:1011C0007A7FF2D20B4A0C4B11681868142200F097
:1011D00085FB0028E9D0094A136803EBD3735B1041
:1011E000136003B05DF804FB0814FF1F8020FF1F8D
:1011F000B013FF1FD813FF1F7C14FF1F501AFF1FCF
:1012000030B40A4B0A4C1A680A4984B00192019D15
:101210001A68029202981B680393039A064B256092
:1012200008601A6004B030BC704700BF8020FF1F08
:10123000C813FF1F9413FF1FB013FF1FF0B52DED50
:10124000028B83B000F0A2FA554D5648564F574BCB
:10125000574E5849584ADFF8E8C1DFF8E8E19FEDFA
:10126000578A002404702C605548564D3C60346009
:101270000C7014701C60544F544B554E5549564ACF
:1012800004702C605548564D3C6034600C601470FE
:101290001C60544F544B554E5549564A04602C60BF
:1012A0005548564D3C6034600C6014601C60544FCF
:1012B000544E5549554A046000232B6054483B6006
:1012C000012535600D601570524F534E5349544AF5
:1012D00005705448CCF80040CEF800403D603560C1
:1012E000514F0C60514E52491460524A0460B0EEA6
:1012F000480A02203B60336015600D6002F0DEFF9B
:10130000B0EE480A052002F0D9FFB0EE480A0620E8
:1013100002F0D4FFB0EE480A172002F0CFFF0521FB
:10132000162003F071F80521102003F06DF829460E
:10133000142003F069F829460D2003F065F82946CA
:10134000112003F061F821461D2003F05DF82146CD
:101350001C2003F059F843F2D40003F0CDFA40F614
:10136000230003F0D1FB43F2D40003F035F9FFF77B
:10137000E9FA00F0CDF801F0CFF900F05DF92E4A5E
:101380002E4B12680192019A1A604FF4FA7003F022
:1013900041F800F021FA03B0BDEC028BF0BD00BFB4
:1013A0004414FF1F3414FF1F1814FF1F1414FF1FD1
:1013B0004814FF1FED13FF1FEE13FF1F00606A4666
:1013C0001014FF1F2C14FF1FDC13FF1FE813FF1F57
:1013D0005C14FF1F601AFF1F2020FF1F6C1AFF1FE5
:1013E0000414FF1F501AFF1F5014FF1F0C14FF1F7F
:1013F0002814FF1F5414FF1F2014FF1FF013FF1F9A
:10140000581AFF1F781AFF1F7C1AFF1FF413FF1FC3
:10141000F513FF1F481AFF1F4C1AFF1F7014FF1F00
:10142000F813FF1F5C1AFF1F4C14FF1F9814FF1FB7
:101430007814FF1F0014FF1F8020FF1F441AFF1F96
:101440005814FF1F3C1AFF1F70B51D2002F0CEFF7D
:10145000214C20601C2002F0C9FF204B186004F0D2
:10146000C7FB002801DD00F0BDFE1D4DFFF778FA37
:1014700001F098FA00F0D6F9FFF712F82E68012E65
:1014800023D000F009FD174B1A7823681AB1A3B1D5
:10149000FFF76EF902E09BB900F03EFEFFF7ACFDEE
:1014A000FFF778FE104A114B92ED000A1868B8EE6B
:1014B000C00ABDE8704000F0AFBAFFF7B3FAEDE73D
:1014C0001146104600F040FAE8E7FFF7D1F9084A64
:1014D000002316702B60D4E72C14FF1F2014FF1F6D
:1014E0007014FF1F3414FF1F501AFF1F6C1AFF1FC8
:1014F0001C14FF1F044A054B126882B00192019A26
:101500001A6002B0704700BF8020FF1F441AFF1FFF
:1015100070B51A4E1A4D1B4C7078012102F074FF01
:101520006878012102F070FF6078012102F06CFF01
:10153000B078012102F068FFA878012102F064FF71
:10154000A078012102F060FFF078012102F05CFF39
:10155000E878012102F058FFE078012102F054FF01
:101560003079012102F050FF2879012102F04CFF6F
:1015700020790121BDE8704002F046BF2407FF1F1B
:101580002C07FF1F3407FF1F70B504460848005D95
:1015900016461D4602F024FF064B3146185D02F048
:1015A0001FFF054A2946105DBDE8704002F002BDEC
:1015B0002C07FF1F3407FF1F2407FF1F70B51A4EAB
:1015C0001A4D70781A4C012102F00AFF6878012147
:1015D00002F006FFB078012102F002FFA878012195
:1015E00002F0FEFEF078012102F0FAFEE878012117
:1015F00002F0F6FE3079012102F0F2FE2879012195
:1016000002F0EEFE6078FF2102F0D4FCA078FF210A
:1016100002F0D0FCE078FF2102F0CCFC2079FF2121
:10162000BDE8704002F0C6BC2C07FF1F3407FF1F47
:101630002407FF1FFFF7C2BF38B500202DED028B36
:101640000021234DDFED238A9FED238A002411E042
:1016500007EE904AF8EEE77A67EEA87A87EE887A86
:1016600017EE100A06F05CFB41EC100B05F020F8B9
:1016700051EC100B06F06AFE0134B4F5B47F45F866
:10168000040BE5D1154DDFED138A9FED138A144944
:101690000020002411E007EE904AF8EEE77A67EEAA
:1016A000A87A87EE887A17EE100A06F039FB41EC2B
:1016B000100B04F09DFF51EC100B06F047FE0134B7
:1016C000B4F5B47F45F8040BE5D1BDEC028B38BD11
:1016D0009C14FF1FDB0F494000003443801AFF1F9A
:1016E0000000F03F70B50D1E044612D014DD002638
:1016F00001210B4B185D02F073FE0A4B3146185D59
:1017000002F06EFE084B2946185DBDE8704002F0FD
:1017100051BC2E462946ECE76D4201260021E8E740
:101720002C07FF1F3407FF1F2407FF1F38B50125B3
:10173000ECB2C823012200212046FFF725FF4FF419
:101740007A7002F067FE00221146C8232046FFF798
:101750001BFF4FF4967002F05DFEC82300220121AA
:101760002046FFF711FF4FF47A7002F053FE00227B
:1017700020461146C823FFF707FF01354FF4967046
:1017800002F048FE052DD3D138BD00BF08B5642254
:10179000DC211E2001F026FF642002F03BFE1E200B
:1017A00001F0B2FF6422DC211E2001F01BFF642047
:1017B00002F030FE1E2001F0A7FF642240F25231F9
:1017C0001E2001F00FFF642002F024FE2F20BDE850
:1017D000084001F099BF00BF08B5642240F25231C1
:1017E0001E2001F0FFFE642002F014FE1E2001F016
:1017F0008BFF642240F252311E2001F0F3FE642080
:1018000002F008FE1E2001F07FFF64226E211E20E0
:1018100001F0E8FE642002F0FDFD1E20BDE8084056
:1018200001F072BF70B50F4C0F4E104D03F0DCF994
:10183000002813DD03F0E8F9C0B210F0010F0C4AE4
:1018400020704FEA40030AD00128D4BF00230123AF
:101850002860137003F0C8F90028EBDC70BD33601A
:10186000E4E700BF2820FF1F7C14FF1F3C1AFF1F66
:101870003414FF1F08B5FFF7D5FF124B1B785BB977
:101880000F21114804F0DEF9104801F0F7FD642043
:10189000BDE8084002F0BEBD0D4B0C48196801F0D0
:1018A0003DFE03210B4804F0CDF90B4B07481968A6
:1018B00001F034FE054801F0E1FD6420BDE8084078
:1018C00002F0A8BD3414FF1FD49600009808FF1F33
:1018D0007C14FF1FB09600003C1AFF1F8842B2BF65
:1018E00003460B460146591A0029B8BF4942C1F5C3
:1018F000B4708842A8BF08468242B4BF00200120CD
:10190000704700BF8142CABF03460B460846181AFB
:101910000028B8BF4042C0F5B4739842A8BF18462B
:10192000704700BF054A064B10B4064C10600022F9
:1019300021601A605DF8044B704700BF6C1AFF1FEE
:101940001814FF1F501AFF1F30B40C4B0C4D0D4CD8
:10195000286012F1B40F1A60216007DA02F5B47240
:1019600012F1B40FFADB1A6030BC7047B42AFBDD09
:10197000A2F5B472B42AFBDCF5E700BF1814FF1F10
:101980006C1AFF1F501AFF1F1B4BDFED1C6AD3EDB3
:10199000007A1B4A1B4BDFED1C5A93ED000AB8EE90
:1019A000E77AB6EE005AB4EEE67AF1EE10FAC8BF66
:1019B000DFED167ADFED166AC8BF37EE677AD2ED33
:1019C000007A144AF8EEE77AD2ED004A77EE677AA9
:1019D000B0EE006A37EEC00AB0EE677A20EE250A54
:1019E000A4EE857AA7EE860A82ED007AC3ED007A2E
:1019F000A7EE260A704700BF5814FF1F00003443AB
:101A00001814FF1F581AFF1F000000000000B44305
:101A1000CDCCCC3DF013FF1F704A7149D2ED006A66
:101A2000704A91ED2D5AD2ED007AD1ED875ADFF848
:101A3000E0C1F8B56C4BDFF8DCE193ED2D4AD3ED56
:101A4000874A6A4D6A4C6B4E8200134493ED006ADC
:101A50000A4420EE466A92ED007AF8EEE66A20EE3D
:101A6000077A66EE266AF8EEE77A26EE856A67EE72
:101A7000277A26EEA57AA7EE846A07465E48CCED63
:101A8000006AA7EEA47A2DED028BF1EE475AB1EE73
:101A9000465ACEED007A80ED006AC4ED005A86ED1C
:101AA000007AB0EE408A85ED005AFFF76DFFD0ED69
:101AB000006A9FED526A524B96ED007AD5ED007A9E
:101AC000D4ED005A83ED000A70EE266A30EE077AF4
:101AD000F4EEC66AF1EE10FA70EE277A30EE250ABF
:101AE0000AD49FED486AF4EEC66AF1EE10FA6DDD95
:101AF000F0EE466AFF2103E0F0EE466A6FF0FE0169
:101B00009FED3E6AC0ED006AB4EEC67AF1EE10FABF
:101B100056D4DFED3C6AB4EE667AF1EE10FAC8BF37
:101B2000B0EE667ADFED356A86ED007AF4EEE67A9D
:101B3000F1EE10FA47D49FED337AF4EE477AF1EEE6
:101B400010FAC8BFF0EE477A9FED2C7AC5ED007A07
:101B5000B4EEC70AF1EE10FA3DD4DFED2A7AB4EE06
:101B6000670AF1EE10FAC8BFB0EE670A012084EDF3
:101B7000000AFFF7B7FDD6ED007AFDEEE77A022006
:101B800017EE901AFFF7AEFDD5ED007AFDEEE77A7D
:101B9000032017EE901AFFF7A5FDD4ED007AFDEEB5
:101BA000E77A042017EE901AFFF79CFDBDEEC88A75
:101BB000154B164A83ED008ABDEC028B1760F8BD09
:101BC000B0EE467AAEE7F0EE667ABDE7BDEEE66AC5
:101BD00016EE101A94E7B0EE470AC7E77814FF1F15
:101BE000801AFF1F0014FF1F9C14FF1F6814FF1FA3
:101BF0002420FF1F6414FF1F6014FF1F00007FC319
:101C0000541AFF1F00007F43641AFF1F701AFF1F42
:101C10003014FF1F681AFF1F00EB40000144064804
:101C200050F821301A44962AA8BF962222EAE2727E
:101C300040F82120704700BF3820FF1F70B50546CF
:101C40000E460024022D03DD0134032CFAD170BDB1
:101C5000324629462046FFF7DFFFF5E770B5054617
:101C60000E460024022D2146324604F10104284686
:101C700001DCFFF7D1FF032CF4D170BD70B506462F
:101C8000002500242146324628460134FFF7C4FFD0
:101C9000032CF7D10135032DF3D170BD514A5249C0
:101CA000524B53482DE9F04F1568524A0F681E6891
:101CB0000068514B514CD2F800C05149C3F800C0E4
:101CC000C319A3F15F0ADFF840812368DFF83CE124
:101CD000DFF83C910B60002188F800108EF80010AE
:101CE00089F8001047494FF0300BAB19BAF14E0F8D
:101CF00003F11503C1F800B022D819281EDC392FD2
:101D000020DCFF21BCF1010F11605ED04FF4877021
:101D100098424FF05B014FF0BE071ADCA942CCBFDE
:101D2000FF230123B142236020DC012121601068E0
:101D3000FF282AD0022850DDBDE8F08F192F31DCB2
:101D40003928DCDD01211160FA2045218B279842DA
:101D5000E4DD9F42E2DA0123A9428EF800301ADC6A
:101D60002360B14202DD02212160E0E710682168B2
:101D7000FF2808D0FF292CD10228DDDC0421BDE892
:101D8000F04FFFF76BBF0229D6DC0846BDE8F04FE5
:101D90000421FFF753BF00204529206008BF89F8C0
:101DA0000030DEE701212F2888F8001011600ADCDE
:101DB00002212F2F1160A9DC002111604FF48770E0
:101DC0005B21BE27C3E72F2FF6DD4521FA208B27A5
:101DD000BDE70228B0DC0229AEDC0922BDE8F04FE5
:101DE000FFF71ABFFC13FF1F401AFF1F741AFF1FD3
:101DF0006C14FF1F481AFF1F781AFF1F4C1AFF1F91
:101E00007C1AFF1FE413FF1FF413FF1FF513FF1FBE
:101E1000EE13FF1F1A4B70B518681A4C1A4E1B4D63
:101E2000FEF762FC1A4B20601868FEF75DFC034663
:101E300001463360206804232B60FFF763FD002810
:101E4000B8BF4042192808DC012028600321FFF7B1
:101E500005FF104B00221A7070BD226833689A4249
:101E600002DD00202860F1E702DA02202860EDE7B9
:101E700028680228EADD074B00221A7070BD00BFF7
:101E80000C14FF1F3020FF1F3420FF1F3C07FF1FD3
:101E90002814FF1F1C14FF1F2DE9F0416FF00300F1
:101EA000FFF7ECFEDFF89880FFF7F8FEFFF7B2FFD0
:101EB000DFF890C0D8F80070DCF800E01E4B00217D
:101EC0000E460A4608461C68A0421ADB5D680446B6
:101ED000AC421EDB98682546A84221DC2846013228
:101EE000032A03F10C03EED1FEB909BBD8F8003088
:101EF000DCF80020114903EB430313440B60BDE8F9
:101F0000F0815D680121AC420E4696464FF0000715
:101F1000E0DA98680121A8420F460E469646DDDDBC
:101F200001210E4696460227D9E7CCF800E0DCE70F
:101F3000C8F80070DAE700BF3820FF1F9414FF1FB5
:101F40003C14FF1F3814FF1F10B5FFF76BFC00F0A7
:101F500029FDFEF705FDFEF7A3FAFFF79FFEFFF749
:101F600059FF16211148124C03F06CFE114B20460C
:101F7000196801F0D3FA03210F4803F063FE0F4BF9
:101F80002046196801F0CAFA204601F077FA2221AA
:101F90000B4803F057FE0B4B2046196801F0BEFAC0
:101FA0002046BDE8104001F069BA00BFE496000089
:101FB0009808FF1F481AFF1FB09600004C1AFF1F19
:101FC000FC9600003C07FF1F70B5FFF765FF11216D
:101FD0002248234E03F036FE224801F04FFA002536
:101FE000002433191F48595901F098FA0C34032181
:101FF0001D4803F027FE242CF3D10435194801F0C5
:102000003DFA0C2DECD11121144803F01BFE1548AC
:1020100001F034FA1221154803F014FE144B114854
:10202000196801F07BFA03210F4803F00BFE114BF6
:102030000C48196801F072FA0A4801F01FFA2946A3
:102040000D4803F0FFFD0D4B0648196801F066FAD4
:102050000448BDE8704001F011BA00BFCC9A0000FE
:102060003820FF1F9808FF1FB0960000209700003F
:102070003814FF1F3C14FF1F349700009414FF1FF7
:10208000F0B51E4E1E4D33682A6883B00093009B46
:102090009B1AB3F5FA7F01D203B0F0BD06211948AF
:1020A000194C03F0CFFD194801F0E8F904F11007CD
:1020B0000421174803F0C6FD54F8041B134801F02F
:1020C0002DFA0321134803F0BDFDBC42F0D10F48A7
:1020D00001F0D4F9FFF738FFFFF776FFFEF754FC65
:1020E0000621084803F0AEFD084801F0C7F933683F
:1020F0000193019B2B6003B0F0BD00BF8020FF1F48
:102100002C20FF1FA89600008414FF1F9808FF1FB3
:1021100044970000B0960000144B15481B68154901
:102120000122022B02600A6013D9042B11D0032B69
:1021300013D0062B11D0052B13D0082B11D00E4B2A
:102140000E4A1B680021182B117002DC0846FFF7AD
:10215000E9BBFF21B420FFF7E5BBFF215A20FFF7C1
:10216000E1BBFF214FF48770FFF7DCBB9414FF1F26
:102170000014FF1F7814FF1F741AFF1F8014FF1F25
:10218000154B1B682D2B10B515DC144C2068FEF781
:10219000ABFA142808DC2068FEF7A6FA14300FDB2F
:1021A0000F4B197891B110BDFF214FF48770BDE836
:1021B0001040FFF7B7BBC821B420FFF7B3FBE4E73B
:1021C000FF215A20BDE81040FFF7ACBB0846BDE830
:1021D0001040FFF7A7BB00BF741AFF1F2814FF1F92
:1021E0003414FF1F2DE9F041FFF724FA8748884C8B
:1021F00001F044F92921874803F024FD834801F0C8
:102200003DF93C21844803F01DFD804801F036F97A
:102210002621824803F016FD7C4801F02FF97B4807
:1022200001F02CF90B217E4803F00CFD774801F0FA
:1022300025F917217B4803F005FD744801F01EF9CC
:102240000C21794803F0FEFC704801F017F90921D0
:10225000764803F0F7FC6D4801F010F90A21744844
:1022600003F0F0FC694801F009F90D21714803F011
:10227000E9FC664801F002F90A216F4803F0E2FC2C
:10228000624801F0FBF809216C4803F0DBFC5F4871
:1022900001F0F4F80E216A4803F0D4FC5B4801F029
:1022A000EDF80D21674803F0CDFC584801F0E6F841
:1022B0001421654803F0C6FC544801F0DFF82BE018
:1022C000312B00F09280322B00F09780332B00F0FE
:1022D000B781342B00F0BC81352B00F0C181362B47
:1022E00000F0CE81372B00F0D381382B00F0D8815D
:1022F000392B00F0DD816C2B00F0BA81142153489A
:1023000003F0A0FC414801F0B9F8514B00221A70CB
:1023100003F06EFC002821DD03F02EFC20703B480A
:1023200001F0ACF805214B4803F08CFC207803F059
:102330000DFD0121484803F085FC344801F09EF86A
:102340002378302BBCD11F21444803F07BFC2F485D
:1023500001F094F803F04CFC0028DDDC404DDFF880
:102360000C812378303B3C2B00F2F180DFE813F046
:10237000440162015C0156015001390133012D0114
:10238000F900F600EF00EF00EF00EF00EF00EF00C4
:10239000EF00EF00EF00EF00EF00EF00EF00EF00C5
:1023A000EF00EF00EF00EF00EF00EF00EF00EF00B5
:1023B000EF00EF00EF00EF00EF00EF00EF00EF00A5
:1023C000EF00EF00EF00EF00EF00EF00EF00EF0095
:1023D000EF00EF00EF00EF00EF00EF00EF00EF0085
:1023E000EF00EF00EF00EF00800036211D4803F002
:1023F00029FC064801F042F88AE72A211A4803F02E
:1024000021FC024801F03AF882E700BF9808FF1F5C
:10241000EC13FF1F4C97000078970000B89700005E
:10242000E0970000EC97000004980000149800006A
:10243000209800002C9800003C980000489800006C
:10244000549800006498000074980000309A0000CE
:102450004014FF1F8C980000589A000094980000C8
:102460004007FF1FB4980000EC9800002014FF1FE5
:102470001221934803F0E6FB212001F03FFB0146C7
:10248000904801F04BF803218F4803F0DBFB22203A
:1024900001F034FB01468B4801F040F8894800F018
:1024A000EDFF1221894803F0CDFB232001F026FB2C
:1024B0000146844801F032F80321834803F0C2FB4F
:1024C000242001F01BFB01467E4801F027F87D48DF
:1024D00000F0D4FF12217E4803F0B4FB272001F066
:1024E0000DFB0146774801F019F80321764803F007
:1024F000A9FB0E2001F002FB0146724801F00EF824
:10250000704800F0BBFF1221724803F09BFB0F20C4
:1025100001F0F4FA01466B4801F000F803216A4823
:1025200003F090FB102001F0E9FA0146654800F045
:10253000F5FF1B21684803F085FB0121674803F084
:1025400081FB604800F09AFF642001F063FF03F014
:102550004FFB00283FF405AFBDE8F081FEF7B6FD64
:10256000F5E71C2001F042FF5D4FC8F80000FDF7C1
:1025700097FFFEF7F5F9396852485A4E00F0CEFF42
:102580000321514803F05EFB3868FEF7ADF80146C1
:102590004C4800F0C3FF0521534803F053FB31685A
:1025A000484800F0BBFF0321474803F04BFB30686D
:1025B000FEF79AF80146434800F0B0FF414800F0AA
:1025C0005DFF642001F026FFC1E7FFF759FD0A20F7
:1025D00001F020FFBBE7FDF749FF286801F01AFF73
:1025E000B5E7FEF7BDF9052001F014FF9FED3F0AA6
:1025F0000020FFF711FAAAE709213D4803F022FB6A
:10260000304800F03BFF3B4B00221A70BDE8F081E0
:10261000FFF78CF8286801F0FDFE98E7FEF7B4F9A3
:10262000286801F0F7FE92E700F07CF8286801F0D6
:10263000F1FE8CE7FFF71EF9286801F0EBFE86E754
:1026400022212D4803F0FEFA1E4800F017FF5FE636
:1026500031212A4803F0F6FA1A4800F00FFF57E636
:102660002821274803F0EEFA164800F007FF4FE64E
:102670000E21244803F0E6FA124800F0FFFE47E678
:102680001A21214803F0DEFA0E4800F0F7FE3FE67B
:1026900056211E4803F0D6FA0A4800F0EFFE37E64E
:1026A00006211B4803F0CEFA064800F0E7FE2FE6AD
:1026B0000521184803F0C6FA024800F0DFFE27E6BD
:1026C0005C9A00009808FF1FB0960000709A000006
:1026D000849A0000989A0000AC9A0000589A000072
:1026E0000C14FF1F2814FF1F549A00000000000064
:1026F000489A00004014FF1F189900003C99000000
:1027000070990000209A00009C990000B899000080
:10271000109A0000189A0000014800F0B7B900BFF5
:102720001C08FF1F2DE9F84F494CDFF84481DFF802
:1027300024912746002606F1700A5FFA8AFA4FEACA
:102740004A0B01255FFA8BFB0021414884F83BB01E
:1027500084F85E5084F85D5000F084F951213C48C3
:1027600000F080F929463A4800F0E8FA462001F0E6
:1027700051FE0221364884F83BB084F85E5084F85C
:102780005D5000F06FF92946314800F0D7FA2B462A
:10279000022251462E4800F05BFB94F8390094F871
:1027A0003830C21AAA421BDD5919C9B2984207EB48
:1027B000030207EB010E274D03F1020341D9127EFC
:1027C00087F8381012028842C9F800203DD99EF8D7
:1027D000181087F8383041EA020348F826302B6099
:1027E0000136042EA7D198E881001B491B4B1C4CD5
:1027F0001C4ED8F80850D8F80C20086015211A484B
:1028000025601A60376003F01DFA1848184C00F074
:1028100035FE04F1100554F8041B144800F07EFE48
:10282000124800F02BFEFA2001F0F4FDA542F2D18F
:1028300015210D4803F006FA0C48BDE8F84F00F0EA
:102840001DBE044D4FF0FF33C7E74FF0FF33C4E721
:102850001C08FF1F1414FF1FFC13FF1F401AFF1F4B
:10286000741AFF1F6C14FF1FC89A00009808FF1FFE
:102870008414FF1F70B50D4D7024012663000021E4
:102880000A4885F83B3085F85E6085F85D60013464
:1028900000F0E8F85121054800F0E4F8E4B2012125
:1028A000024800F04BFA742CE8D170BD1C08FF1FE1
:1028B0002DE9F843224DDFF88C80DFF88C902E460E
:1028C00070240127630002211D4885F83B3085F8FC
:1028D0005E7085F85D7000F0C5F80121184800F0C1
:1028E0002DFA012302222146154800F0B1FA95F88D
:1028F000383095F83900591CC9B2834206EB0302FF
:1029000006EB010E03F1020316D2127E86F8381090
:1029100088424FEA02220FD99EF8181086F8383004
:1029200041EA02030134E4B2742CC9F8003048F8DB
:10293000043BC7D1BDE8F8834FF0FF33F2E700BF97
:102940001C08FF1F8414FF1F1414FF1F10B5114C27
:10295000237882B093B1104A104B12680092009A0B
:102960001B680F49D31A462B0A6001DC02B010BD68
:10297000FFF79EFF0023237002B010BDFFF77AFF20
:10298000054A064B12680192019A1A6001232370CE
:1029900002B010BDED13FF1F8020FF1F4414FF1F66
:1029A0004814FF1FF8B5FFF7D1FF074B074E084C3F
:1029B0000849094A1F685D689868DB6837602560C8
:1029C00008601360F8BD00BF8414FF1FFC13FF1FD5
:1029D0006C14FF1F741AFF1F401AFF1F002070475E
:1029E00090F8392090F83800101A704790F8383075
:1029F00090F839209A4205D95A1C034480F83820AF
:102A0000187E70474FF0FF30704700BF90F83830A5
:102A100090F839209A4286BF1B18187E4FF0FF307D
:102A2000704700BF704700BF38B50546B0F85E007C
:102A300090B195F85D301446C3F1210294420CD850
:102A400005F13B001844224601F01AF995F85D3073
:102A5000234485F85D30204638BD01201446287196
:102A6000EEE700BFB0F85E306BB190F85D30202B20
:102A700007D8C218013380F85D30012082F83B107E
:102A80007047012303710020704700BF0023426993
:102A900080F8383080F8393080F85C3080F85D306C
:102AA00080F85E3080F85F3006CA30B40D68046983
:102AB00043662A4383660A60A370426990F86130D6
:102AC0001649146813441D7A5B7B01EBC5051B0294
:102AD0006D6803F4E06343F064032B6090F86230A8
:102AE00013449D7CDB7D01EBC5011B02496803F4A7
:102AF000E06343F064030B6021685368194205D01A
:102B000003692C225A70036904229A7103692022F6
:102B10005A71036980229A7030BC7047D49B0000C0
:102B200038B50269D478E4B2E106054624D510230D
:102B3000D37063061FD504F0040404F0FF03002CD7
:102B40005AD042496A6E00230B7085F85D30002A26
:102B500066D0904795F85D30002B61D02B69D0226C
:102B60009A702B6995F83B201A712B69012285F820
:102B70005C200222DA7038BD04F0400303F0FF004D
:102B8000002BD8D19379DBB203F0600160294ED0DD
:102B9000937803F0100303F0FF01B3B114F00104C4
:102BA00037D195F85C3095F85D1099424BD9591C96
:102BB0002B4485F85C1093F83B3013712B69D022BD
:102BC0009A702B690222DA70D5E785F86010937944
:102BD00043F0200393712B6995F839101A791F2956
:102BE000D2B2C6D8194800780028C2D0681801317E
:102BF00085F839100276BCE72A6985F83930C02398
:102C000093702B69114A1979012111700222DA702F
:102C1000B1E7C02393702B691A790222DA70AAE710
:102C20000122002385F85D2085F83B3096E703F00C
:102C3000DF039371AB6E23B185F8380095F8390046
:102C400098472A69A4E71471B8E700BF5C20FF1F0A
:102C50002DE9F047374FDFF8E0903B68026982B01A
:102C600006460093DDF800800021C825D3789B0636
:102C70005BD53B680193019BC8EB03030F2BF5D990
:102C800049B1102BF2D000209070336980229A70E5
:102C900002B0BDE8F087726996F8613013440521EF
:102CA000187A01F0B1FB726996F861301344012182
:102CB00093F812A0504601F0A7FB092400215046CA
:102CC00001F08EFB2B46013BFDD10121504601F066
:102CD00087FB2B46013BFDD1013CEFD1706996F893
:102CE000611001444FF4C8720C7A4B7B09EBC401AC
:102CF0001B02496803F4E06343F064030B6096F839
:102D000062300344997CDB7D09EBC1011B024968F9
:102D100003F4E06343F064030B60013AFDD13269D0
:102D2000D3789B064FF00101A3D4012002B0BDE887
:102D3000F08700BF8020FF1FD49B0000F0B503691F
:102D40001222DA700269937803F0200385B00446FA
:102D50000D46002B5ED0B42393703C4922690B686A
:102D60000093009E05E00B680193019B9B1B042BC5
:102D700042D8D37803F0200303F0FF00002BF2D0F9
:102D800094F85D30002B31D04FF0000E4FF0020C64
:102D900004EB0E0393F83B3013710B680393039F0E
:102DA000206907E09B060DD50B680293029BDB1B95
:102DB000052B28D8C378DBB203F0020202F0FF062D
:102DC000002AEFD080F803C02669F378DBB2DF0673
:102DD00032462DD49F062BD5DB0731D40EF1010EE0
:102DE00094F85D305FFA8EFE7345D1D800201DBB8C
:102DF000002384F85E3004E09070236980229A708A
:102E0000042005B0F0BD86702369802204209A70EA
:102E100005B0F0BD03F0FF06FFF71AFF10B904205C
:102E200005B0F0BD236984F85F60B0229A7094E722
:102E30008023B3700420DAE726698023B370D7E7D4
:102E4000BEF1000F0CBF02200320F6E78020FF1F19
:102E50002DE9F04106690025122780F8385080F8E6
:102E60003950F770D0F810C09CF802E00EF0200E38
:102E700088B00446884615461E46BEF1000F49D06C
:102E8000B4238CF80230784B21691A680092DDF87F
:102E900000E006E01A6801920198CEEB00000428D9
:102EA00030D8C87800F0200000F0FF070028F1D0EB
:102EB0004FEA480242F00102D2B20A711A68029245
:102EC000DDF808E0206906E01A6803920399CEEB6A
:102ED000010105292AD8C17801F0020101F0FF079C
:102EE0000029F1D04FF0020C80F803C02269D1789C
:102EF00011F0110722D12DBB002E0CBFA02380237F
:102F0000937003E08F70236980229A70384608B06E
:102F1000BDE8F0810EF0FF07FFF79AFE0028F5D01C
:102F2000236984F85F70B0229A70ACE787702369D8
:102F3000802238469A7008B0BDE8F08180239370F3
:102F40000027E3E7012D75D0A021917021690A794E
:102F5000BE4667464FF0A80C1A680492049805E034
:102F60001A680592059A121A052A4AD8CA7802F0F8
:102F7000020202F0FF08002AF2D0CF702169CA785D
:102F8000D2B212F0100F08465AD1920658D5013D20
:102F9000EDB2012D49D0BEF11F0F3BD90A79012DA9
:102FA000DAD11A680692069D05E01A680792079A18
:102FB000521B052A46D8C27802F0020202F0FF0135
:102FC000002AF2D00223C3702269D378DBB2D9067B
:102FD0003AD49B0634D5B023BEF11F0F93703FD86F
:102FE000226904EB0E0312791A760EF1010E5FFAD4
:102FF0008EFE16B1236980229A7084F839E07746F4
:1030000084E781F80280236980229A70774684F8E9
:1030100039E07BE704EB0E0291F8048082F8188017
:103020000EF1010E5FFA8EFEB9E781F802C0216948
:103030000846B0E7A82191702069BE460279B0E742
:10304000774663E78170DEE71021C823D170013B2A
:10305000FDD12269937803F0F7037746937055E723
:1030600023691B79C5E700BF8020FF1F0148FFF7D8
:1030700057BD00BFB007FF1F0148FFF751BD00BF9C
:103080001C08FF1F0148FFF74BBD00BF4407FF1F8F
:1030900038B528220C4605460846002105F024FDD7
:1030A0000B220949204606F059F80022E272A8686E
:1030B00006492061002301250320E560626260610A
:1030C0002162A361E36138BD649B00000AD7233C01
:1030D00010B4034C0460816042715DF8044B70478A
:1030E000749B000070B50C4C437916465B000125BB
:1030F000204684F83B3084F85E5084F85D50FFF73A
:10310000B1FC31462046FFF7ADFC29462046FFF7CB
:1031100015FE284670BD00BFB007FF1FF8B500259B
:103120002A460F46067B05733D210446FFF7DAFF6A
:103130001E2001F06FF9192001F06CF92A46204693
:103140000721FFF7CFFFAFB93A463F212046FFF7EF
:10315000C9FF0A2001F05EF93246267320463D2160
:10316000FFF7C0FF1E2001F055F91420BDE8F8401C
:1031700001F050B980223F212046FFF7B3FFE8E776
:1031800070B5134C437901255B000646204684F850
:103190003B3084F85E5084F85D50FFF763FC2946AD
:1031A0002046FFF7CBFD2B462A4671792046FFF7D4
:1031B0004FFE94F8383094F839209A4205D9E21835
:1031C0002B4484F83830107E70BDFF2070BD00BFE6
:1031D000B007FF1F38B5044632480D46FFF756FCCE
:1031E00020460021FFF7CCFFA0280BD04FF47A70C7
:1031F00001F010F900212046FFF7C2FFA02801D0FE
:10320000002038BD002222733D212046FFF76AFFCF
:103210001E2001F0FFF820223F212046FFF762FF29
:1032200001E001F0F7F800212046FFF7A9FFA028F0
:103230004FF00A00F5D1322001F0ECF800223E21D7
:103240002046FFF74FFF0A2001F0E4F80022072193
:103250002046FFF747FF242241212046FFF742FF87
:103260000A2001F0D7F8052242212046FFF73AFF55
:103270000A2001F0CFF800223F212046FFF732FF5D
:103280000A2001F0C7F82A463D2125732046FFF7A2
:1032900029FF1E2001F0BEF8142001F0BBF8012028
:1032A00038BD00BFB007FF1F2DE9F0411B4D90F85E
:1032B00005E001274FEA4E0E804628461E4614467A
:1032C00085F83BE085F85E7085F85D70FFF7CAFB16
:1032D00039462846FFF732FD3B46324698F805103E
:1032E0002846FFF7B5FDAEB1701E54FA80F0621E9D
:1032F0002C4695F8383095F83910E618994203F1C4
:1033000001038ABF84F83830FF23337E02F8013F7F
:103310008242EED10120BDE8F08100BFB007FF1F5F
:10332000F0B5044683B000251646084625603146B0
:103330006560A560E560256165616A4606230095C4
:10334000ADF80450FFF7B0FF9DF803709DF80550ED
:103350009DF801009DF800109DF802209DF80430B2
:1033600041EA002042EA072243EA0523083E00B270
:1033700017B21DB2262E2FD8DFE806F0312E2E2EE2
:103380002E2E142E2E2E2E2E142E2E2E2E2E142EAB
:103390002E2E2E2E2E2E2E2E2E2E2E2E312E2E2E4A
:1033A0002E2E310004F0AAFC00221B4B04F00CFD71
:1033B000C4E90001384604F0A1FC0022164B04F0D9
:1033C00003FDC4E90201284604F098FC0022124BD8
:1033D00004F0FAFCC4E90401204603B0F0BD04F097
:1033E0008DFC00220D4B04F019FEC4E900013846A3
:1033F00004F084FC0022094B04F010FEC4E9020131
:10340000284604F07BFC0022044B04F007FEC4E9CC
:103410000401204603B0F0BD0000B03F0000594059
:1034200070B5242688B00C46054632460846002171
:1034300005F05AFB104BA9681B680193019B23619F
:1034400003226160A26029461A2202A82660FFF7C3
:1034500067FFDDE9020104F079FF6061DDE9040145
:1034600004F074FFA061DDE9060104F06FFFE06184
:10347000012008B070BD00BF8020FF1F00B5064AC4
:10348000036812885B6883B001A9ADF804200222AA
:10349000984703B05DF804FB889B0000F0B5074631
:1034A0008BB0002A33D0012A08BF0A2251B321244D
:1034B00000E0F4B2B1FBF2F502FB1511C8B2092924
:1034C00000F1300198BFC8B20AA988BF3730214443
:1034D00088BFC0B201F8240C661E2946002DE8D131
:1034E00033B1013CE4B20AAB23442D2203F8242C6F
:1034F0003B6801AA11195B683846C4F1220298475B
:103500000BB0F0BD30228DF825202124E8E70368B8
:10351000C9B21B6898470BB0F0BD00BF0029BABF05
:1035200049422D2300230A22FFF7B8BF10B50446F5
:1035300002F040FE204610BD38B5214C23685BB137
:10354000204A1268013B012182F880105A1D08BFF1
:103550006FF00203236038BD1A4B1B4D1A682B68AD
:103560000121117093B1194AD2ED007AF5EEC07ABB
:10357000F1EE10FA06D99FED167AF4EEC77AF1EE65
:1035800010FA0ADD236000232B6038BD114802F0D9
:1035900011FE114BFF221A7038BDDFED106ABEEE2E
:1035A000007AA7EEA67AFCEEC77A17EE902A232AB5
:1035B000E8D90B49074802F0B3FD2B68E2E700BFEA
:1035C0007020FF1F6820FF1F6C20FF1F7420FF1F4B
:1035D0008988884C6020FF1F8808FF1F0000704208
:1035E000393500003F284BD8F8B5002A41D03A4B76
:1035F00002FB01F2A3FB02239B095B0001330029BC
:103600003BD007EE901ADFED356AF8EE677A86EE6A
:10361000A77A334A02EBC0014D6872B631490C7883
:1036200084422ED03F2C304C02D8266801273770B8
:1036300052F830202D4F08702D4E3B6002F58070FF
:10364000B5EEC07A01212060F1EE10FA4FF4A270BD
:1036500082F8001186ED007A82F88012286006D97F
:10366000DFED247AB4EEE77AF1EE10FA19DD62B6F6
:10367000F8BD6FF002030029C3D19FED187AC8E7A7
:1036800070471B4AD2ED007AF4EE477AF1EE10FA59
:1036900018D116490A6802F00102013A13440B607E
:1036A000E5E7DFED156AFEEE007AE7EE267AFCEE3E
:1036B000E77A17EE902A232AD9D91049104802F048
:1036C0002FFDD4E709480F4C016882ED007A01F024
:1036D000010101602360CAE7D34D62100024F44861
:1036E000D49B00008808FF1F6820FF1F7020FF1F69
:1036F0007420FF1F8988884C000070423935000013
:103700006020FF1F6C20FF1F3F2807D810B572B63E
:10371000084C2378834202D062B610BD7047064839
:1037200002F048FD054B1A680121FF231170237038
:10373000F2E700BF8808FF1F6020FF1F6820FF1FFF
:1037400030B4054B054A0649802400251C711D60D4
:10375000184630BC02F044BF6020FF1FF806FF1F70
:103760002D35000010B50446006804F083FE2046A5
:1037700010BD00BF38B543688B4201D3012038BD6E
:103780000D4604460131006805F000FA0028F6D025
:10379000A36884E82100002BF0D10370EEE700BF9E
:1037A000F8B50446154632B9036803B11A70002310
:1037B000A3602046F8BD0E461146FFF7DBFF074623
:1037C00048B9206810B104F055FE276000236360FB
:1037D000A3602046F8BDA5603146206805F0E0FBF7
:1037E000E7E700BF38B50023044603604360836009
:1037F000037341B108460D4605F042FC29460246D6
:103800002046FFF7CDFF204638BD00BF38B505463E
:1038100008460C4605F034FC214602462846BDE821
:103820003840FFF7BDBF00BF10B5044619B1FFF720
:10383000EDFF204610BDA160204610BD2DE9F843E4
:1038400003680F46BB420446816815460AD85A18D9
:10385000974207D2C3EB07094FF0010835B920465C
:10386000BDE8F8834FF00008002DF8D04E1931461E
:103870002046FFF77FFF0028F1D0B8F1000F0ED0EF
:103880002368A0682A4603EB0901184400F0F8F900
:10389000236800229A55A6602046BDE8F883206878
:1038A000A3683946184405F07BFBF4E710B582B0F5
:1038B00000238DF80410012201A904468DF805307B
:1038C000FFF7BCFF204602B010BD00BF006808B182
:1038D00004F08CBD704700BF374A384913681B0697
:1038E000FCD40B6813F08003F8D172B634490A781F
:1038F000002A5FD0334A3448F0B4344C1768066865
:103900002568D4680C303E44143200681268304F89
:1039100035442C4420440244C2F34E022D4E2E481E
:103920002E4D2F4C42F400423A60376806682D68ED
:103930002C4A24680C303E44006812682A4F3544F3
:103940002C4420440244C2F34E02284E2848294DFC
:10395000294C42F400423A60376806682D68274ACD
:1039600024680C303E4400681268254F35442C44CE
:1039700020440244C2F34E02224E2348234D244CDD
:1039800042F400423A60376806682D68214A24688C
:103990000C303E440068126835442C4420440244F4
:1039A000C2F34E021C4842F4004202600B7062B641
:1039B000F0BC704762B6704724B0034024B00B409F
:1039C0007920FF1F38B003403CB0034040B00340B3
:1039D0002CB0034058B003405CB0034060B00340DB
:1039E00064B003406CB0034030B0034038B00B40CB
:1039F0003CB00B4040B00B4044B00B404CB00B40CF
:103A00002CB00B4058B00B405CB00B4060B00B408A
:103A100064B00B406CB00B4030B00B4030B4294860
:103A2000294A2A4B2A4D6024E121047011701B7829
:103A3000284C082B30D00A2B2748284937D00C2B8C
:103A40000CBF35225D2212232A60236002600B60C6
:103A5000234B24491B78244ABBB101230B6013601C
:103A6000224B23491B78234A012B26D9042B0FD93B
:103A7000082B1ED9102B94BF862387230B6013605D
:103A80001D4B01221A7030BC70470B601360E7E7D2
:103A900084230B601360F3E700F58E200F49083094
:103AA000212213232A60236002600B60D0E73922B1
:103AB000F7E785230B601360E2E780230B60136058
:103AC000DEE700BF00400740014007408908FF1FB4
:103AD00008B003400CB0034008B00B400CB00B40E2
:103AE0007C20FF1F20B0034020B00B408A08FF1F3E
:103AF00024B0034024B00B407920FF1F47282FD863
:103B0000334B2DE9F0411E5CFF2E2BD0314B1B783F
:103B1000002B2AD132062CD472B62F4D2F4C2F46B3
:103B2000012326602B7062B672B623681B060CD484
:103B30003B781BB9F4E72B78002BF1D062B602F08A
:103B400085F972B623681806F5D5254B1B68002247
:103B50002A7062B6234A107843FA00F0BDE8F0817B
:103B6000002070470020BDE8F081FFF7B5FE320667
:103B7000D2D572B61C4DDFF87C801C4C06F0400795
:103B8000FFB206F03F06D8F80030DFB123F0100393
:103B9000C8F8003001232660134A2B7062B672B653
:103BA000236819060CD413781BB9ECE72B78002B8B
:103BB000E9D062B602F04AF972B623681B06F5D561
:103BC0000B4BC3E743F01003C8F80030E2E700BF37
:103BD0008C9B00007920FF1F7B20FF1F00B003405B
:103BE00010B003407820FF1F7A20FF1F00B00B4069
:103BF00010B00B400CB00B400A4A0B49136843F459
:103C0000805313600B7843B9084BC0221A70084BDD
:103C100080F30C0000B218807047044B80221A70A9
:103C2000F5E700BF2C8004407C20FF1F21C00C4022
:103C300000C00C400A4A0B49136843F40053136058
:103C40000B7843B9084BC0221A70084B80F30C0064
:103C500000B218807047044B80221A70F5E700BF4D
:103C60002C8004407C20FF1F21D00C4000D00C4051
:103C700008B5FDF7E3FAFDF7E7FB02F0E7F8FAE72E
:103C8000844641EA000313F003036DD1403A41D367
:103C900051F8043B40F8043B51F8043B40F8043B26
:103CA00051F8043B40F8043B51F8043B40F8043B16
:103CB00051F8043B40F8043B51F8043B40F8043B06
:103CC00051F8043B40F8043B51F8043B40F8043BF6
:103CD00051F8043B40F8043B51F8043B40F8043BE6
:103CE00051F8043B40F8043B51F8043B40F8043BD6
:103CF00051F8043B40F8043B51F8043B40F8043BC6
:103D000051F8043B40F8043B51F8043B40F8043BB5
:103D1000403ABDD2303211D351F8043B40F8043B55
:103D200051F8043B40F8043B51F8043B40F8043B95
:103D300051F8043B40F8043B103AEDD20C3205D365
:103D400051F8043B40F8043B043AF9D2043208D05D
:103D5000D2071CBF11F8013B00F8013B01D30B88CF
:103D600003806046704700BF082A13D38B078DD0AD
:103D700010F003038AD0C3F10403D21ADB071CBF7F
:103D800011F8013B00F8013B80D331F8023B20F8E9
:103D9000023B7BE7043AD9D3013A11F8013B00F822
:103DA000013BF9D20B7803704B7843708B788370AA
:103DB0006046704708B5104C08E0236859050DD4DB
:103DC00023681A050FD42368DB0411D42368580331
:103DD000F3D501F093F823685905F1D502F044FAC0
:103DE00023681A05EFD500F0AFFC2368DB04EDD59E
:103DF00000F01EFEEAE700BF3480044008B5FFF77C
:103E0000D9FF00BF014B10221A80704700200540E7
:103E1000704700BF094908B50B6830B16A461844BD
:103E2000A2F50052904202D20860184608BD04F084
:103E3000E7FA0C2303604FF0FF3008BD8C08FF1F2A
:103E4000EFF3138070B9EFF310836BB9EFF30582D2
:103E50005AB94FF48070EFF311832BB1984228BF09
:103E6000184670474FF0FF3070470F2A01D81846A8
:103E7000F1E7014BD05CEEE7F0E300E004F0FABAC2
:103E8000F0B44D1E2E46002400E00134B0FBF2F3E6
:103E900002FB1300092800F130078ABF3730F8B25F
:103EA000C0B206F8010F1846002BEED10A19537064
:103EB0004CB1107815F8016F28700133E01A834275
:103EC00002F80169F5DB0846F0BC704710B4114BED
:103ED00053F8302092F8804234B1012379B182F84E
:103EE00080305DF8044B704703EBC0035B681A68D1
:103EF00051B922F002021A605DF8044B704782F853
:103F000000315DF8044B704742F003021A605DF81F
:103F1000044B7047D49B00001C4A02EBC0030129EC
:103F20005B6811D004291BD052F83000002280F8C1
:103F3000802229B1022920D0032922D01A6070479B
:103F40004FF480721A60704752F830004FF4A2723A
:103F500080F880121A601A6822F020021A607047F6
:103F600052F830104FF4A272012081F880021A60DA
:103F70001A6842F020021A60704740F203121A6079
:103F800070474FF481721A60704700BFD49B0000E5
:103F900030B4054B054D064C002210211A602A60F2
:103FA0002060196030BC704714D0034004D0034037
:103FB00000D0034038B5A0F14203012B04461FD9BD
:103FC000002975DD904B1B78012505FA03F28A4222
:103FD00002D83F2827D938BDC21E012A2BD9A0F10B
:103FE0001D02012A73D90E2856D9A4F12302032AEF
:103FF00057D9864A126802FB011222FA03F320E025
:10400000814B1B780B2B0AD90C2B1CBF0C3B194185
:10401000422C084657D0BDE83840FFF70BBEC3F12D
:104020000C039940F4E72946FFF750FF2946BDE805
:104030003840FFF771BF764A126802FB011222FA7C
:1040400003F3A21E242A00F2D580DFE812F0CC0090
:10405000C500BE00B700B000A900A2009B009400FC
:10406000D300D300D3008D00D300D300D300D300FE
:10407000D30086007F0078007100D300D300D30006
:10408000D300D3006A006300D300D300D300D30071
:104090005C0055004E00470044F28412C240D20733
:1040A000A3D55C4A126802FB011222FA03F3C8E7A7
:1040B0003F2890D80021FFF709FF20460121BDE8E5
:1040C0003840FFF729BFBDE83840FFF795BD524A99
:1040D000126802FB011222FA03F3B2E74F49504A79
:1040E0000B604FF45173136038BD4E494E4A0B605C
:1040F0004FF45173136038BD4C494D4A0B604FF477
:104100005173136038BD4B494B4A0B604FF45173E8
:10411000136038BD49494A4A0B604FF4517313602C
:1041200038BD4849484A0B604FF45173136038BD9D
:104130004649474A0B6040F24443136038BD454945
:10414000454A0B6040F24443136038BD4349444A3A
:104150000B6040F24443136038BD4249424A0B6051
:1041600040F24443136038BD4049414A0B6040F27D
:104170004443136038BD3F493F4A0B6040F244431B
:10418000136038BD3D493E4A0B6040F24443136022
:1041900038BD3C493C4A0B6040F24443136038BD93
:1041A0003A493B4A0B6040F24443136038BD3949F9
:1041B000394A0B6040F24443136038BD3749384AEE
:1041C0000B6040F24443136038BD3649364A0B60F9
:1041D0004FF45173136038BD3449354A0B604FF4C6
:1041E0005173136038BD3349334A0B6040F2444386
:1041F000136038BD3F2C3FF6EEAE7F29D4BF0021BF
:104200000121204657E700BF9008FF1F08800340A8
:104210000890034008900B4008800B4048900B40EA
:104220002CB0044040900B4028B0044038900B4024
:1042300024B0044030900B4020B0044018800B4064
:104240004CA0044010800B4048A00440188003405C
:1042500008B004401080034004B004404080034094
:1042600018C004403880034014C0044018900B402C
:1042700004C004402880034010B004402080034064
:104280000CB0044028900B400CC0044020900B4020
:1042900008C004403080034010C004404880034000
:1042A0001CC0044018900340349004401090034018
:1042B0003090044010900B4000C00440DFED387A8D
:1042C000DFED386A384AB4EEE70AF1EE10FA47F645
:1042D000122370B446BF1A4602240124002322FA96
:1042E00003F107EE901AF8EEE77A27EEA67AB4EE1D
:1042F000C70AF1EE10FA07DA0133072BEFD1D20922
:1043000007EE902AF8EEE77A87EE807A4FF6FF7193
:10431000C21EF6EE007A77EE677AFCEEE77A17EEC9
:10432000905A8D4228BF0D46012A29462AD91728BE
:1043300015D9A0F11D02012A2ED90E2826D9A0F1E7
:104340002302032A1CD8194A194E1A4D43EAC40302
:104350000020106030602960136070BC7047164AFE
:10436000C24002F0010282F00105002AE1D0134AA6
:10437000134E1448156043EAC403356001601360AE
:1043800070BC7047104A114E114DDFE744F28412A1
:10439000C240D207D7D4D2E70E4A0F4E0F4DD5E711
:1043A000C0E1E440000080370087930300900B4099
:1043B00004900B4008900B406006F0000080034022
:1043C00004800340088003400090034004900340B1
:1043D0000890034000800B4004800B4008800B4095
:1043E0003F2801D8FFF772BD704700BF3F2806D8AD
:1043F000044B53F8303093F80002C0B270470020ED
:10440000704700BFD49B00003F2801D8FFF784BD50
:10441000704700BF2DE9F843054672B6204F214B87
:10442000214A1B683C68126862B6520102D5322BE1
:1044300088BF013495B3C3F5EA331C4EDFF86490AE
:10444000DFF86480BF334FF47A72A6FB031302FBDC
:1044500004F404EB931472B6D9F800103A68D8F853
:1044600000E062B6C1F5EA33BF33A6FB03031EF0DA
:10447000806FC4EB93134FF47A7002D0322988BF57
:10448000013200FB0233B3F57A7F04D3013D05D03E
:1044900004F57A74DFE701F0D9FCDCE7BDE8F883C6
:1044A0008020FF1F18E000E004ED00E08988888884
:1044B000F8B53E4B3E49DFF818C13E4E3E4ADFF8A4
:1044C00014E13E4D3E4C3F4F4FF0006018604FF0FE
:1044D000805018604FF0005018604FF08040186016
:1044E0004FF0004018600020086028234EF6FF714E
:1044F000CCF80010CEF8003033600EF5012E1360BA
:104500002B60236005F500253B6004F50024B362B1
:1045100007F50027936206F5012602F501220EF148
:10452000100E05F6E87504F6E87407F57F6710329B
:1045300020362B602360CEF800303B601360336080
:10454000214EBB61936109223260A7F5002706F571
:104550008056203F083638603160BB60F36047F812
:10456000042C06F5FD2607F5FE2706F2FC76043737
:1045700030603960B360FB6046F8042C0836C7F839
:10458000FC0F06F6FC76114831602B602360026058
:10459000FFF744FA1920FFF73DFF01F017FA40F248
:1045A0001310BDE8F840FFF735BF00BF04E100E09D
:1045B00004800340148003401C8003402480034097
:1045C0002C800340348003400080034000900B4067
:1045D000088003400C8003402A4A2B491368F0B43A
:1045E00043F4006313600A78284F294E294D2A4C62
:1045F0002A490023092A3B7033702B7023700B70FB
:104600003AD03B2A1ED0264B1B780A2B22D03A2BBD
:104610002DD01F2824D8002002460126214B224DF0
:104620001A70224C5E7004219872022288273C2660
:1046300040209970DA7459751F74DE7028702260FA
:10464000F0BC70471A4B40F213321A60144B1B78BF
:104650000A2BDCD1174B4FF451721F281A60DAD99C
:10466000C0F34432C0F3471600F01F00D6E7124BE8
:104670004FF451721A60CCE7104B40F213321A60BB
:10468000C1E700BF348004409108FF1FF420FF1FE2
:104690008920FF1FFC20FF1FF520FF1F8820FF1F20
:1046A0009208FF1F00B0064021E400E004E100E0B2
:1046B00004D0044010B0044000D004400CB00440CA
:1046C000054A064B10781B78C0B2DBB2984238BF5F
:1046D0004030C01A704700BFF420FF1F8920FF1F21
:1046E00030B4154B154C1A782378D2B2DBB29A420B
:1046F0001ED001333F2B0ED91149124B087819688F
:104700000023C0B2237021B1D31A1A2B01DC00237D
:104710000B7030BC70470A480A49C05C0968DDB2BA
:10472000C0B225700029F4D09A4238BF4032EBE77E
:104730004FF0FF30EDE700BFF420FF1F8920FF1F7F
:10474000B420FF1F8420FF1FF0B4384B1A7912F0F9
:10475000300F2CD072B6997D01F0FF0200293DD0B8
:1047600062B6334F334938780D78334E1C46C0B2A9
:10477000EDB2431C402BE17928BF0023AB4202F18C
:10478000FF32C9B21CBFF154184612F0FF02F0D13B
:104790002A4B1B68C2B23A704BB1A84236BFC5F172
:1047A0004005401B40192728C4BF01221A701F4929
:1047B000CA78D2B2150616D452060DD51B4B1B79FA
:1047C0005B0609D51E4B1F491B6800220A7003B106
:1047D0001A70164B3C22DA70F0BC70474022D9792F
:1047E0005A7462B6E3E70B791C06E5D5164B174EF3
:1047F0001C783378E4B2DBB29C420ED0144D01E059
:10480000A3420AD00133282B28BF00230879E85C93
:10481000C0B2C871087D0728F2D9DBB203493370F2
:104820000B79180644BF7C23CB70C5E700B0064067
:10483000F420FF1F8920FF1FB420FF1F8420FF1FCB
:10484000F820FF1F8820FF1FFC20FF1FF520FF1FFF
:104850008C20FF1F2DE9F84F214B1B6807460BB139
:1048600001221A70DFF888901E4D99F80040DFF899
:1048700084801D4E0134272C8ABF4FF0000A5FFA56
:1048800084FA5446AB462B78A34216D1FFF7D8FAE8
:1048900040281FDC33791B06F5D59BF80030013327
:1048A000272B86BF00221346DAB218F80330DBB29A
:1048B000F3712A702B78A342E8D00C490A4BFFB25F
:1048C00008F804700120AC22087089F800A0DA70A2
:1048D000BDE8F88FFF28D6DD01F0B8FAD3E700BFB6
:1048E0007421FF1F7121FF1F00C006407021FF1FB0
:1048F0007821FF1F0821FF1F1B4BDFF890C01A68AB
:104900001A49F0B542F48052194D1A60DFF880E080
:10491000184F194E194C00238CF800304FF4517287
:104920002B701F2840F213358EF800303B70337027
:1049300025600A6011D819460124114A114D1170E1
:104940001148547000212C2740269372082491703E
:104950001174D7702E700460F0BDC0F34431C0F301
:10496000471400F01F03E8E7348004400CC0044003
:104970000521FF1F7121FF1F7021FF1F08C0044088
:1049800000C0064023E400E004E100E00421FF1F32
:104990007821FF1F034B1B68DB0401D5FFF75ABFCB
:1049A000704700BF34800440054A064B10781B78DE
:1049B000C0B2DBB2984238BF4030C01A704700BF67
:1049C0000421FF1F0521FF1F30B4154B154C1A7829
:1049D0002378D2B2DBB29A421ED001333F2B0ED9DC
:1049E0001149124B087819680023C0B2237021B115
:1049F000D31A1A2B01DC00230B7030BC70470A4815
:104A00000A49C05C0968DDB2C0B225700029F4D043
:104A10009A4238BF4032EBE74FF0FF30EDE700BF7E
:104A20000421FF1F0521FF1F3021FF1F0021FF1F51
:104A300030B42B4B1A7994061FD52A48DA790378BB
:104A4000294901333F2B0978C8BF00238B42D2B2DA
:104A500003D0264CD9B2E2540170254A116861B1E5
:104A6000244A1278D2B2934236BFC2F140029B1A56
:104A70009B18272BC4BF01230B70194AD378DBB2D4
:104A8000180611D45A060DD5154B1B795B0609D5AE
:104A9000194B1A491B6800220A7003B11A70104B97
:104AA0002C22DA7030BC704711790906EAD5144916
:104AB00010480C780178C9B28C420DD04A1C272AC4
:104AC00084BF00210A460F4D054C98BFD1B2AA5CA5
:104AD000D2B2E2710170D5E76C21D170D2E700BF8C
:104AE00000C006400421FF1F0521FF1F3021FF1FCA
:104AF0000021FF1F7121FF1F7421FF1F7021FF1F65
:104B00007821FF1F0821FF1F284A29491368F0B4A4
:104B100043F4005313600A78264F274E274D284C44
:104B2000284900231F2A3B7033702B7023700B70B1
:104B300037D03F2A1BD0244B1B78202B1FD03E2B75
:104B40002AD01F2821D80020024601241F4B204DC7
:104B50001A702C27002240261E495C70987220246F
:104B60009A701A74DF702E700C60F0BC70471A4B8C
:104B700040F213321A60144B1B78202BDFD1174BF5
:104B80004FF451721F281A60DDD9C0F34432C0F3CC
:104B9000471400F01F00D9E7114B4FF451721A600F
:104BA000CFE7104B40F213321A60C4E73480044060
:104BB0009308FF1F8021FF1F8121FF1FF421FF1F8A
:104BC000ED21FF1FEC21FF1F9408FF1F00D00640BE
:104BD00025E400E004E100E014D004402CA00440EF
:104BE00010D0044028A00440054A064B10781B78DA
:104BF000C0B2DBB2984238BF4030C01A704700BF25
:104C00008021FF1F8121FF1F30B4154B154C1A78EE
:104C10002378D2B2DBB29A421ED001333F2B0ED999
:104C20001149124B087819680023C0B2237021B1D2
:104C3000D31A1A2B01DC00230B7030BC70470A48D2
:104C40000A49C05C0968DDB2C0B225700029F4D001
:104C50009A4238BF4032EBE74FF0FF30EDE700BF3C
:104C60008021FF1F8121FF1FAC21FF1F7C21FF1F1F
:104C700030B42B4B1A7994061FD52A48DA79037879
:104C8000294901333F2B0978C8BF00238B42D2B298
:104C900003D0264CD9B2E2540170254A116861B1A3
:104CA000244A1278D2B2934236BFC2F140029B1A14
:104CB0009B18272BC4BF01230B70194AD378DBB292
:104CC000180611D45A060DD5154B1B795B0609D56C
:104CD000194B1A491B6800220A7003B11A70104B55
:104CE0002C22DA7030BC704711790906EAD51449D4
:104CF00010480C780178C9B28C420DD04A1C272A82
:104D000084BF00210A460F4D054C98BFD1B2AA5C62
:104D1000D2B2E2710170D5E76C21D170D2E700BF49
:104D200000D006408021FF1F8121FF1FAC21FF1F03
:104D30007C21FF1FED21FF1FF021FF1FEC21FF1F32
:104D4000F421FF1F8421FF1F431E032B14D872B6CA
:104D50000A4951F8230068B170B4094C058834F849
:104D60001320466841F82360521B24F8132062B6D2
:104D700070BC704762B67047002070475022FF1F1A
:104D8000D024FF1F013803280BD872B6074B53F805
:104D9000203043B100205B680130002BFBD162B6AC
:104DA0007047002070471846F9E700BFA422FF1F94
:104DB00030B472B62B4A13781D0706D52A4B196AF0
:104DC000002936D0996A002941D053781C0706D5AE
:104DD000254B196C00293ED0996C002939D0937865
:104DE000190705D5204B196E002936D0996E89B167
:104DF000D3781B0707D51C4BD3F880207AB3D3F8A0
:104E0000882011213AB162B6184B00221A7030BCCA
:104E100000F08CBE0D21154C154D227843F8315011
:104E200003EBC1030830013A5860227062B630BC0F
:104E3000704704220D4C0F4D217843F8325003EB9C
:104E4000C20308304A1E5860227062B6EFE705219F
:104E5000E1E70921DFE70822ECE70C22EAE710226C
:104E6000E8E700BFFC9D00000000FF1FCD22FF1FF0
:104E7000C800400088004000431E032B1DD81B4A79
:104E8000400140F0100030B4104472B6184CE25C9F
:104E9000032A1BD8DFE802F00212151703220D883F
:104EA000E25410F0080F14BFC823882343EA0543D7
:104EB00008310360416062B630BC7047083002229E
:104EC000EDE70522EBE708300422E8E7094A52F84B
:104ED000230038B1084A52F82300416042F82310F9
:104EE00062B6E9E742F82310034AF7E70000FF1F24
:104EF000DC22FF1FA422FF1FB422FF1F2DE9F04F69
:104F0000DFF80CB3DFF80CA387B044E0AB4F4FEAF7
:104F1000930807EBC809013ED9F8042003F0080301
:104F2000F6B2A2F1080003F0FF04002B40F002816A
:104F300057F838301B0C99B222F8081C002B00F0EF
:104F4000F0809F4B22F8064C42F8044C53F8262080
:104F5000002A00F0C5829B4D55F8263058609A4CC7
:104F600045F8260034F81630194424F8161000F0DD
:104F7000BDFD002800F0AD82944A954B19F0080F52
:104F800000F1080018BF1346C9F8040047F838308C
:104F900008238BF800309BF80040E4B261071AD573
:104FA0008C4B1B78A3B18C490A7802F0FF0322B125
:104FB000013BDBB20B7003B900BE88490A7802F0EE
:104FC000FF032AB1013BDBB20B70002B00F05782CC
:104FD00004238BF8003004F0080303F0FF02002BD9
:104FE00000F0CC809AF80030DBB21E098ED19C080C
:104FF000DFF8C89159F8342009EBC401C2F38302E9
:10500000013A49680C2A00F28880DFE802F07C7CD3
:105010008686868686864786868607000868704D5F
:105020004A68704F704E286081B240F28160674BD1
:105030006A604FF0010E0022814249F834303A6034
:10504000C9F81020C9F8182086F800E05B4C00F27F
:10505000E380B1F5D06F80F04683B1F5817F00F039
:10506000FC8200F28D82802900F07783822940F053
:10507000FA82A98801F07F01042900F2F4825B48DA
:105080005B4C89000844227062700278930740F1FB
:10509000588484F800E04FF0020E42E3514F3A6822
:1050A00032B3544B504E5449188834780D78402808
:1050B000864645F0020828BF4FF0400E002C84F0D1
:1050C00001043470CEEB00000CBF8824C82409EB27
:1050D000C80680B285F0010544EA0E44726018806B
:1050E00049F8384072440D70002800F045813A605C
:1050F0003B4B1A88B2F5A06F0FD100219A785970F6
:105100003E4B1A7009E0364A108842F22102904262
:1051100000F037812D4A49F83420394A01231370B1
:1051200036E72A4A2A4B19F0080F18BF134647F8EA
:1051300038302DE700F0FAFC324A334952F8263075
:10514000002B00F0D18158688C5D42F8260003F1F5
:105150000802C9F80420032C05D8DFE804F02C026B
:10516000292602228A551A8819F0080F0CBF8823B5
:10517000C82343EA024347F8383009E7E00700F163
:105180008181210600F1F281A20706D51F4A20493C
:1051900013780220DBB213700870E30602D51C4BB3
:1051A00010221A7007B0BDE8F08F04228A55DAE7A2
:1051B00005228A55D7E703228A55D4E70000FF1F4E
:1051C0005022FF1FFC21FF1FD024FF1FC8004000FA
:1051D00088004000D822FF1F6122FF1FE022FF1F2E
:1051E000C422FF1FF821FF1F6022FF1FC0200740BD
:1051F000D022FF1F0C22FF1FCC22FF1F9820074048
:1052000094200740A422FF1FDC22FF1F88200740B4
:10521000802007409020074042F22100814200F0A8
:105220002A8100F2D880B1F5086F00F07682B1F5DE
:10523000106F40F01882226AB349A87808701206ED
:1052400000F13A83D9F82820B049130600F10C8305
:10525000D9F83020AD49150600F10183D9F838207E
:10526000AA49140600F1F682D9F84020A749100691
:1052700000F14A83D9F84820A449120600F13F837F
:10528000D9F85020A149130600F13483D9F85820E9
:105290009E49150600F12983D9F860209B49140620
:1052A00000F11E83D9F868209849100600F1138395
:1052B000D9F870209549120600F10883D9F87820B2
:1052C0009249130600F1FD82D9F880208F49150616
:1052D00000F13183D9F888208C49140600F1258328
:1052E000D9F890208949100600F11983D9F898203F
:1052F0008649120600F10D838548864A8649019049
:105300008648874D874C0497002305960295804672
:105310000F4616461D460394306828B1446800F0D5
:1053200005FC2046002CF9D100233360029B38682D
:105330001A46002342F8253028B1446800F0F6FBF5
:105340002046002CF9D100223A60019A98F80030EA
:105350001146002241F8042B039A0191023B4FF0C1
:10536000000122F81510032B00F22B81DFE813F067
:105370007001250170012501BEF1400F18BF002208
:10538000B5E6694A0D784878157050708D78C87800
:105390009570D07010680D79157186284D798979CE
:1053A0005571917100F09B816049614E0A783078A7
:1053B00082F00105002842F002020D700CBF882126
:1053C000C82149F8321009EBC20280F00100002127
:1053D000307051609EE642F22120814240F0CB8144
:1053E000544B554C5549A8781D682560CDF804E00C
:1053F0000870002002908046844604464B490D7890
:1054000045F0020E09EBCE030393019B002B039B97
:105410005C600CBF8824C82444EA080385F00104BA
:1054200049F83E3032700C70DFF8E0E0404BDFF8B6
:10543000FC80002840F01E81BCF1400F1BD144F0DD
:10544000020C09EBCC03029CDFF8C0E05C60002A90
:1054500040F02681020442F088029DF804304EF8A4
:105460003C20044433700D702346402803D10020B3
:10547000334A3B601080334A012313704DE600F03D
:10548000C1FCA5E5214B2F4828491A614FF0020EB7
:1054900080F800E02C4F0A702C49196099602C4E5E
:1054A0002C4D2D4C9A610D213970FF213170DFF8A0
:1054B000B8E029702270294D294A8EF800109F27E4
:1054C000012406F8047C5D600470DA6007B0BDE872
:1054D000F08F244A47F8380013780133137057E5EA
:1054E00043F826000E4D3AE58B5D032B00F2F08069
:1054F00001A252F823F000BF914F0000914F00002D
:10550000B5550000AF550000D822FF1F0000FF1F57
:10551000B422FF1F5022FF1FA422FF1FDC22FF1F07
:10552000FC21FF1FD024FF1FD824FF1FCC22FF1F08
:105530006022FF1F8020FF1FE024FF1FF022FF1FBB
:105540000C22FF1F94200740C02007408800400025
:105550008820074080200740982007401022FF1F26
:105560006422FF1FCD22FF1F8C200740C149C24B80
:1055700080220D2008701A70A2077FF50EAE05E696
:1055800040F20232914240F0EE80A98801F07F01A2
:10559000042968D86A88002A65D1B648CDF804E0A5
:1055A00089000844017841F00201017021E70123DC
:1055B0008B55EDE400238B55EAE44FF0010388F8A6
:1055C00000300135042D06F1040607F1040708F147
:1055D00001087FF4A1AEA94CA94B2278A94D049FE4
:1055E000059E002129701A70130700F10581627869
:1055F000A549DFF8A0820A7010074FF00001C9F832
:105600003010C9F8381000F1E080A049A2780A7083
:105610000021C9F85010C9F858101107DFF874823A
:1056200000F10181E2789A499A4C0A700021120730
:10563000C9F87010C9F8781000F1B0803378019380
:10564000002183F00102C9F89010C9F89810D0E643
:105650004FF0000388F80030B3E7A98801F07F011C
:10566000042940F28D80834A0F2313708A4A012354
:10567000137052E540287FF6E2AE44F002040EEBD0
:10568000C401029E4E60BAB19DF80410834A19709D
:105690003346403888F8005040334EF83420E7E66F
:1056A0009DF8043033700204029B0D7042F0C80272
:1056B00003444EF83C20D8E69DF804101970029B74
:1056C000774A88F80050403840334EF83420CFE60F
:1056D00019F0080F0CBF022303238B5558E4714ABD
:1056E0000F21117060E6704A5468002CBBD06888A6
:1056F000B5F804E003E00C325468002CB3D01388F2
:105700008342F8D153887345F5D1000A03280CBFB2
:1057100094F800E0B2F808E003E0644A644C1278C0
:105720002270E888704580F03F8162490D784028FA
:10573000844645F0020E28BF4FF0400C04EB0C03EA
:1057400009EBCE02029301235460CCEB00004FEA38
:105750000C4800220193C8245EE6554C4FF0020E1F
:1057600022706270DDE7B1F5A06F7FF47CAF01239A
:10577000002201933DE642F221329142F7D072E7D6
:105780006A88002A7FF46FAF3A48CDF804E08900B8
:105790000844017821F0020101702AE600F0A6F920
:1057A000002800F0EF8008303D4AC4F88400C4F8B7
:1057B000802000F09BF9002800F0DE800830374A96
:1057C000C9F88C00C9F8882038E700F08FF9002864
:1057D00000F0C0800830324AC8F84400C8F84020C1
:1057E00000F084F9002800F0AF8008302B4AC9F897
:1057F0004C00C9F8482008E700F078F9002800F0CC
:10580000CD800830264AC9F82400C9F8202000F0CD
:105810006DF9002800F0BC800830204AC9F82C003F
:10582000C9F82820E3E600F061F9002800F09E8026
:1058300008301B4AC8F86400C8F8602000F056F928
:10584000002800F08D800830144AC9F86C00C9F8AF
:105850006820E7E6C86B083800F068F904E5486B93
:10586000083800F063F9F9E4C86A083800F05EF916
:10587000EEE400BFC020074080200740FC9D0000F0
:10588000C4200740CD22FF1FC8200740CC2007407E
:10589000D02007400000FF1F94200740C8004000B0
:1058A000880040006122FF1F009E0000D822FF1FD9
:1058B000D022FF1FCC22FF1F606A083800F036F9A3
:1058C000C0E4C86F083800F031F9FDE4486F0838CB
:1058D00000F02CF9F2E4C86E083800F027F9E7E48C
:1058E000486E083800F022F9DCE4C86D083800F092
:1058F0001DF9D1E4486D083800F018F9C6E4C86C09
:10590000083800F013F9BBE4486C083800F00EF9D1
:10591000B0E4D1F89C00083800F008F9ECE4D1F8C4
:105920009400083800F002F9E0E4D1F88C0008385F
:1059300000F0FCF8D4E4D1F88400083800F0F6F860
:10594000C8E44FF0020EECE62A78C9F848000132AC
:105950002A705AE62A78C8F8400001322A703FE7D8
:105960002A78C9F8680001322A705BE62A78C8F8FC
:10597000600001322A7061E72A78C9F88800013294
:105980002A705BE62A78C4F8800001322A7010E79A
:105990002A78C9F8280001322A7028E62A78C9F83E
:1059A000200001322A7032E7BEF1400FF44628BFD2
:1059B0004FF0400C04EB0C0302930123CCEB0E00E0
:1059C0004FEA0C480022019318E500BF2DE9F04191
:1059D00000F0C8FD2F4C304B3048DFF8D880304FF6
:1059E000304D314EDFF8D0C0DFF8D0E000221A6031
:1059F0005A609A60DA601A615A619A61DA611A62D1
:105A00005A629A62DA621A635A639A63DA631A64B0
:105A10005A649A64DA641A655A659A65DA651A6690
:105A20005A669A66DA661A675A679A67DA67C3F837
:105A300080202168C3F8842041F48021216001681E
:105A400041F040710160C3F3072188F8001004F5AC
:105A50002834C3F307411B0E3970CC342B7000F18E
:105A60002040FF238CF80030104D8EF8003000F6F7
:105A7000041033700E49012308F8083C7026227088
:105A80004FF40014102207F82C3C2E7004600A70AA
:105A9000BDE8F081348004400000FF1F00D80040C2
:105AA000B0200740B42007401020074035E400E054
:105AB000082107409C20074080200740882007409D
:105AC00000F0A4B800F07CB800F056B800F090B830
:105AD00000F06CB900F046B90846114600F0B2B8C3
