:10000000F8FF022099010000D93E0000913E000057
:10001000913E0000913E0000913E0000913E0000A4
:10002000913E0000913E0000913E0000D93E00004C
:10003000D93E0000913E0000CD600000D16100007B
:10004000D93E0000D93E0000D93E0000D93E000054
:10005000D93E0000D93E0000D93E0000D93E000044
:10006000D93E0000D93E0000D93E0000D93E000034
:10007000D93E0000D93E0000D93E0000D93E000024
:10008000D93E0000D93E0000D93E0000D93E000014
:10009000D93E0000D93E0000D93E0000D93E000004
:1000A0004931000055310000D93E0000D93E000022
:1000B000D93E0000D93E0000D93E00004563000053
:1000C000D93E000025480000D93E00000D4B00003D
:1000D000D93E00004D4D0000D93E0000D93E000041
:1000E000D93E0000D93E0000D93E0000D93E0000B4
:1000F000D93E0000D93E0000D93E0000D93E0000A4
:10010000D5620000E9620000FD620000116300009A
:10011000D93E0000D94F0000D93E0000D93E000072
:10012000D93E0000D93E0000D93E0000D93E000073
:10013000D93E0000D93E0000D93E0000D93E000063
:10014000D93E0000D93E000071640000D93E000095
:1001500069650000D93E0000D93E0000D93E00008C
:10016000D93E0000D93E000061310000D93E0000B8
:10017000D93E0000D93E0000D93E0000D93E000023
:10018000D93E0000D93E0000D93E0000D93E000013
:10019000D93E0000D93E0000584B4CF2205210B519
:1001A0001A804DF628121A8000BF00BF03F098FE97
:1001B000534B4FF030621A60524A9A60524ADA60EA
:1001C000524B4FF470021A60514A136813F4807353
:1001D00004D150490B604FF4A85313604E4B1A786A
:1001E000110703D51A7842F008021A704B4B4C499C
:1001F0002A221A704B4A4C4B8B4204D252F8040FFD
:1002000043F8040BF8E7494B494900228B4202D2DC
:1002100043F8042BFAE74749474A002352F82300E2
:1002200041F823000133662BF8D1444B444A802126
:1002300003F8011B9342FBD1424B3E4A1A60424BEA
:100240008A221A70A3F5805324225A70A0221A70B1
:100250009A799207FCD59A79D406FCD43B4A9379D3
:1002600003F00C03082B394BF9D103221A714622F3
:100270005A719A799006FCD5344A9179334B4906E4
:10028000FBD5334A4FF08271116009215160202261
:100290001A709A7902F00C020C2AFAD12D4B2E4AD0
:1002A0001A602E4B2E4A1A6000225A60072243F829
:1002B000042C2C4AC3F80C2D62B604F067F9154BD8
:1002C0001B68DA0705D5284803F0D0FE274B284ADB
:1002D0001A60284B1B785B0609D5244C244B2268F6
:1002E0009A4204D1204803F0C1FE0023236008F0A5
:1002F000F9F803F0FBFD03F029FDFEE70E200540B1
:1003000030800440823F04000100002B88ED00E0B3
:1003100010D0034014D0034002D0074000E0074053
:100320001013FF1F38A20000F806FF1F1013FF1F55
:10033000F024FF1F0002FF1F0000000000E400E0A7
:1003400056E400E008ED00E00050064000400640A2
:100350004480044004800440C010050014E000E024
:10036000BFD4010000002020ECAF0F5D1CE0034073
:10037000A5C3945A00F00740FFFFFFFFFFFFFFFFF8
:10038000FFFFFFFFFFFFFFFFFFFFFFFFFFFFFFFF7D
:10039000FFFFFFFFFFFFFFFFFFFFFFFFFFFFFFFF6D
:1003A000FFFFFFFFFFFFFFFFFFFFFFFFFFFFFFFF5D
:1003B000FFFFFFFFFFFFFFFFFFFFFFFFFFFFFFFF4D
:1003C000FFFFFFFFFFFFFFFFFFFFFFFFFFFFFFFF3D
:1003D000FFFFFFFFFFFFFFFFFFFFFFFFFFFFFFFF2D
:1003E000FFFFFFFFFFFFFFFFFFFFFFFFFFFFFFFF1D
:1003F000FFFFFFFFFFFFFFFFFFFFFFFFFFFFFFFF0D
:10040000FFFFFFFFFFFFFFFFFFFFFFFFDEF9FFFF23
:1004100010B5054C237833B9044B13B10448AFF33E
:1004200000800123237010BD1013FF1F0000000087
:1004300034A20000084B10B51BB108490848AFF3BF
:1004400000800848036803B910BD074B002BFBD0A0
:10045000BDE81040184700BF000000001413FF1F44
:1004600034A200001013FF1F0000000008B504F0C4
:1004700009FB50B905F02AFC00B908BD05F0EAFBFC
:10048000BDE80840C0B204F0F3BA04F00BFBC0B200
:1004900005F0CAFC014803F05FF8EBE79C08FF1F7A
:1004A0002DE9F04F7D4B7E4FDFF81092DFF8308260
:1004B000DFF830A240F2E73283B01A60BB4604F0A6
:1004C0006DF9002840D004F079F9C4B2592C79D0E4
:1004D000422C63D0792C40F08780724B724D734E62
:1004E00001221A603368012B5FD02B68012BE6D103
:1004F0006C4C2268012A00F098803368012BDED111
:100500006B4A1368012BDAD16A48019203F04CFA66
:100510009AF800303860019A13B14042CBF80000DD
:1005200065496448019203F0EDF9D8F80010019A8A
:1005300000230131C8F80010336013608AF80030DE
:1005400004F02CF90028BED1D9F800305B4A13F131
:100550004A0F00F089803A68594912F14A0F0B603E
:1005600000F08F80574B1A60D8F80030012B12DD55
:10057000554B1B68012B00F08880D9F80030534A96
:100580005349386808605B421360524A01210023D6
:100590001160C8F8003003B0BDE8F08F424D434E03
:1005A0002B6801229342326010D0414A13683BBB52
:1005B000A4F13003092B2BD92D2C96D101238AF8D5
:1005C000003092E7384D394E01232B60354B1B68C4
:1005D000002B87D1A4F13003092B40D92D2C81D1D8
:1005E0003D4B01221A707DE72F4D622C296802D104
:1005F0002F4B01221A6001292C4E7FF473AFE5E7DF
:10060000296801293FF474AF012B7FF458AF7BE7D1
:100610002146284803F0B8F92B68012B7FF46DAF11
:10062000204C2268012A7FF468AF2C4803F0BCF903
:10063000294BC9F800001A7820490AB140420860E5
:100640001D49264803F05EF9D8F80010224B00221D
:100650000131C8F800102A6022601A704DE7214667
:100660001E4803F091F93DE73B6813F14A0F05D0AE
:1006700013481449006810600B6075E7104B1B6845
:100680001360104B1B683B606EE711490F4BD9F8A4
:1006900000003A6808601A6077E700BF5C14FF1F2B
:1006A0003813FF1F4013FF1F6413FF1F3013FF1F7A
:1006B0005813FF1F6C13FF1F7C9700005C13FF1F74
:1006C0005413FF1F6013FF1F2814FF1F3014FF1F58
:1006D0001414FF1F7814FF1F6813FF1F4413FF1F1C
:1006E0002C13FF1F3C13FF1F144B1B685A1EB22A0A
:1006F0001BD8134A2D2BA8BF2D236FF02C018B4242
:10070000B8BF0B46C11A07EE103A07EE901AF8EE82
:10071000C76AF8EEE77A9FED0B7A1360E6EEC77AC8
:10072000FDEEE77A17EE900A7047A3F1B402B42AFF
:10073000034A94BFA3F5B4731368DBE76014FF1F8B
:100740003413FF1FCDCCCC3D2DE9F0410C4FDFF829
:1007500040800C4E0C4D0D4C3946404603F0B0F82D
:1007600032462946404605F0A9FF3946204603F0A7
:10077000A7F8324629462046BDE8F04105F09EBF65
:100780007C970000F806FF1F413800006C13FF1F24
:100790004413FF1FF8B5594F594C3B6859485A4EFE
:1007A00001222260A3F11001584C0260B1F5A47F30
:1007B000A3F15A0288BF2360362A9CBFAA2020607A
:1007C000A3F1910023289CBFD7202060A3F1B5009E
:1007D00022289CBF91202060A3F1D80036289CBF1E
:1007E000BE2020603068B0F5967F21DD2360A3F144
:1007F0003D013A29464D02D9E73B3A2B6ED8D72323
:100800002B60B42A04D83368B42BDCBFBE232B6022
:10081000FFF746FE3B681F3BB3F5957F02D933686F
:100820008C2B5EDC29682068BDE8F84001F098B99F
:10083000B4282ADD0D2998BF03F11E01A3F11E0083
:1008400098BF21600E289CBF03F123012160A3F112
:100850002D012C2998BF03F12D056FF4877E98BFD9
:10086000256003EB0E052C2D98BF2160A3F59E712A
:100870000E2998BFA3F123016FF4A57598BF2160DD
:1008800059190D29B3D82060B1E70D299CBF03F198
:1008900028012160A3F11E010E299CBF03F12D0147
:1008A0002160A3F12D012C299CBF03F137002060AA
:1008B0006FF4877018182C289CBFA3F137002060B4
:1008C000A3F59E700E2898BF21606FF4A57159188A
:1008D0000D299CBFA3F12801216088E7FA232B6032
:1008E0008FE70C4B2968D3ED007A2068FDEEE77A9C
:1008F000BDE8F84017EE902A01F044B98414FF1FB8
:100900000814FF1F8014FF1F441AFF1F5814FF1FF5
:100910000C14FF1FA014FF1F1B4B1B68142B19DDA9
:100920001A4BD3ED007AB1EE0E7A77EE877AC3EDEB
:10093000007AB3EE0E7AF4EEC77AF1EE10FA06DC26
:10094000BBEE0E7AF4EEC77AF1EE10FA01D583ED24
:10095000007A704714330D4BD3ED007A06DAB1EE0E
:100960000E7A77EEC77AC3ED007AE2E7F5EEC07A49
:10097000F1EE10FAB1EE007ACCBF77EEC77A77EEDF
:10098000877AC3ED007AD4E71414FF1FA014FF1F69
:10099000704700BF704700BF10B5054C08212046C6
:1009A00002F086FC20460121BDE8104002F024BC84
:1009B0007C13FF1FD0B50D4C0D4986B01A22684636
:1009C00002F01CFD206807F005FADDE90067024629
:1009D0000B463046394607F0CBFC20B93046394645
:1009E00007F0F8FC206006B0D0BD00BF6014FF1F08
:1009F0007C13FF1F10B5FFF7DDFF05210648074CEC
:100A000005F08EF9064B2046196802F0F5FD2046E8
:100A1000BDE8104002F0A0BD5C9700009C08FF1FDD
:100A20006014FF1F10B51021044603F095FA20460C
:100A300010BD00BF10B5074C282220464FF0FF31F3
:100A400002F0B4FB2046044A0449BDE8104005F01A
:100A500035BE00BF7C13FF1FF806FF1F950900007D
:100A600038B5A74BA74C1868A749A0F1100201237D
:100A7000B2F5A47F23600B606CD9A44AA44B127812
:100A80001B689A42A34AA44BC0F2BC800024FF21F9
:100A900014601960A0F12D012C2969D89B4C9C4948
:100AA000247809688C4280F20781A0F15A015A2506
:100AB000FF24362915601C6040F2DE80A0F1910110
:100AC000232967D8914C9249247809688C4280F296
:100AD0009D80A0F1B501B425FF24222915601C607A
:100AE00062D9A0F1D801362966D8884C8849247883
:100AF00009688C4280F299806FF4877C00EB0C01CE
:100B0000B425FF242C2915601C6060D9A0F59E71C6
:100B10000E2965D87D4C7E49247809688C4280F284
:100B200098806FF4A57C60444FF48774FF210D28F2
:100B30001460196000F29C8000200146106018606B
:100B400001F00EF8754B1B683C2B56DDBDE83840B4
:100B500001F082BB0D2A00F2B9806C4A6C4B12780E
:100B60001B689A426B4A6C4B48DBFF21106019608E
:100B7000A0F15A013629A1D8644C65492478096846
:100B80008C4279DBA0F19101B425FF242329156063
:100B90001C603BD9A0F1B5012229A2D85B4C5C496D
:100BA000247809688C4239DAA0F1D801B425FF24F1
:100BB000362915601C609FD96FF4877141182C2964
:100BC000A4D8524C5249247809688C4238DAA0F5EE
:100BD0009E714FF48775FF240E2915601C60A0D903
:100BE0006FF4A57141180D2950D91068196800F0EB
:100BF000B7FF4A4B1B683C2BA8DC38BD00211160B5
:100C00001960B5E700211160196043E7A0F1B50153
:100C10000024222914601C603FF663AFA0F1D801C4
:100C20000024362914601C60C6D86FF4877E00EB60
:100C30000E01B425FF242C2915601C603FF666AF19
:100C4000A0F59E714FF48775FF240E2915601C6076
:100C5000C6D86FF4A57E00EB0E014FF48775FF2414
:100C60000D2915601C6003D8FF2110601960BEE7D4
:100C7000FF214FF48770BAE7A0F19101B425FF245A
:100C8000232915601C607FF624AF83E71F4C2049A1
:100C9000247809688C42E7DA002001461060186069
:100CA0004EE71C4A1C4BA0F12D015A25FF242C298C
:100CB00015601C603FF65CAFA0F15A015A25FF2475
:100CC000362915601C607FF65DAFF7E6A0F11E03C4
:100CD0000E2B02D90F4A104BDCE60C4A0C4B127853
:100CE0001B689A42DDDA0B4A0B4BA0F12D015A2505
:100CF000FF242C2915601C607FF6D7AE38E700BFB3
:100D00008414FF1F0814FF1F8014FF1FFC06FF1F21
:100D1000441AFF1F9013FF1F8C13FF1F7C1AFF1F25
:100D200030B583B0E8B9184D2B68013317D0174A96
:100D30001749184B126809680446186800F0ECFE61
:100D400050B1154B154A1B6801931168019B40F285
:100D5000ED225B1A934210D94FF0FF332B6003B0A2
:100D600030BD0D4B0B4A1B6800930C49064B009895
:100D7000126808601A6003B030BD22462146204642
:100D800000F000FFEBE700BF0007FF1FB013FF1FDD
:100D9000E413FF1F8414FF1F8820FF1F9813FF1FF9
:100DA0002DE9F043AE4BAF4C1B682268AE4D9A4222
:100DB00083B046D02B78022B3CD0082B3AD0AB4ADC
:100DC0001168002903DCAA48002101701160012B81
:100DD0001FD0042B1DD0A74A1168002903DCA648A8
:100DE0000021017011600F2B1BD00E2B00F2B1817E
:100DF000DFE813F02E006D008A00A600B700D400D3
:100E0000F5008A0002010F011C015C017901020159
:100E100085019949974A0B700F2B40F2DB51116005
:100E2000E3D1964B01211B782B70112003F046FB78
:100E30002B78DAE78E498D4A0B7040F2DB51116056
:100E4000C5E78E4A1378002BB4D12B781370B2E724
:100E5000DFF854828A4ED8F800308A4F33604FF062
:100E6000FF32FF2300211420C8F800203B6003F06C
:100E700025FB0021112003F021FB2368824A2978F9
:100E80001170013B012B2360804A00F0608100213A
:100E90008B42117040F347813068421C00F043815F
:100EA0007B4B7C4A1B6801937B4B39681768019A1E
:100EB0001A607A4BC8F8000000221F6000F062FE42
:100EC0002368002B40F3368103B0BDE8F0836C4EFD
:100ED0006C4F734A734BDFF8D081B4214FF0000997
:100EE0003160FF213960C2F8009049461E2214206B
:100EF0001A6003F0E3FA49460D2003F0DFFA494691
:100F0000112003F0DBFAB8E75D4E5E4F644A654B93
:100F1000DFF894814FF487713160FF2139605A21E5
:100F200011603C2200211A60142003F0C7FA00214E
:100F30000D2003F0C3FA0021112003F0BFFA9CE753
:100F40004F4E504F564B574ADFF85C81E1213160DC
:100F5000FF2139602D2119601423184613600021E8
:100F6000E3E7484F4E4A4F4B454EFF204FF00008F5
:100F70003860B420106041461E221420C6F800805C
:100F80001A6003F09BFA41460D2003F097FA4146A0
:100F9000112003F093FADFF810816EE7344B1B78D1
:100FA000022B00F02181082B00F0F9800023344E41
:100FB000344F33601A46DC211E203B6002F080FB78
:100FC0000121142003F07AFA0021112003F076FAAF
:100FD00001210D2003F072FADFF8CC804DE7284E96
:100FE000284F2F4B2F4ADFF8C08040F23B11316071
:100FF000FF2139608721AEE7214E224F284A294B35
:10100000DFF8A4805A213160FF2139604FF48771E5
:1010100086E71B4E1B4F224B224ADFF88C8087212C
:101020003160FF21396040F23B1194E7124B1B788D
:10103000012B00F0C780042BB8D1114E114F184876
:10104000184900231A463360FF233B60B423036032
:101050001E230B60184640F25D1102F031FBAFE732
:101060000407FF1FD813FF1FDC13FF1FD413FF1F3C
:10107000C913FF1FD013FF1FAD13FF1FC813FF1F9E
:101080002C14FF1F7C14FF1F4914FF1F1014FF1F97
:101090008820FF1F8414FF1F9813FF1F0007FF1FE6
:1010A000E413FF1FB013FF1FE013FF1F584E594FEB
:1010B000594A5A4BDFF87081B4214FF00009316072
:1010C000FF213960C2F8009049463C2214201A6082
:1010D00003F0F4F94946112003F0F0F901210D2045
:1010E00003F0ECF9C9E64A4E4A4F4B4B4B4ADFF846
:1010F00038812D213160FF213960E1212BE7454FF7
:10110000454A464B424EFF204FF000083860B4205D
:10111000106041463C221420C6F800801A6003F09B
:10112000CDF9012130E74FF0FF32002BC8F8002045
:101130003FF7CAAE0020FFF7F3FD1E2002F052FB7E
:101140000023236033602B7003B0BDE8F08313707D
:10115000A2E6334B334A19682D4E2E4FDFF8C88074
:10116000B43181FB0223CA18CB17C3EB22234FF4FF
:10117000B47202FB13113160FF224FF0FF330021E4
:1011800014203A60C8F8003003F098F900210D20CF
:1011900003F094F90121112003F090F96DE61C4E43
:1011A0001C4F1D4A1D495A203060FF201E23386005
:1011B0004FF4877010600B6018460022822102F005
:1011C0007FFAFDE6124E134F13481449B4233360DF
:1011D000FF2300223B601E2302600B60184640F292
:1011E000745102F06DFAEBE6094E0A4F0A4A0B49B8
:1011F0004FF487703060FF201E2338605A20106043
:101200000B601846002240F2164102F059FAD7E668
:101210002C14FF1F7C14FF1FE413FF1FB013FF1FCC
:101220005814FF1FB7600BB6E013FF1F2DE9F84FEE
:10123000DFF8BC90284EDFF8BCB0284D284FDFF80F
:10124000B8A0DFF8B880002489F8004034705BF85B
:10125000040BC0B202F0C0FC57F8042B9628D4BF90
:1012600000230123D0B22B6002F0B6FC2A6899F863
:101270000010337802FA04FE96287144D4BF4FF070
:10128000000E4FF0010E0EFA04FC6344C9B2DBB24B
:10129000013404354AF804EB0AB9962803DD1148F5
:1012A000D8F800200260042C89F800103370CED1E9
:1012B0000D4802780B43134303702BB90B4A13708C
:1012C000BDE8F84FFFF76CBD084B01221A70BDE86E
:1012D000F84FFFF765BD00BFAC13FF1F9C13FF1F46
:1012E0001807FF1FD813FF1FDC13FF1FEC13FF1F8E
:1012F0009413FF1F0807FF1FB813FF1F0407FF1FEA
:1013000070B5FFF793FF0A212548264C264D04F0BF
:1013100007FD264802F020F904F1100654F8041BDA
:10132000224802F069F90121214804F0F9FC55F83E
:10133000041B1E4802F060F903211E4804F0F0FC73
:10134000B442EBD1194802F007F90A21144804F01D
:10135000E7FC164802F000F90821174804F0E0FC09
:10136000164B124819780A22002302F005F91221BF
:10137000134804F0D5FC134B0C48196802F03CF9F3
:101380000A4802F0E9F8962003F0B2F80A2104486E
:1013900004F0C6FC0548BDE8704002F0DDB800BFAF
:1013A000649700009C13FF1FB813FF1F9C08FF1FCA
:1013B0009C9B00007097000074970000AC13FF1F07
:1013C000809700002C14FF1F00B5154B1B7883B0CD
:1013D00043B1144A144B12680092009A1A6003B089
:1013E0005DF804FB0F4B104A1B680193019B1268C8
:1013F0009B1AB3F57A7FF2D20C4A0D490D4B126855
:101400000968186800F088FB0028E8D00A4A1368C9
:1014100003EBD3735B10136003B05DF804FB00BFF4
:101420001014FF1F8820FF1FB413FF1FB013FF1FEE
:10143000E413FF1F8414FF1F581AFF1F30B40A4B18
:101440000A4C1A680A4984B00192019D1A680292F6
:1014500002981B680393039A064B256008601A6084
:1014600004B030BC704700BF8820FF1FCC13FF1FA3
:101470009813FF1FB413FF1FF0B52DED028B83B03F
:1014800000F0A2FA554D5648564F574B574E584903
:10149000584ADFF8E8C1DFF8E8E19FED578A0024F9
:1014A00004702C605548564D3C6034600C701470CC
:1014B0001C60544F544B554E5549564A04702C608D
:1014C0005548564D3C6034600C6014701C60544F9D
:1014D000544B554E5549564A04602C605548564D5C
:1014E0003C6034600C6014601C60544F544E55498D
:1014F000554A046000232B6054483B600125356049
:101500000D601570524F534E5349544A057054485C
:10151000CCF80040CEF800403D603560514F0C6083
:10152000514E52491460524A0460B0EE480A0220FB
:101530003B60336015600D6002F02EFFB0EE480A8C
:10154000052002F029FFB0EE480A062002F024FF31
:10155000B0EE480A172002F01FFF0521162002F006
:10156000C1FF0521102002F0BDFF2946142002F022
:10157000B9FF29460D2002F0B5FF2946112002F0DF
:10158000B1FF21461D2002F0ADFF21461C2002F0D4
:10159000A9FF43F2D40003F01DFA40F6230003F044
:1015A00021FB43F2D40003F085F8FFF7F5F900F0D2
:1015B000CDF801F01FF900F05DF92E4A2E4B1268AC
:1015C0000192019A1A604FF4FA7002F091FF00F054
:1015D00021FA03B0BDEC028BF0BD00BF4C14FF1F1D
:1015E0003C14FF1F2014FF1F1C14FF1F5014FF1F6B
:1015F000F513FF1FF613FF1F00606A461814FF1F44
:101600003414FF1FE813FF1FF013FF1F6414FF1FA4
:10161000681AFF1F2820FF1F741AFF1F0C14FF1FDA
:10162000581AFF1F5814FF1F1414FF1F3014FF1FF8
:101630005C14FF1F2814FF1FF813FF1F601AFF1F01
:10164000801AFF1F841AFF1FFC13FF1FFD13FF1FCB
:10165000501AFF1F541AFF1F7814FF1F0014FF1F9A
:10166000641AFF1F5414FF1FA014FF1F8014FF1FD4
:101670000814FF1F8820FF1F4C1AFF1F6014FF1F54
:10168000441AFF1F70B51D2002F01EFF214C206080
:101690001C2002F019FF204B186004F017FB0028F3
:1016A00001DD00F00DFE1D4DFFF784F901F0E8F9B2
:1016B00000F0D6F9FEF7F4FE2E68012E22D000F0DD
:1016C0003BFC174B1B7823B12368ABB1FFF762F8E3
:1016D00003E023689BB900F0BFFDFFF7A7FDFFF70C
:1016E00073FE104A104B92ED000A1868B8EEC00A5B
:1016F000BDE8704000F0AEBAFFF7B2F9EDE700F0D8
:1017000057FDEAE7FFF708F9084A002316702B6037
:10171000D5E700BF3414FF1F2814FF1F7814FF1FE4
:101720003C14FF1F581AFF1F741AFF1F2414FF1FB9
:10173000044A054B126882B00192019A1A6002B005
:10174000704700BF8820FF1F4C1AFF1F70B51A4E4C
:101750001A4D1B4C7078012102F0C4FE68780121FB
:1017600002F0C0FE6078012102F0BCFEB0780121D9
:1017700002F0B8FEA878012102F0B4FEA0780121A1
:1017800002F0B0FEF078012102F0ACFEE878012111
:1017900002F0A8FEE078012102F0A4FE30790121D8
:1017A00002F0A0FE2879012102F09CFE207901219F
:1017B000BDE8704002F096BE2807FF1F3007FF1FEC
:1017C0003807FF1F70B504460848005D16461D46E1
:1017D00002F074FE064B3146185D02F06FFE054ABA
:1017E0002946105DBDE8704002F052BC3007FF1F73
:1017F0003807FF1F2807FF1F70B51A4E1A4D707863
:101800001A4C012102F05AFE6878012102F056FEBE
:10181000B078012102F052FEA878012102F04EFEBC
:10182000F078012102F04AFEE878012102F046FE3C
:101830003079012102F042FE2879012102F03EFEBA
:101840006078FF2102F024FCA078FF2102F020FC48
:10185000E078FF2102F01CFC2079FF21BDE87040F8
:1018600002F016BC3007FF1F3807FF1F2807FF1FB5
:10187000FFF7C2BF38B500202DED028B0021234DAC
:10188000DFED238A9FED238A002411E007EE904AC2
:10189000F8EEE77A67EEA87A87EE887A17EE100AF4
:1018A00006F0AAFA41EC100B04F06EFF51EC100B9D
:1018B00006F0B8FD0134B4F5B47F45F8040BE5D16A
:1018C000154DDFED138A9FED138A14490020002483
:1018D00011E007EE904AF8EEE77A67EEA87A87EE15
:1018E000887A17EE100A06F087FA41EC100B04F024
:1018F000EBFE51EC100B06F095FD0134B4F5B47F0E
:1019000045F8040BE5D1BDEC028B38BDA414FF1FD4
:10191000DB0F494000003443881AFF1F0000F03FEE
:1019200070B50D1E044612D014DD002601210B4BAC
:10193000185D02F0C3FD0A4B3146185D02F0BEFD92
:10194000084B2946185DBDE8704002F0A1BB2E4649
:101950002946ECE76D4201260021E8E73007FF1F2A
:101960003807FF1F2807FF1F38B50125ECB2C82331
:10197000012200212046FFF725FF4FF47A7002F084
:10198000B7FD00221146C8232046FFF71BFF4FF486
:10199000967002F0ADFDC823002201212046FFF71A
:1019A00011FF4FF47A7002F0A3FD00222046114689
:1019B000C823FFF707FF01354FF4967002F098FD3A
:1019C000052DD3D138BD00BF08B56422DC211E200F
:1019D00001F076FE642002F08BFD1E2001F002FF74
:1019E0006422DC211E2001F06BFE642002F080FDE9
:1019F0001E2001F0F7FE642240F252311E2001F059
:101A00005FFE642002F074FD2F20BDE8084001F065
:101A1000E9BE00BF08B5642240F252311E2001F039
:101A20004FFE642002F064FD1E2001F0DBFE642204
:101A300040F252311E2001F043FE642002F058FDB6
:101A40001E2001F0CFFE64226E211E2001F038FE20
:101A5000642002F04DFD1E20BDE8084001F0C2BE2A
:101A600070B50F4C0F4E104D03F02CF9002813DD0C
:101A700003F038F9C0B210F0010F0C4A20704FEAA1
:101A800040030AD00128D4BF00230123286013702B
:101A900003F018F90028EBDC70BD3360E4E700BF09
:101AA0003020FF1F8414FF1F441AFF1F3C14FF1F28
:101AB00008B5FFF7D5FF124B1B785BB90F21114812
:101AC00004F02EF9104801F047FD6420BDE80840FD
:101AD00002F00EBD0D4B0C48196801F08DFD03217D
:101AE0000B4804F01DF90B4B0748196801F084FD01
:101AF000054801F031FD6420BDE8084002F0F8BC63
:101B00003C14FF1F949700009C08FF1F8414FF1FC4
:101B100070970000441AFF1F8842B2BF03460B466D
:101B20000146591A0029B8BF4942C1F5B47088422C
:101B3000A8BF08468242B4BF00200120704700BF02
:101B40008142CABF03460B460846181A0028B8BF90
:101B50004042C0F5B4739842A8BF1846704700BF12
:101B6000054A064B10B4064C1060002221601A6032
:101B70005DF8044B704700BF741AFF1F2014FF1F4D
:101B8000581AFF1F30B40C4B0C4D0D4C286012F14D
:101B9000B40F1A60216007DA02F5B47212F1B40FC3
:101BA000FADB1A6030BC7047B42AFBDDA2F5B472D0
:101BB000B42AFBDCF5E700BF2014FF1F741AFF1FD7
:101BC000581AFF1F1B4BDFED1C6AD3ED007A1B4A2E
:101BD0001B4BDFED1C5A93ED000AB8EEE77AB6EE28
:101BE000005AB4EEE67AF1EE10FAC8BFDFED167ACD
:101BF000DFED166AC8BF37EE677AD2ED007A144A75
:101C0000F8EEE77AD2ED004A77EE677AB0EE006A36
:101C100037EEC00AB0EE677A20EE250AA4EE857A88
:101C2000A7EE860A82ED007AC3ED007AA7EE260AB7
:101C3000704700BF6014FF1F000034432014FF1FD3
:101C4000601AFF1F000000000000B443CDCCCC3D63
:101C5000F813FF1F704A7149D2ED006A704A91ED86
:101C60002D5AD2ED007AD1ED875ADFF8E0C1F8B5F0
:101C70006C4BDFF8DCE193ED2D4AD3ED874A6A4DDA
:101C80006A4C6B4E8200134493ED006A0A4420EEC6
:101C9000466A92ED007AF8EEE66A20EE077A66EE82
:101CA000266AF8EEE77A26EE856A67EE277A26EE50
:101CB000A57AA7EE846A07465E48CCED006AA7EED7
:101CC000A47A2DED028BF1EE475AB1EE465ACEEDD5
:101CD000007A80ED006AC4ED005A86ED007AB0EE1D
:101CE000408A85ED005AFFF76DFFD0ED006A9FED49
:101CF000526A524B96ED007AD5ED007AD4ED005A37
:101D000083ED000A70EE266A30EE077AF4EEC66ABA
:101D1000F1EE10FA70EE277A30EE250A0AD49FED24
:101D2000486AF4EEC66AF1EE10FA6DDDF0EE466A2E
:101D3000FF2103E0F0EE466A6FF0FE019FED3E6A80
:101D4000C0ED006AB4EEC67AF1EE10FA56D4DFEDBB
:101D50003C6AB4EE667AF1EE10FAC8BFB0EE667A6D
:101D6000DFED356A86ED007AF4EEE67AF1EE10FAF0
:101D700047D49FED337AF4EE477AF1EE10FAC8BFFC
:101D8000F0EE477A9FED2C7AC5ED007AB4EEC70AE3
:101D9000F1EE10FA3DD4DFED2A7AB4EE670AF1EEE7
:101DA00010FAC8BFB0EE670A012084ED000AFFF701
:101DB000B7FDD6ED007AFDEEE77A022017EE901A15
:101DC000FFF7AEFDD5ED007AFDEEE77A032017EEC2
:101DD000901AFFF7A5FDD4ED007AFDEEE77A042016
:101DE00017EE901AFFF79CFDBDEEC88A154B164AF8
:101DF00083ED008ABDEC028B1760F8BDB0EE467A29
:101E0000AEE7F0EE667ABDE7BDEEE66A16EE101AB2
:101E100094E7B0EE470AC7E78014FF1F881AFF1F38
:101E20000814FF1FA414FF1F7014FF1F2C20FF1F96
:101E30006C14FF1F6814FF1F00007FC35C1AFF1F94
:101E400000007F436C1AFF1F781AFF1F3814FF1F12
:101E5000701AFF1F02290ADC00EB4000014404480D
:101E600050F821301A44952A98BF40F82120704735
:101E70004020FF1F70B505460E460024022D03DDED
:101E80000134032CFAD170BD324621462846FFF7B3
:101E9000E1FFF5E770B506460025002421463246ED
:101EA00028460134FFF7D6FF032CF7D10135032D67
:101EB000F3D170BD38B51B4B1B4C18681B4DFEF79A
:101EC00013FC1B4B20601868FEF70EFC034601460E
:101ED00020682B60FFF734FE0028B8BF404214286A
:101EE00010DD22682B689A4214DC03DB114B0022C0
:101EF0001A7038BD1E210220FFF7BCFF0D4B0022D7
:101F00001A7038BD1E210120FFF7B4FF094B0022D3
:101F10001A7038BD1E210020FFF7ACFF054B0022D0
:101F20001A7038BD1414FF1F3820FF1F3C20FF1FFC
:101F30003014FF1F2414FF1F2DE9F0416FF0020041
:101F4000FFF7A8FFDFF89480FFF7B4FFDFF890C039
:101F5000D8F80070DCF800E01E4B00210E460A465F
:101F600008461C68A0421ADB5D680446AC421EDBD2
:101F700098682546A84221DC28460132032A03F14D
:101F80000C03EED1FEB909BBD8F80030DCF8002014
:101F9000114903EB430313440B60BDE8F0815D6816
:101FA0000121AC420E4696464FF00007E0DA9868F1
:101FB0000121A8420F460E469646DDDD01210E4660
:101FC00096460227D9E7CCF800E0DCE7C8F80070B5
:101FD000DAE700BF4020FF1F9C14FF1F4414FF1FBF
:101FE0004014FF1F10B5FFF73BFD00F049FDFEF761
:101FF000E1FCFEF755FAFFF75DFF16211148124C80
:1020000003F08EFE114B2046196801F0F5FA03210A
:102010000F4803F085FE0F4B2046196801F0ECFADB
:10202000204601F099FA22210B4803F079FE0B4B70
:102030002046196801F0E0FA2046BDE8104001F0A2
:102040008BBA00BFA49700009C08FF1F501AFF1F07
:1020500070970000541AFF1FBC9700004007FF1F35
:1020600070B5FFF769FF11212248234E03F058FE97
:10207000224801F071FA0025002433191F485959EC
:1020800001F0BAFA0C3403211D4803F049FE242C58
:10209000F3D10435194801F05FFA0C2DECD1112170
:1020A000144803F03DFE154801F056FA1221154878
:1020B00003F036FE144B1148196801F09DFA032114
:1020C0000F4803F02DFE114B0C48196801F094FAEB
:1020D0000A4801F041FA29460D4803F021FE0D4B54
:1020E0000648196801F088FA0448BDE8704001F01C
:1020F00033BA00BF8C9B00004020FF1F9C08FF1FCD
:1021000070970000E09700004014FF1F4414FF1F69
:10211000F49700009C14FF1FF0B51E4E1E4D33684F
:102120002A6883B00093009B9B1AB3F5FA7F01D213
:1021300003B0F0BD06211948194C03F0F1FD194810
:1021400001F00AFA04F110070421174803F0E8FD32
:1021500054F8041B134801F04FFA0321134803F00D
:10216000DFFDBC42F0D10F4801F0F6F9FFF73AFF6E
:10217000FFF776FFFEF73EFC0621084803F0D0FD8E
:10218000084801F0E9F933680193019B2B6003B023
:10219000F0BD00BF8820FF1F3420FF1F689700009C
:1021A0008C14FF1F9C08FF1F04980000709700000C
:1021B00010B5284C2368082B44D0072B35D0062BAC
:1021C0003AD0052B15D0042B1BD0032B20D0022B8B
:1021D00025D0012B07D003B110BDFF218720BDE81A
:1021E0001040FFF7BDBCFF21B420FFF7B9FC236806
:1021F000F1E7FF214FF48770FFF7B2FC2368042B4F
:10220000E3D100210846FFF7ABFC2368032BDED1A6
:10221000FF215A20FFF7A4FC2368022BD9D1FF210C
:102220000846FFF79DFC2368D3E7FF210020FFF756
:1022300097FC2368062BC4D1FF212D20FFF790FCCB
:102240002368BEE7FF214FF4A570FFF789FC2368E0
:10225000B3E700BF9C14FF1F144B15481B681549BA
:102260000122022B02600A6013D9042B11D0032B28
:1022700013D0062B11D0052B13D0082B11D00E4BE9
:102280000E4A1B680021182B117002DC0846FFF76C
:1022900067BCFF21B420FFF763BCFF215A20FFF782
:1022A0005FBCFF214FF48770FFF75ABC9C14FF1FDF
:1022B0000814FF1F8014FF1F7C1AFF1F8814FF1FC4
:1022C0002DE9F041FFF7D4FA8748884C01F044F932
:1022D0002921874803F024FD834801F03DF93C2182
:1022E000844803F01DFD804801F036F9262182481C
:1022F00003F016FD7C4801F02FF97B4801F02CF922
:102300000B217E4803F00CFD774801F025F91721D9
:102310007B4803F005FD744801F01EF90C21794853
:1023200003F0FEFC704801F017F90921764803F02C
:10233000F7FC6D4801F010F90A21744803F0F0FC35
:10234000694801F009F90D21714803F0E9FC66487C
:1023500001F002F90A216F4803F0E2FC624801F043
:10236000FBF809216C4803F0DBFC5F4801F0F4F84E
:102370000E216A4803F0D4FC5B4801F0EDF80D2112
:10238000674803F0CDFC584801F0E6F81421654891
:1023900003F0C6FC544801F0DFF82BE0312B00F0CD
:1023A0009280322B00F09780332B00F0B781342BD2
:1023B00000F0BC81352B00F0C181362B00F0CE81BE
:1023C000372B00F0D381382B00F0D881392B00F067
:1023D000DD816C2B00F0BA811421534803F0A0FC7E
:1023E000414801F0B9F8514B00221A7003F06EFC1D
:1023F000002821DD03F02EFC20703B4801F0ACF8F2
:1024000005214B4803F08CFC207803F00DFD0121E1
:10241000484803F085FC344801F09EF82378302BBF
:10242000BCD11F21444803F07BFC2F4801F094F8F5
:1024300003F04CFC0028DDDC404DDFF80C812378F4
:10244000303B3C2B00F2F180DFE813F044016201E5
:102450005C0156015001390133012D01F900F600EC
:10246000EF00EF00EF00EF00EF00EF00EF00EF00F4
:10247000EF00EF00EF00EF00EF00EF00EF00EF00E4
:10248000EF00EF00EF00EF00EF00EF00EF00EF00D4
:10249000EF00EF00EF00EF00EF00EF00EF00EF00C4
:1024A000EF00EF00EF00EF00EF00EF00EF00EF00B4
:1024B000EF00EF00EF00EF00EF00EF00EF00EF00A4
:1024C000EF00EF00800036211D4803F029FC06488C
:1024D00001F042F88AE72A211A4803F021FC024859
:1024E00001F03AF882E700BF9C08FF1FF413FF1FBA
:1024F0000C9800003898000078980000A098000020
:10250000AC980000C4980000D4980000E098000047
:10251000EC980000FC980000089900001499000055
:102520002499000034990000F09A00004814FF1F1D
:102530004C990000189B0000549900004407FF1FAD
:1025400074990000AC9900002814FF1F12219348D1
:1025500003F0E6FB212001F03FFB0146904801F02B
:102560004BF803218F4803F0DBFB222001F034FB02
:1025700001468B4801F040F8894800F0EDFF122138
:10258000894803F0CDFB232001F026FB0146844857
:1025900001F032F80321834803F0C2FB242001F04C
:1025A0001BFB01467E4801F027F87D4800F0D4FF70
:1025B00012217E4803F0B4FB272001F00DFB0146F9
:1025C000774801F019F80321764803F0A9FB0E20A3
:1025D00001F002FB0146724801F00EF8704800F06D
:1025E000BBFF1221724803F09BFB0F2001F0F4FAAD
:1025F00001466B4801F000F803216A4803F090FBA4
:10260000102001F0E9FA0146654800F0F5FF1B21B2
:10261000684803F085FB0121674803F081FB6048AF
:1026200000F09AFF642001F063FF03F04FFB0028E5
:102630003FF405AFBDE8F081FEF762FEF5E71C2030
:1026400001F042FF5D4FC8F80000FDF729FFFEF7DB
:10265000B1F9396852485A4E00F0CEFF0321514873
:1026600003F05EFB3868FEF73FF801464C4800F087
:10267000C3FF0521534803F053FB3168484800F07D
:10268000BBFF0321474803F04BFB3068FEF72CF8F3
:102690000146434800F0B0FF414800F05DFF642070
:1026A00001F026FFC1E7FFF737FD0A2001F020FF08
:1026B000BBE7FDF7DBFE286801F01AFFB5E7FEF780
:1026C00079F9052001F014FF9FED3F0A0020FFF784
:1026D000C1FAAAE709213D4803F022FB304800F087
:1026E0003BFF3B4B00221A70BDE8F081FFF73CF93D
:1026F000286801F0FDFE98E7FEF77CF9286801F0F4
:10270000F7FE92E700F07CF8286801F0F1FE8CE714
:10271000FFF7CEF9286801F0EBFE86E722212D486D
:1027200003F0FEFA1E4800F017FF5FE631212A4849
:1027300003F0F6FA1A4800F00FFF57E62821274861
:1027400003F0EEFA164800F007FF4FE60E2124488A
:1027500003F0E6FA124800F0FFFE47E61A2121488E
:1027600003F0DEFA0E4800F0F7FE3FE656211E4861
:1027700003F0D6FA0A4800F0EFFE37E606211B48C0
:1027800003F0CEFA064800F0E7FE2FE605211848D0
:1027900003F0C6FA024800F0DFFE27E61C9B0000AB
:1027A0009C08FF1F70970000309B0000449B0000B6
:1027B000589B00006C9B0000189B00001414FF1F26
:1027C0003014FF1F149B000000000000089B000055
:1027D0004814FF1FD8990000FC990000309A0000AF
:1027E000E09A00005C9A0000789A0000D09A0000FD
:1027F000D89A0000014800F0B7B900BF2008FF1FB9
:102800002DE9F84F494CDFF84481DFF82491274641
:10281000002606F1700A5FFA8AFA4FEA4A0B012590
:102820005FFA8BFB0021414884F83BB084F85E508E
:1028300084F85D5000F084F951213C4800F080F9A3
:1028400029463A4800F0E8FA462001F051FE0221FC
:10285000364884F83BB084F85E5084F85D5000F050
:102860006FF92946314800F0D7FA2B46022251462B
:102870002E4800F05BFB94F8390094F83830C21A07
:10288000AA421BDD5919C9B2984207EB030207EBB4
:10289000010E274D03F1020341D9127E87F838104B
:1028A00012028842C9F800203DD99EF8181087F816
:1028B000383041EA020348F826302B600136042EF6
:1028C000A7D198E881001B491B4B1C4C1C4ED8F823
:1028D0000850D8F80C20086015211A4825601A60A5
:1028E000376003F01DFA1848184C00F035FE04F16B
:1028F000100554F8041B144800F07EFE124800F046
:102900002BFEFA2001F0F4FDA542F2D115210D486D
:1029100003F006FA0C48BDE8F84F00F01DBE044D68
:102920004FF0FF33C7E74FF0FF33C4E72008FF1F26
:102930001C14FF1F0414FF1F481AFF1F7C1AFF1FDF
:102940007414FF1F889B00009C08FF1F8C14FF1F3E
:1029500070B50D4D70240126630000210A4885F8EA
:102960003B3085F85E6085F85D60013400F0E8F882
:102970005121054800F0E4F8E4B20121024800F0DA
:102980004BFA742CE8D170BD2008FF1F2DE9F843E5
:10299000224DDFF88C80DFF88C902E4670240127C2
:1029A000630002211D4885F83B3085F85E7085F88C
:1029B0005D7000F0C5F80121184800F02DFA0123E0
:1029C00002222146154800F0B1FA95F8383095F802
:1029D0003900591CC9B2834206EB030206EB010E13
:1029E00003F1020316D2127E86F8381088424FEAAD
:1029F00002220FD99EF8181086F8383041EA0203F7
:102A00000134E4B2742CC9F8003048F8043BC7D153
:102A1000BDE8F8834FF0FF33F2E700BF2008FF1F47
:102A20008C14FF1F1C14FF1F10B5114C237882B0AB
:102A300093B1104A104B12680092009A1B680F491C
:102A4000D31A462B0A6001DC02B010BDFFF79EFFCF
:102A50000023237002B010BDFFF77AFF054A064B32
:102A600012680192019A1A600123237002B010BD0E
:102A7000F513FF1F8820FF1F4C14FF1F5014FF1F6A
:102A8000F8B5FFF7D1FF074B074E084C0849094A34
:102A90001F685D689868DB683760256008601360B0
:102AA000F8BD00BF8C14FF1F0414FF1F7414FF1F18
:102AB0007C1AFF1F481AFF1F0020704790F839202A
:102AC00090F83800101A704790F8383090F8392094
:102AD0009A4205D95A1C034480F83820187E704762
:102AE0004FF0FF30704700BF90F8383090F8392031
:102AF0009A4286BF1B18187E4FF0FF30704700BF08
:102B0000704700BF38B50546B0F85E0090B195F843
:102B10005D301446C3F1210294420CD805F13B000C
:102B20001844224601F01AF995F85D30234485F8DF
:102B30005D30204638BD012014462871EEE700BF05
:102B4000B0F85E306BB190F85D30202B07D8C2181A
:102B5000013380F85D30012082F83B10704701237B
:102B600003710020704700BF0023426980F83830AD
:102B700080F8393080F85C3080F85D3080F85E3065
:102B800080F85F3006CA30B40D68046943662A4392
:102B900083660A60A370426990F861301649146830
:102BA00013441D7A5B7B01EBC5051B026D6803F4C2
:102BB000E06343F064032B6090F8623013449D7C23
:102BC000DB7D01EBC5011B02496803F4E06343F0C0
:102BD00064030B6021685368194205D003692C22F5
:102BE0005A70036904229A71036920225A71036999
:102BF00080229A7030BC7047949C000038B50269FE
:102C0000D478E4B2E106054624D51023D3706306D8
:102C10001FD504F0040404F0FF03002C5AD04249ED
:102C20006A6E00230B7085F85D30002A66D09047ED
:102C300095F85D30002B61D02B69D0229A702B69FA
:102C400095F83B201A712B69012285F85C2002223D
:102C5000DA7038BD04F0400303F0FF00002BD8D138
:102C60009379DBB203F0600160294ED0937803F0D2
:102C7000100303F0FF01B3B114F0010437D195F84C
:102C80005C3095F85D1099424BD9591C2B4485F85E
:102C90005C1093F83B3013712B69D0229A702B692A
:102CA0000222DA70D5E785F86010937943F02003AB
:102CB00093712B6995F839101A791F29D2B2C6D8A9
:102CC000194800780028C2D06818013185F83910F9
:102CD0000276BCE72A6985F83930C02393702B69E6
:102CE000114A1979012111700222DA70B1E7C0236B
:102CF00093702B691A790222DA70AAE70122002365
:102D000085F85D2085F83B3096E703F0DF0393718B
:102D1000AB6E23B185F8380095F8390098472A69D9
:102D2000A4E71471B8E700BF6420FF1F2DE9F04746
:102D3000374FDFF8E0903B68026982B006460093A7
:102D4000DDF800800021C825D3789B065BD53B6861
:102D50000193019BC8EB03030F2BF5D949B1102B4D
:102D6000F2D000209070336980229A7002B0BDE8E2
:102D7000F087726996F8613013440521187A01F0E2
:102D8000B1FB726996F861301344012193F812A0E7
:102D9000504601F0A7FB09240021504601F08EFBAC
:102DA0002B46013BFDD10121504601F087FB2B460C
:102DB000013BFDD1013CEFD1706996F861100144EF
:102DC0004FF4C8720C7A4B7B09EBC4011B024968B3
:102DD00003F4E06343F064030B6096F8623003444D
:102DE000997CDB7D09EBC1011B02496803F4E063B8
:102DF00043F064030B60013AFDD13269D3789B063E
:102E00004FF00101A3D4012002B0BDE8F08700BF5C
:102E10008820FF1F949C0000F0B503691222DA702D
:102E20000269937803F0200385B004460D46002B19
:102E30005ED0B42393703C4922690B680093009ED6
:102E400005E00B680193019B9B1B042B42D8D378B0
:102E500003F0200303F0FF00002BF2D094F85D3064
:102E6000002B31D04FF0000E4FF0020C04EB0E039C
:102E700093F83B3013710B680393039F206907E0BD
:102E80009B060DD50B680293029BDB1B052B28D8F4
:102E9000C378DBB203F0020202F0FF06002AEFD093
:102EA00080F803C02669F378DBB2DF0632462DD402
:102EB0009F062BD5DB0731D40EF1010E94F85D305F
:102EC0005FFA8EFE7345D1D800201DBB002384F825
:102ED0005E3004E09070236980229A70042005B06F
:102EE000F0BD86702369802204209A7005B0F0BD81
:102EF00003F0FF06FFF71AFF10B9042005B0F0BD7C
:102F0000236984F85F60B0229A7094E78023B370DD
:102F10000420DAE726698023B370D7E7BEF1000FFB
:102F20000CBF02200320F6E78820FF1F2DE9F041A7
:102F300006690025122780F8385080F83950F7705C
:102F4000D0F810C09CF802E00EF0200E88B00446C5
:102F5000884615461E46BEF1000F49D0B4238CF8B2
:102F60000230784B21691A680092DDF800E006E033
:102F70001A6801920198CEEB0000042830D8C87876
:102F800000F0200000F0FF070028F1D04FEA4802CF
:102F900042F00102D2B20A711A680292DDF808E02A
:102FA000206906E01A6803920399CEEB0101052916
:102FB0002AD8C17801F0020101F0FF070029F1D001
:102FC0004FF0020C80F803C02269D17811F011078C
:102FD00022D12DBB002E0CBFA0238023937003E0D1
:102FE0008F70236980229A70384608B0BDE8F0815E
:102FF0000EF0FF07FFF79AFE0028F5D0236984F84A
:103000005F70B0229A70ACE78770236980223846DF
:103010009A7008B0BDE8F081802393700027E3E741
:10302000012D75D0A021917021690A79BE466746AD
:103030004FF0A80C1A680492049805E01A680592EB
:10304000059A121A052A4AD8CA7802F0020202F03A
:10305000FF08002AF2D0CF702169CA78D2B212F0EC
:10306000100F08465AD1920658D5013DEDB2012DF8
:1030700049D0BEF11F0F3BD90A79012DDAD11A6868
:103080000692069D05E01A680792079A521B052AC8
:1030900046D8C27802F0020202F0FF01002AF2D004
:1030A0000223C3702269D378DBB2D9063AD49B06D7
:1030B00034D5B023BEF11F0F93703FD8226904EBC3
:1030C0000E0312791A760EF1010E5FFA8EFE16B11A
:1030D000236980229A7084F839E0774684E781F882
:1030E0000280236980229A70774684F839E07BE772
:1030F00004EB0E0291F8048082F818800EF1010EA4
:103100005FFA8EFEB9E781F802C021690846B0E790
:10311000A82191702069BE460279B0E7774663E73F
:103120008170DEE71021C823D170013BFDD12269F7
:10313000937803F0F7037746937055E723691B797B
:10314000C5E700BF8820FF1F0148FFF757BD00BF3C
:10315000B407FF1F0148FFF751BD00BF2008FF1F44
:103160000148FFF74BBD00BF4807FF1F38B52822B5
:103170000C4605460846002105F022FD0B220949B0
:10318000204606F04BF80022E272A868064920614A
:10319000002301250320E560626260612162A36172
:1031A000E36138BD249C00000AD7233C10B4034CD3
:1031B0000460816042715DF8044B7047349C0000EC
:1031C00070B50C4C437916465B000125204684F807
:1031D0003B3084F85E5084F85D50FFF7B1FC314617
:1031E0002046FFF7ADFC29462046FFF715FE28468E
:1031F00070BD00BFB407FF1FF8B500252A460F4673
:10320000067B05733D210446FFF7DAFF1E2001F01F
:103210006FF9192001F06CF92A4620460721FFF7C3
:10322000CFFFAFB93A463F212046FFF7C9FF0A203A
:1032300001F05EF93246267320463D21FFF7C0FFBC
:103240001E2001F055F91420BDE8F84001F050B9F6
:1032500080223F212046FFF7B3FFE8E770B5134C0B
:10326000437901255B000646204684F83B3084F80C
:103270005E5084F85D50FFF763FC29462046FFF757
:10328000CBFD2B462A4671792046FFF74FFE94F876
:10329000383094F839209A4205D9E2182B4484F842
:1032A0003830107E70BDFF2070BD00BFB407FF1F17
:1032B00038B5044632480D46FFF756FC204600213B
:1032C000FFF7CCFFA0280BD04FF47A7001F010F973
:1032D00000212046FFF7C2FFA02801D0002038BD02
:1032E000002222733D212046FFF76AFF1E2001F0D5
:1032F000FFF820223F212046FFF762FF01E001F0A6
:10330000F7F800212046FFF7A9FFA0284FF00A0098
:10331000F5D1322001F0ECF800223E212046FFF7E3
:103320004FFF0A2001F0E4F8002207212046FFF7B2
:1033300047FF242241212046FFF742FF0A2001F0E7
:10334000D7F8052242212046FFF73AFF0A2001F074
:10335000CFF800223F212046FFF732FF0A2001F07C
:10336000C7F82A463D2125732046FFF729FF1E2076
:1033700001F0BEF8142001F0BBF8012038BD00BFF9
:10338000B407FF1F2DE9F0411B4D90F805E0012720
:103390004FEA4E0E804628461E46144685F83BE00E
:1033A00085F85E7085F85D70FFF7CAFB39462846E0
:1033B000FFF732FD3B46324698F805102846FFF7E6
:1033C000B5FDAEB1701E54FA80F0621E2C4695F821
:1033D000383095F83910E618994203F101038ABF95
:1033E00084F83830FF23337E02F8013F8242EED169
:1033F0000120BDE8F08100BFB407FF1FF0B504460F
:1034000083B0002516460846256031466560A560F4
:10341000E560256165616A4606230095ADF80450B4
:10342000FFF7B0FF9DF803709DF805509DF801006F
:103430009DF800109DF802209DF8043041EA00201C
:1034400042EA072243EA0523083E00B217B21DB242
:10345000262E2FD8DFE806F0312E2E2E2E2E142EFB
:103460002E2E2E2E142E2E2E2E2E142E2E2E2E2EB0
:103470002E2E2E2E2E2E2E2E312E2E2E2E2E310094
:1034800004F0A8FC00221B4B04F00AFDC4E9000173
:10349000384604F09FFC0022164B04F001FDC4E9FD
:1034A0000201284604F096FC0022124B04F0F8FCBE
:1034B000C4E90401204603B0F0BD04F08BFC0022F7
:1034C0000D4B04F017FEC4E90001384604F082FCFD
:1034D0000022094B04F00EFEC4E90201284604F064
:1034E00079FC0022044B04F005FEC4E904012046E7
:1034F00003B0F0BD0000B03F0000594070B5242675
:1035000088B00C46054632460846002105F058FBB7
:10351000104BA9681B680193019B23610322616022
:10352000A26029461A2202A82660FFF767FFDDE99C
:10353000020104F077FF6061DDE9040104F072FF2D
:10354000A061DDE9060104F06DFFE061012008B033
:1035500070BD00BF8820FF1F00B5064A03681288AF
:103560005B6883B001A9ADF804200222984703B03C
:103570005DF804FB489C0000F0B507468BB0002ABC
:1035800033D0012A08BF0A2251B3212400E0F4B24B
:10359000B1FBF2F502FB1511C8B2092900F13001A7
:1035A00098BFC8B20AA988BF3730214488BFC0B2CB
:1035B00001F8240C661E2946002DE8D133B1013CE8
:1035C000E4B20AAB23442D2203F8242C3B6801AA61
:1035D00011195B683846C4F1220298470BB0F0BD60
:1035E00030228DF825202124E8E70368C9B21B6842
:1035F00098470BB0F0BD00BF0029BABF49422D2348
:1036000000230A22FFF7B8BF10B5044602F040FEBF
:10361000204610BD38B5214C23685BB1204A1268A2
:10362000013B012182F880105A1D08BF6FF0020390
:10363000236038BD1A4B1B4D1A682B68012111708D
:1036400093B1194AD2ED007AF5EEC07AF1EE10FA94
:1036500006D99FED167AF4EEC77AF1EE10FA0ADD7C
:10366000236000232B6038BD114802F011FE114B7E
:10367000FF221A7038BDDFED106ABEEE007AA7EEA9
:10368000A67AFCEEC77A17EE902A232AE8D90B49CE
:10369000074802F0B3FD2B68E2E700BF7820FF1F68
:1036A0007020FF1F7420FF1F7C20FF1F8988884C1B
:1036B0006820FF1F8C08FF1F0000704215360000B5
:1036C0003F284BD8F8B5002A41D03A4B02FB01F213
:1036D000A3FB02239B095B00013300293BD007EECB
:1036E000901ADFED356AF8EE677A86EEA77A334AEC
:1036F00002EBC0014D6872B631490C7884422ED07D
:103700003F2C304C02D826680127377052F8302001
:103710002D4F08702D4E3B6002F58070B5EEC07ADB
:1037200001212060F1EE10FA4FF4A27082F800112E
:1037300086ED007A82F88012286006D9DFED247ABF
:10374000B4EEE77AF1EE10FA19DD62B6F8BD6FF06B
:1037500002030029C3D19FED187AC8E770471B4ABE
:10376000D2ED007AF4EE477AF1EE10FA18D116494C
:103770000A6802F00102013A13440B60E5E7DFED4D
:10378000156AFEEE007AE7EE267AFCEEE77A17EE8F
:10379000902A232AD9D91049104802F02FFDD4E7E6
:1037A00009480F4C016882ED007A01F001010160C7
:1037B0002360CAE7D34D62100024F448949C0000B3
:1037C0008C08FF1F7020FF1F7820FF1F7C20FF1F29
:1037D0008988884C00007042153600006820FF1F61
:1037E0007420FF1F3F2807D810B572B6084C237805
:1037F000834202D062B610BD7047064802F048FD11
:10380000054B1A680121FF2311702370F2E700BFF6
:103810008C08FF1F6820FF1F7020FF1F30B4054B6E
:10382000054A0649802400251C711D60184630BCDD
:1038300002F044BF6820FF1FF806FF1F0936000092
:1038400010B50446006804F081FE204610BD00BF9C
:1038500038B543688B4201D3012038BD0D4604467C
:103860000131006805F0FEF90028F6D0A36884E86D
:103870002100002BF0D10370EEE700BFF8B504463D
:10388000154632B9036803B11A700023A3602046BD
:10389000F8BD0E461146FFF7DBFF074648B9206822
:1038A00010B104F053FE276000236360A36020463C
:1038B000F8BDA5603146206805F0DEFBE7E700BFF4
:1038C00038B500230446036043608360037341B14D
:1038D00008460D4605F034FC294602462046FFF70F
:1038E000CDFF204638BD00BF38B5054608460C461A
:1038F00005F026FC214602462846BDE83840FFF781
:10390000BDBF00BF10B5044619B1FFF7EDFF20465B
:1039100010BDA160204610BD2DE9F84303680F4695
:10392000BB420446816815460AD85A18974207D206
:10393000C3EB07094FF0010835B92046BDE8F8830D
:103940004FF00008002DF8D04E1931462046FFF701
:103950007FFF0028F1D0B8F1000F0ED02368A068D7
:103960002A4603EB0901184400F0F8F92368002205
:103970009A55A6602046BDE8F8832068A3683946BA
:10398000184405F079FBF4E710B582B000238DF8F8
:103990000410012201A904468DF80530FFF7BCFF91
:1039A000204602B010BD00BF006808B104F08ABD17
:1039B000704700BF374A384913681B06FCD40B68B0
:1039C00013F08003F8D172B634490A78002A5FD028
:1039D000334A3448F0B4344C176806682568D46814
:1039E0000C303E44143200681268304F35442C4489
:1039F00020440244C2F34E022D4E2E482E4D2F4C31
:103A000042F400423A60376806682D682C4A246800
:103A10000C303E44006812682A4F35442C44204440
:103A20000244C2F34E02284E2848294D294C42F444
:103A300000423A60376806682D68274A24680C30CF
:103A40003E4400681268254F35442C44204402440B
:103A5000C2F34E02224E2348234D244C42F400422E
:103A60003A60376806682D68214A24680C303E4465
:103A70000068126835442C4420440244C2F34E02CC
:103A80001C4842F4004202600B7062B6F0BC704702
:103A900062B6704724B0034024B00B408120FF1F62
:103AA00038B003403CB0034040B003402CB003406A
:103AB00058B003405CB0034060B0034064B00340C2
:103AC0006CB0034030B0034038B00B403CB00B400A
:103AD00040B00B4044B00B404CB00B402CB00B40FE
:103AE00058B00B405CB00B4060B00B4064B00B4072
:103AF0006CB00B4030B00B4030B42948294A2A4BF7
:103B00002A4D6024E121047011701B78284C082B89
:103B100030D00A2B2748284937D00C2B0CBF352230
:103B20005D2212232A60236002600B60234B24492C
:103B30001B78244ABBB101230B601360224B23493D
:103B40001B78234A012B26D9042B0FD9082B1ED909
:103B5000102B94BF862387230B6013601D4B01221B
:103B60001A7030BC70470B601360E7E784230B606A
:103B70001360F3E700F58E200F490830212213234C
:103B80002A60236002600B60D0E73922F7E78523C3
:103B90000B601360E2E780230B601360DEE700BF79
:103BA00000400740014007408D08FF1F08B0034058
:103BB0000CB0034008B00B400CB00B408420FF1F3A
:103BC00020B0034020B00B408E08FF1F24B00340FC
:103BD00024B00B408120FF1F47282FD8334B2DE9FD
:103BE000F0411E5CFF2E2BD0314B1B78002B2AD1CD
:103BF00032062CD472B62F4D2F4C2F46012326604F
:103C00002B7062B672B623681B060CD43B781BB9C6
:103C1000F4E72B78002BF1D062B602F085F972B68A
:103C200023681806F5D5254B1B6800222A7062B65A
:103C3000234A107843FA00F0BDE8F0810020704775
:103C40000020BDE8F081FFF7B5FE3206D2D572B68E
:103C50001C4DDFF87C801C4C06F04007FFB206F0DC
:103C60003F06D8F80030DFB123F01003C8F8003069
:103C700001232660134A2B7062B672B623681906B8
:103C80000CD413781BB9ECE72B78002BE9D062B683
:103C900002F04AF972B623681B06F5D50B4BC3E751
:103CA00043F01003C8F80030E2E700BF4C9C00006E
:103CB0008120FF1F8320FF1F00B0034010B003408E
:103CC0008020FF1F8220FF1F00B00B4010B00B4070
:103CD0000CB00B400A4A0B49136843F4805313603D
:103CE0000B7843B9084BC0221A70084B80F30C00C4
:103CF00000B218807047044B80221A70F5E700BFAD
:103D00002C8004408420FF1F21C00C4000C00C40C8
:103D10000A4A0B49136843F4005313600B7843B904
:103D2000084BC0221A70084B80F30C0000B21880B8
:103D30007047044B80221A70F5E700BF2C800440C6
:103D40008420FF1F21D00C4000D00C4008B5FDF7A7
:103D500093FBFDF797FC02F0E7F8FAE7844641EAA7
:103D6000000313F003036DD1403A41D351F8043BF3
:103D700040F8043B51F8043B40F8043B51F8043B45
:103D800040F8043B51F8043B40F8043B51F8043B35
:103D900040F8043B51F8043B40F8043B51F8043B25
:103DA00040F8043B51F8043B40F8043B51F8043B15
:103DB00040F8043B51F8043B40F8043B51F8043B05
:103DC00040F8043B51F8043B40F8043B51F8043BF5
:103DD00040F8043B51F8043B40F8043B51F8043BE5
:103DE00040F8043B51F8043B40F8043B403ABDD254
:103DF000303211D351F8043B40F8043B51F8043BF6
:103E000040F8043B51F8043B40F8043B51F8043BB4
:103E100040F8043B103AEDD20C3205D351F8043B84
:103E200040F8043B043AF9D2043208D0D2071CBF50
:103E300011F8013B00F8013B01D30B880380604679
:103E4000704700BF082A13D38B078DD010F00303EF
:103E50008AD0C3F10403D21ADB071CBF11F8013B5F
:103E600000F8013B80D331F8023B20F8023B7BE7AE
:103E7000043AD9D3013A11F8013B00F8013BF9D2D9
:103E80000B7803704B7843708B7883706046704773
:103E900008B5104C08E0236859050DD423681A05AD
:103EA0000FD42368DB0411D423685803F3D501F041
:103EB00093F823685905F1D502F044FA23681A05EE
:103EC000EFD500F0AFFC2368DB04EDD500F01EFE5B
:103ED000EAE700BF3480044008B5FFF7D9FF00BF10
:103EE000014B10221A80704700200540704700BF28
:103EF000094908B50B6830B16A461844A2F500526A
:103F0000904202D20860184608BD04F0E5FA0C237E
:103F100003604FF0FF3008BD9008FF1FEFF31380E0
:103F200070B9EFF310836BB9EFF305825AB94FF410
:103F30008070EFF311832BB1984228BF1846704769
:103F40004FF0FF3070470F2A01D81846F1E7014BB8
:103F5000D05CEEE7F0E300E004F0F8BAF0B44D1EF8
:103F60002E46002400E00134B0FBF2F302FB130004
:103F7000092800F130078ABF3730F8B2C0B206F81E
:103F8000010F1846002BEED10A1953704CB110786E
:103F900015F8016F28700133E01A834202F80169B5
:103FA000F5DB0846F0BC704710B4114B53F83020D5
:103FB00092F8804234B1012379B182F880305DF803
:103FC000044B704703EBC0035B681A6851B922F0D9
:103FD00002021A605DF8044B704782F800315DF808
:103FE000044B704742F003021A605DF8044B7047BF
:103FF000949C00001C4A02EBC00301295B6811D0AD
:1040000004291BD052F83000002280F8802229B108
:10401000022920D0032922D01A6070474FF4807201
:104020001A60704752F830004FF4A27280F8801284
:104030001A601A6822F020021A60704752F8301095
:104040004FF4A272012081F880021A601A6842F0CF
:1040500020021A60704740F203121A6070474FF452
:1040600081721A60704700BF949C000030B4054B09
:10407000054D064C002210211A602A60206019604C
:1040800030BC704714D0034004D0034000D003403C
:1040900038B5A0F14203012B04461FD9002975DD74
:1040A000904B1B78012505FA03F28A4202D83F287B
:1040B00027D938BDC21E012A2BD9A0F11D02012A21
:1040C00073D90E2856D9A4F12302032A57D9864A58
:1040D000126802FB011222FA03F320E0814B1B78E5
:1040E0000B2B0AD90C2B1CBF0C3B1941422C084648
:1040F00057D0BDE83840FFF70BBEC3F10C03994021
:10410000F4E72946FFF750FF2946BDE83840FFF79E
:1041100071BF764A126802FB011222FA03F3A21E53
:10412000242A00F2D580DFE812F0CC00C500BE00E2
:10413000B700B000A900A2009B009400D300D300F8
:10414000D3008D00D300D300D300D300D30086006A
:104150007F0078007100D300D300D300D300D300D8
:104160006A006300D300D300D300D3005C00550085
:104170004E00470044F28412C240D207A3D55C4AE5
:10418000126802FB011222FA03F3C8E73F2890D815
:104190000021FFF709FF20460121BDE83840FFF765
:1041A00029BFBDE83840FFF795BD524A126802FBAF
:1041B000011222FA03F3B2E74F49504A0B604FF461
:1041C0005173136038BD4E494E4A0B604FF4517322
:1041D000136038BD4C494D4A0B604FF45173136066
:1041E00038BD4B494B4A0B604FF45173136038BDD7
:1041F00049494A4A0B604FF45173136038BD48492E
:10420000484A0B604FF45173136038BD4649474A22
:104210000B6040F24443136038BD4549454A0B608A
:1042200040F24443136038BD4349444A0B6040F2B6
:104230004443136038BD4249424A0B6040F2444354
:10424000136038BD4049414A0B6040F2444313605B
:1042500038BD3F493F4A0B6040F24443136038BDCC
:104260003D493E4A0B6040F24443136038BD3C492F
:104270003C4A0B6040F24443136038BD3A493B4A24
:104280000B6040F24443136038BD3949394A0B6032
:1042900040F24443136038BD3749384A0B6040F25E
:1042A0004443136038BD3649364A0B604FF45173AE
:1042B000136038BD3449354A0B604FF451731360B5
:1042C00038BD3349334A0B6040F24443136038BD74
:1042D0003F2C3FF6EEAE7F29D4BF002101212046BE
:1042E00057E700BF9408FF1F088003400890034071
:1042F00008900B4008800B4048900B402CB00440C5
:1043000040900B4028B0044038900B4024B004404B
:1043100030900B4020B0044018800B404CA004406B
:1043200010800B4048A004401880034008B00440AF
:104330001080034004B004404080034018C0044093
:104340003880034014C0044018900B4004C004405F
:104350002880034010B00440208003400CB004408B
:1043600028900B400CC0044020900B4008C0044033
:104370003080034010C00440488003401CC004400B
:104380001890034034900440109003403090044053
:1043900010900B4000C00440DFED387ADFED386A42
:1043A000384AB4EEE70AF1EE10FA47F6122370B479
:1043B00046BF1A4602240124002322FA03F107EE25
:1043C000901AF8EEE77A27EEA67AB4EEC70AF1EE75
:1043D00010FA07DA0133072BEFD1D20907EE902A42
:1043E000F8EEE77A87EE807A4FF6FF71C21EF6EE9E
:1043F000007A77EE677AFCEEE77A17EE905A8D42F4
:1044000028BF0D46012A29462AD9172815D9A0F117
:104410001D02012A2ED90E2826D9A0F12302032A33
:104420001CD8194A194E1A4D43EAC40300201060E3
:1044300030602960136070BC7047164AC24002F0B9
:10444000010282F00105002AE1D0134A134E1448FC
:10445000156043EAC40335600160136070BC7047A7
:10446000104A114E114DDFE744F28412C240D207C8
:10447000D7D4D2E70E4A0F4E0F4DD5E7C0E1E44046
:10448000000080370087930300900B4004900B409E
:1044900008900B406006F000008003400480034059
:1044A00008800340009003400490034008900340BC
:1044B00000800B4004800B4008800B403F2801D84F
:1044C000FFF772BD704700BF3F2806D8044B53F872
:1044D000303093F80002C0B270470020704700BF30
:1044E000949C00003F2801D8FFF784BD704700BFAF
:1044F0002DE9F843054672B6204F214B214A1B682F
:104500003C68126862B6520102D5322B88BF013472
:1045100095B3C3F5EA331C4EDFF86490DFF864808E
:10452000BF334FF47A72A6FB031302FB04F404EBCF
:10453000931472B6D9F800103A68D8F800E062B661
:10454000C1F5EA33BF33A6FB03031EF0806FC4EB53
:1045500093134FF47A7002D0322988BF013200FBE6
:104560000233B3F57A7F04D3013D05D004F57A74A4
:10457000DFE701F0D9FCDCE7BDE8F8838820FF1F06
:1045800018E000E004ED00E089888888F8B53E4B2B
:104590003E49DFF818C13E4E3E4ADFF814E13E4D79
:1045A0003E4C3F4F4FF0006018604FF08050186055
:1045B0004FF0005018604FF0804018604FF00040FE
:1045C00018600020086028234EF6FF71CCF8001018
:1045D000CEF8003033600EF5012E13602B6023609F
:1045E00005F500253B6004F50024B36207F50027BC
:1045F000936206F5012602F501220EF1100E05F672
:10460000E87504F6E87407F57F67103220362B60F2
:104610002360CEF800303B6013603360214EBB61F5
:10462000936109223260A7F5002706F58056203FE6
:10463000083638603160BB60F36047F8042C06F53B
:10464000FD2607F5FE2706F2FC7604373060396058
:10465000B360FB6046F8042C0836C7F8FC0F06F67A
:10466000FC76114831602B6023600260FFF744FA4A
:104670001920FFF73DFF01F017FA40F21310BDE8D3
:10468000F840FFF735BF00BF04E100E004800340BD
:10469000148003401C800340248003402C8003408E
:1046A000348003400080034000900B4008800340AA
:1046B0000C8003402A4A2B491368F0B443F400638A
:1046C00013600A78284F294E294D2A4C2A49002385
:1046D000092A3B7033702B7023700B703AD03B2A41
:1046E0001ED0264B1B780A2B22D03A2B2DD01F2808
:1046F00024D8002002460126214B224D1A70224C5C
:104700005E7004219872022288273C26402099700E
:10471000DA7459751F74DE7028702260F0BC70471F
:104720001A4B40F213321A60144B1B780A2BDCD15F
:10473000174B4FF451721F281A60DAD9C0F3443274
:10474000C0F3471600F01F00D6E7124B4FF451722A
:104750001A60CCE7104B40F213321A60C1E700BF79
:10476000348004409508FF1FFC20FF1F9120FF1F8D
:104770000421FF1FFD20FF1F9020FF1F9608FF1F31
:1047800000B0064021E400E004E100E004D0044071
:1047900010B0044000D004400CB00440054A064B61
:1047A00010781B78C0B2DBB2984238BF4030C01AD4
:1047B000704700BFFC20FF1F9120FF1F30B4154B36
:1047C000154C1A782378D2B2DBB29A421ED001334C
:1047D0003F2B0ED91149124B087819680023C0B23B
:1047E000237021B1D31A1A2B01DC00230B7030BCCB
:1047F00070470A480A49C05C0968DDB2C0B225703A
:104800000029F4D09A4238BF4032EBE74FF0FF3036
:10481000EDE700BFFC20FF1F9120FF1FBC20FF1F02
:104820008C20FF1FF0B4384B1A7912F0300F2CD0C7
:1048300072B6997D01F0FF0200293DD062B6334F78
:10484000334938780D78334E1C46C0B2EDB2431C64
:10485000402BE17928BF0023AB4202F1FF32C9B2FD
:104860001CBFF154184612F0FF02F0D12A4B1B680E
:10487000C2B23A704BB1A84236BFC5F14005401BE9
:1048800040192728C4BF01221A701F49CA78D2B222
:10489000150616D452060DD51B4B1B795B0609D5A0
:1048A0001E4B1F491B6800220A7003B11A70164B79
:1048B0003C22DA70F0BC70474022D9795A7462B653
:1048C000E3E70B791C06E5D5164B174E1C783378B9
:1048D000E4B2DBB29C420ED0144D01E0A3420AD0F8
:1048E0000133282B28BF00230879E85CC0B2C871C7
:1048F000087D0728F2D9DBB2034933700B7918061B
:1049000044BF7C23CB70C5E700B00640FC20FF1FEE
:104910009120FF1FBC20FF1F8C20FF1F0021FF1FC5
:104920009020FF1F0421FF1FFD20FF1F9420FF1F69
:104930002DE9F84F214B1B6807460BB101221A7075
:10494000DFF888901E4D99F80040DFF884801D4EF6
:104950000134272C8ABF4FF0000A5FFA84FA5446CC
:10496000AB462B78A34216D1FFF7D8FA40281FDCBC
:1049700033791B06F5D59BF800300133272B86BF12
:1049800000221346DAB218F80330DBB2F3712A7052
:104990002B78A342E8D00C490A4BFFB208F8047008
:1049A0000120AC22087089F800A0DA70BDE8F88F09
:1049B000FF28D6DD01F0B8FAD3E700BF7C21FF1F46
:1049C0007921FF1F00C006407821FF1F8021FF1FB3
:1049D0001021FF1F1B4BDFF890C01A681A49F0B571
:1049E00042F48052194D1A60DFF880E0184F194EDA
:1049F000194C00238CF800304FF451722B701F2893
:104A000040F213358EF800303B70337025600A6039
:104A100011D819460124114A114D117011485470D2
:104A200000212C2740269372082491701174D770AE
:104A30002E700460F0BDC0F34431C0F3471400F0A1
:104A40001F03E8E7348004400CC004400D21FF1F21
:104A50007921FF1F7821FF1F08C0044000C00640D5
:104A600023E400E004E100E00C21FF1F8021FF1F90
:104A7000034B1B68DB0401D5FFF75ABF704700BF2B
:104A800034800440054A064B10781B78C0B2DBB274
:104A9000984238BF4030C01A704700BF0C21FF1F3A
:104AA0000D21FF1F30B4154B154C1A782378D2B264
:104AB000DBB29A421ED001333F2B0ED91149124B63
:104AC000087819680023C0B2237021B1D31A1A2BB9
:104AD00001DC00230B7030BC70470A480A49C05CF7
:104AE0000968DDB2C0B225700029F4D09A4238BFFF
:104AF0004032EBE74FF0FF30EDE700BF0C21FF1F26
:104B00000D21FF1F3821FF1F0821FF1F30B42B4B41
:104B10001A7994061FD52A48DA790378294901338E
:104B20003F2B0978C8BF00238B42D2B203D0264C5A
:104B3000D9B2E2540170254A116861B1244A127851
:104B4000D2B2934236BFC2F140029B1A9B18272B68
:104B5000C4BF01230B70194AD378DBB2180611D4F5
:104B60005A060DD5154B1B795B0609D5194B1A4909
:104B70001B6800220A7003B11A70104B2C22DA70E5
:104B800030BC704711790906EAD5144910480C78F1
:104B90000178C9B28C420DD04A1C272A84BF00215B
:104BA0000A460F4D054C98BFD1B2AA5CD2B2E27151
:104BB0000170D5E76C21D170D2E700BF00C006407C
:104BC0000C21FF1F0D21FF1F3821FF1F0821FF1F90
:104BD0007921FF1F7C21FF1F7821FF1F8021FF1FEC
:104BE0001021FF1F284A29491368F0B443F40053E9
:104BF00013600A78264F274E274D284C284900235A
:104C00001F2A3B7033702B7023700B7037D03F2AF4
:104C10001BD0244B1B78202B1FD03E2B2AD01F28C3
:104C200021D80020024601241F4B204D1A702C274A
:104C3000002240261E495C70987220249A701A74D3
:104C4000DF702E700C60F0BC70471A4B40F21332CC
:104C50001A60144B1B78202BDFD1174B4FF4517285
:104C60001F281A60DDD9C0F34432C0F3471400F0A6
:104C70001F00D9E7114B4FF451721A60CFE7104B68
:104C800040F213321A60C4E7348004409708FF1FD3
:104C90008821FF1F8921FF1FFC21FF1FF521FF1F16
:104CA000F421FF1F9808FF1F00D0064025E400E014
:104CB00004E100E014D004402CA0044010D00440D3
:104CC00028A00440054A064B10781B78C0B2DBB21E
:104CD000984238BF4030C01A704700BF8821FF1F7C
:104CE0008921FF1F30B4154B154C1A782378D2B2A6
:104CF000DBB29A421ED001333F2B0ED91149124B21
:104D0000087819680023C0B2237021B1D31A1A2B76
:104D100001DC00230B7030BC70470A480A49C05CB4
:104D20000968DDB2C0B225700029F4D09A4238BFBC
:104D30004032EBE74FF0FF30EDE700BF8821FF1F67
:104D40008921FF1FB421FF1F8421FF1F30B42B4B8B
:104D50001A7994061FD52A48DA790378294901334C
:104D60003F2B0978C8BF00238B42D2B203D0264C18
:104D7000D9B2E2540170254A116861B1244A12780F
:104D8000D2B2934236BFC2F140029B1A9B18272B26
:104D9000C4BF01230B70194AD378DBB2180611D4B3
:104DA0005A060DD5154B1B795B0609D5194B1A49C7
:104DB0001B6800220A7003B11A70104B2C22DA70A3
:104DC00030BC704711790906EAD5144910480C78AF
:104DD0000178C9B28C420DD04A1C272A84BF002119
:104DE0000A460F4D054C98BFD1B2AA5CD2B2E2710F
:104DF0000170D5E76C21D170D2E700BF00D006402A
:104E00008821FF1F8921FF1FB421FF1F8421FF1F5D
:104E1000F521FF1FF821FF1FF421FF1FFC21FF1FB9
:104E20008C21FF1F431E032B14D872B60A4951F878
:104E3000230068B170B4094C058834F81320466823
:104E400041F82360521B24F8132062B670BC7047EF
:104E500062B67047002070475822FF1FD824FF1FFA
:104E6000013803280BD872B6074B53F8203043B1F2
:104E700000205B680130002BFBD162B67047002038
:104E800070471846F9E700BFAC22FF1F30B472B676
:104E90002B4A13781D0706D52A4B196A002936D0EC
:104EA000996A002941D053781C0706D5254B196C07
:104EB00000293ED0996C002939D09378190705D57F
:104EC000204B196E002936D0996E89B1D3781B0713
:104ED00007D51C4BD3F880207AB3D3F88820112152
:104EE0003AB162B6184B00221A7030BC00F08CBE8A
:104EF0000D21154C154D227843F8315003EBC103B9
:104F00000830013A5860227062B630BC7047042203
:104F10000D4C0F4D217843F8325003EBC20308309B
:104F20004A1E5860227062B6EFE70521E1E70921C9
:104F3000DFE70822ECE70C22EAE71022E8E700BFEF
:104F4000BC9E00000000FF1FD522FF1FC8004000CC
:104F500088004000431E032B1DD81B4A400140F02F
:104F6000100030B4104472B6184CE25C032A1BD80F
:104F7000DFE802F00212151703220D88E25410F048
:104F8000080F14BFC823882343EA05430831036090
:104F9000416062B630BC704708300222EDE705225E
:104FA000EBE708300422E8E7094A52F8230038B159
:104FB000084A52F82300416042F8231062B6E9E73C
:104FC00042F82310034AF7E70000FF1FE422FF1F07
:104FD000AC22FF1FBC22FF1F2DE9F04FDFF80CB3FE
:104FE000DFF80CA387B044E0AB4F4FEA930807EB20
:104FF000C809013ED9F8042003F00803F6B2A2F173
:10500000080003F0FF04002B40F0028157F838300D
:105010001B0C99B222F8081C002B00F0F0809F4B6B
:1050200022F8064C42F8044C53F82620002A00F0DF
:10503000C5829B4D55F8263058609A4C45F826009D
:1050400034F81630194424F8161000F0BDFD00287D
:1050500000F0AD82944A954B19F0080F00F108005A
:1050600018BF1346C9F8040047F8383008238BF8F6
:1050700000309BF80040E4B261071AD58C4B1B78D6
:10508000A3B18C490A7802F0FF0322B1013BDBB2E5
:105090000B7003B900BE88490A7802F0FF032AB1F9
:1050A000013BDBB20B70002B00F0578204238BF81E
:1050B000003004F0080303F0FF02002B00F0CC8066
:1050C0009AF80030DBB21E098ED19C08DFF8C89137
:1050D00059F8342009EBC401C2F38302013A49684C
:1050E0000C2A00F28880DFE802F07C7C86868686C7
:1050F00086864786868607000868704D4A68704F26
:10510000704E286081B240F28160674B6A604FF058
:10511000010E0022814249F834303A60C9F810206B
:10512000C9F8182086F800E05B4C00F2E380B1F586
:10513000D06F80F04683B1F5817F00F0FC8200F2F1
:105140008D82802900F07783822940F0FA82A98835
:1051500001F07F01042900F2F4825B485B4C890076
:105160000844227062700278930740F1588484F8F2
:1051700000E04FF0020E42E3514F3A6832B3544B15
:10518000504E5449188834780D784028864645F0AA
:10519000020828BF4FF0400E002C84F00104347048
:1051A000CEEB00000CBF8824C82409EBC80680B2EF
:1051B00085F0010544EA0E447260188049F83840D1
:1051C00072440D70002800F045813A603B4B1A880C
:1051D000B2F5A06F0FD100219A7859703E4B1A702A
:1051E00009E0364A108842F22102904200F03781ED
:1051F0002D4A49F83420394A0123137036E72A4AE8
:105200002A4B19F0080F18BF134647F838302DE71E
:1052100000F0FAFC324A334952F82630002B00F0F5
:10522000D18158688C5D42F8260003F10802C9F864
:105230000420032C05D8DFE804F02C0229260222E2
:105240008A551A8819F0080F0CBF8823C82343EA2F
:10525000024347F8383009E7E00700F18181210671
:1052600000F1F281A20706D51F4A204913780220D7
:10527000DBB213700870E30602D51C4B10221A70C3
:1052800007B0BDE8F08F04228A55DAE705228A5577
:10529000D7E703228A55D4E70000FF1F5822FF1FDB
:1052A0000422FF1FD824FF1FC800400088004000D0
:1052B000E022FF1F6922FF1FE822FF1FCC22FF1FF1
:1052C0000022FF1F6822FF1FC0200740D822FF1FB7
:1052D0001422FF1FD422FF1F98200740942007406C
:1052E000AC22FF1FE422FF1F8820074080200740D8
:1052F0009020074042F22100814200F02A8100F212
:10530000D880B1F5086F00F07682B1F5106F40F0EB
:105310001882226AB349A8780870120600F13A830D
:10532000D9F82820B049130600F10C83D9F83020B1
:10533000AD49150600F10183D9F83820AA491406B1
:1053400000F1F682D9F84020A749100600F14A83FF
:10535000D9F84820A449120600F13F83D9F850201B
:10536000A149130600F13483D9F858209E49150647
:1053700000F12983D9F860209B49140600F11E83AF
:10538000D9F868209849100600F11383D9F87020E5
:105390009549120600F10883D9F87820924913063E
:1053A00000F1FD82D9F880208F49150600F1318384
:1053B000D9F888208C49140600F12583D9F890206B
:1053C0008949100600F11983D9F8982086491206F8
:1053D00000F10D838548864A864901908648874DAD
:1053E000874C049700230596029580460F46164683
:1053F0001D460394306828B1446800F005FC20463F
:10540000002CF9D100233360029B38681A46002330
:1054100042F8253028B1446800F0F6FB2046002C05
:10542000F9D100223A60019A98F800301146002222
:1054300041F8042B039A0191023B4FF0000122F83E
:105440001510032B00F22B81DFE813F0700125010A
:1054500070012501BEF1400F18BF0022B5E6694A70
:105460000D784878157050708D78C8789570D07028
:1054700010680D79157186284D798979557191716A
:1054800000F09B816049614E0A78307882F0010516
:10549000002842F002020D700CBF8821C82149F893
:1054A000321009EBC20280F001000021307051601F
:1054B0009EE642F22120814240F0CB81544B554C74
:1054C0005549A8781D682560CDF804E008700020D3
:1054D00002908046844604464B490D7845F0020E02
:1054E00009EBCE030393019B002B039B5C600CBF75
:1054F0008824C82444EA080385F0010449F83E30B2
:1055000032700C70DFF8E0E0404BDFF8FC800028E0
:1055100040F01E81BCF1400F1BD144F0020C09EB9E
:10552000CC03029CDFF8C0E05C60002A40F02681DA
:10553000020442F088029DF804304EF83C200444F6
:1055400033700D702346402803D10020334A3B605E
:105550001080334A012313704DE600F0C1FCA5E52D
:10556000214B2F4828491A614FF0020E80F800E0C5
:105570002C4F0A702C49196099602C4E2C4D2D4CE3
:105580009A610D213970FF213170DFF8B8E0297080
:105590002270294D294A8EF800109F27012406F811
:1055A000047C5D600470DA6007B0BDE8F08F244AC7
:1055B00047F8380013780133137057E543F8260095
:1055C0000E4D3AE58B5D032B00F2F08001A252F8FC
:1055D00023F000BF6D5000006D5000009156000098
:1055E0008B560000E022FF1F0000FF1FBC22FF1FA0
:1055F0005822FF1FAC22FF1FE422FF1F0422FF1FBF
:10560000D824FF1FE024FF1FD422FF1F6822FF1FA2
:105610008820FF1FE824FF1FF822FF1F1422FF1F0E
:1056200094200740C02007408800400088200740A1
:1056300080200740982007401822FF1F6C22FF1F80
:10564000D522FF1F8C200740C149C24B80220D206C
:1056500008701A70A2077FF50EAE05E640F202321E
:10566000914240F0EE80A98801F07F01042968D8BA
:105670006A88002A65D1B648CDF804E0890008445C
:10568000017841F00201017021E701238B55EDE41F
:1056900000238B55EAE44FF0010388F80030013510
:1056A000042D06F1040607F1040708F101087FF450
:1056B000A1AEA94CA94B2278A94D049F059E0021BB
:1056C00029701A70130700F105816278A549DFF887
:1056D000A0820A7010074FF00001C9F83010C9F815
:1056E000381000F1E080A049A2780A700021C9F8C2
:1056F0005010C9F858101107DFF8748200F10181C9
:10570000E2789A499A4C0A7000211207C9F8701081
:10571000C9F8781000F1B08033780193002183F04C
:105720000102C9F89010C9F89810D0E64FF00003B4
:1057300088F80030B3E7A98801F07F01042940F21E
:105740008D80834A0F2313708A4A0123137052E518
:1057500040287FF6E2AE44F002040EEBC401029E44
:105760004E60BAB19DF80410834A19703346403830
:1057700088F8005040334EF83420E7E69DF80430B6
:1057800033700204029B0D7042F0C80203444EF8CD
:105790003C20D8E69DF804101970029B774A88F8DF
:1057A0000050403840334EF83420CFE619F0080F4F
:1057B0000CBF022303238B5558E4714A0F2111704B
:1057C00060E6704A5468002CBBD06888B5F804E0E5
:1057D00003E00C325468002CB3D013888342F8D114
:1057E00053887345F5D1000A03280CBF94F800E0F4
:1057F000B2F808E003E0644A644C12782270E8884A
:10580000704580F03F8162490D784028844645F01C
:10581000020E28BF4FF0400C04EB0C0309EBCE0244
:10582000029301235460CCEB00004FEA0C480022A5
:105830000193C8245EE6554C4FF0020E2270627050
:10584000DDE7B1F5A06F7FF47CAF01230022019367
:105850003DE642F221329142F7D072E76A88002A8F
:105860007FF46FAF3A48CDF804E08900084401782E
:1058700021F0020101702AE600F0A6F9002800F0EC
:10588000EF8008303D4AC4F88400C4F8802000F05E
:105890009BF9002800F0DE800830374AC9F88C00F8
:1058A000C9F8882038E700F08FF9002800F0C080A0
:1058B0000830324AC8F84400C8F8402000F084F9A3
:1058C000002800F0AF8008302B4AC9F84C00C9F816
:1058D000482008E700F078F9002800F0CD80083073
:1058E000264AC9F82400C9F8202000F06DF90028E4
:1058F00000F0BC800830204AC9F82C00C9F82820E4
:10590000E3E600F061F9002800F09E8008301B4AB1
:10591000C8F86400C8F8602000F056F9002800F0CC
:105920008D800830144AC9F86C00C9F86820E7E691
:10593000C86B083800F068F904E5486B083800F0D7
:1059400063F9F9E4C86A083800F05EF9EEE400BFD4
:10595000C020074080200740BC9E0000C4200740B4
:10596000D522FF1FC8200740CC200740D020074089
:105970000000FF1F94200740C8004000880040003E
:105980006922FF1FC09E0000E022FF1FD822FF1FD8
:10599000D422FF1F606A083800F036F9C0E4C86FEF
:1059A000083800F031F9FDE4486F083800F02CF9B0
:1059B000F2E4C86E083800F027F9E7E4486E0838CA
:1059C00000F022F9DCE4C86D083800F01DF9D1E4DC
:1059D000486D083800F018F9C6E4C86C083800F0C3
:1059E00013F9BBE4486C083800F00EF9B0E4D1F8C4
:1059F0009C00083800F008F9ECE4D1F8940008386D
:105A000000F002F9E0E4D1F88C00083800F0FCF86E
:105A1000D4E4D1F88400083800F0F6F8C8E44FF078
:105A2000020EECE62A78C9F8480001322A705AE6DC
:105A30002A78C8F8400001322A703FE72A78C9F86E
:105A4000680001322A705BE62A78C8F860000132EB
:105A50002A7061E72A78C9F8880001322A705BE66B
:105A60002A78C4F8800001322A7010E72A78C9F831
:105A7000280001322A7028E62A78C9F8200001326D
:105A80002A7032E7BEF1400FF44628BF4FF0400CB9
:105A900004EB0C0302930123CCEB0E004FEA0C48FD
:105AA0000022019318E500BF2DE9F04100F0C8FD88
:105AB0002F4C304B3048DFF8D880304F304D314ECE
:105AC000DFF8D0C0DFF8D0E000221A605A609A6098
:105AD000DA601A615A619A61DA611A625A629A62EC
