:10000000F8FF02209901000021410000E1400000BA
:10001000E1400000E1400000E1400000E14000005C
:10002000E1400000E1400000E1400000214100000B
:1000300021410000E14000000D650000F565000071
:100040002141000021410000214100002141000028
:100050002141000021410000214100002141000018
:100060002141000021410000214100002141000008
:1000700021410000214100002141000021410000F8
:1000800021410000214100002141000021410000E8
:1000900021410000214100002141000021410000D8
:1000A000B1310000C13100002141000021410000B8
:1000B0002141000021410000214100008167000032
:1000C00021410000354A000021410000A94F0000F5
:1000D00021410000DD5100002141000021410000CC
:1000E0002141000021410000214100002141000088
:1000F0002141000021410000214100002141000078
:10010000FD660000156700002D67000045670000D0
:1001100021410000795400002141000021410000EC
:100120002141000021410000214100002141000047
:100130002141000021410000214100002141000037
:100140002141000021410000C16800002141000060
:10015000C969000021410000214100002141000047
:100160002141000021410000D13100002141000067
:1001700021410000214100002141000021410000F7
:1001800021410000214100002141000021410000E7
:100190002141000021410000584B4CF2205210B583
:1001A0001A804DF628121A8000BF00BF03F0BCFF72
:1001B000534B4FF030621A60524A9A60524ADA60EA
:1001C000524B4FF470021A60514A136813F4807353
:1001D00004D150490B604FF4A85313604E4B1A786A
:1001E000110703D51A7842F008021A704B4B4C499C
:1001F0002A221A704B4A4C4B8B4204D252F8040FFD
:1002000043F8040BF8E7494B494900228B4202D2DC
:1002100043F8042BFAE74749474A002352F82300E2
:1002200041F823000133662BF8D1444B444A802126
:1002300003F8011B9342FBD1424B3E4A1A60424BEA
:100240008A221A70A3F5805324225A70A0221A70B1
:100250009A799207FCD59A79D406FCD43B4A9379D3
:1002600003F00C03082B394BF9D103221A714622F3
:100270005A719A799006FCD5344A9179334B4906E4
:10028000FBD5334A4FF08271116009215160202261
:100290001A709A7902F00C020C2AFAD12D4B2E4AD0
:1002A0001A602E4B2E4A1A6000225A60072243F829
:1002B000042C2C4AC3F80C2D62B604F091FA154BAD
:1002C0001B68DA0705D5284803F09AFF274B284A10
:1002D0001A60284B1B785B0609D5244C244B2268F6
:1002E0009A4204D1204803F08BFF0023236008F0DA
:1002F00031FB03F01FFF03F051FEFEE70E20054027
:1003000030800440823F04000100002B88ED00E0B3
:1003100010D0034014D0034002D0074000E0074053
:100320002013FF1F30A70000F806FF1F2013FF1F38
:10033000FC24FF1F0002FF1F0000000000E400E09B
:1003400056E400E008ED00E00050064000400640A2
:100350004480044004800440C010050014E000E024
:10036000BFD4010000002020A2F20C5D1CE003407D
:10037000A5C3945A00F00740FFFFFFFFFFFFFFFFF8
:10038000FFFFFFFFFFFFFFFFFFFFFFFFFFFFFFFF7D
:10039000FFFFFFFFFFFFFFFFFFFFFFFFFFFFFFFF6D
:1003A000FFFFFFFFFFFFFFFFFFFFFFFFFFFFFFFF5D
:1003B000FFFFFFFFFFFFFFFFFFFFFFFFFFFFFFFF4D
:1003C000FFFFFFFFFFFFFFFFFFFFFFFFFFFFFFFF3D
:1003D000FFFFFFFFFFFFFFFFFFFFFFFFFFFFFFFF2D
:1003E000FFFFFFFFFFFFFFFFFFFFFFFFFFFFFFFF1D
:1003F000FFFFFFFFFFFFFFFFFFFFFFFFFFFFFFFF0D
:10040000FFFFFFFFFFFFFFFFFFFFFFFFDEF9FFFF23
:1004100010B5054C237833B9044B13B10448AFF33E
:1004200000800123237010BD2013FF1F0000000077
:100430002CA70000084B10B51BB108490848AFF3C2
:1004400000800848036803B910BD074B002BFBD0A0
:10045000BDE81040184700BF000000002413FF1F34
:100460002CA700002013FF1F0000000010B504F0AF
:100470002DFD50B104F03CFD0A4C23681B68C1B24D
:1004800020469847204603F05DF905F099FE38B103
:1004900005F046FE044B1A681268C1B21846904730
:1004A00010BD00BFAC08FF1F8C08FF1F01281CD126
:1004B000F8B54FF6FF73994216D10C4F0C4C3946E4
:1004C000204603F015FB0B4E0B4D324629462046C5
:1004D00006F02AFB094C3946204603F009FB324658
:1004E0002946204606F020FBF8BD7047189C000006
:1004F0007013FF1FF806FF1F593A00004013FF1F3B
:1005000038B540F2E732654B1A6004F051FA002822
:1005100000F0878004F05EFA0546C4B2592C02D17F
:1005200001225F4B1A60422C02D101225D4B1A60FE
:10053000792C02D101225C4B1A60622C02D101227B
:100540005A4B1A60564B1B68012B10D1564B1B6837
:100550006BB9EBB2303B092B04D82146544803F069
:1005600029FB04E02D2C02D10122524B1A704D4B75
:100570001B68012B10D14D4B1B686BB9EDB2303DA0
:10058000092D04D821464C4803F014FB04E02D2C1F
:1005900002D10122494B1A70414B1B68012B1DD11E
:1005A000414B1B68012B19D1414803F013FB444B0D
:1005B0001860404B1B7813B14042414B18604149D1
:1005C0003B4803F0A9FA0023354A1360364A13600A
:1005D000384A13703C4A136801331360314B1B686F
:1005E000012B92D1314B1B68012B8ED1324803F085
:1005F000F1FA364B1860314B1B7813B14042334B44
:10060000186030492C4803F087FA0023254A13600C
:10061000264A1360294A13702B4A1368013313606A
:1006200073E7274B1A6812F14A0F01D0284B1A6062
:10063000264B1B6813F14A0F01D026490B6012F1BB
:100640004A0F03D1224A11681D4A116013F14A0F63
:1006500003D1204B1A681D4B1A601B4B1B68012BE2
:100660001BDD1D4B1B68012B08D1154B1A681B4B5A
:100670001A60164B1A681A4B1A6008E0134B1A6876
:10068000164B1A600E4B1B685B42154A1360002222
:100690000D4B1A600122134B1A6038BD6C14FF1FFA
:1006A0005413FF1F6813FF1F5C13FF1F6413FF1F0A
:1006B0007013FF1F8013FF1F4013FF1F5813FF1FEE
:1006C0008413FF1F189C00003C13FF1F8813FF1F9B
:1006D0006013FF1F6C13FF1F3414FF1F2014FF1F34
:1006E0003C14FF1F3420FF1F184B1B685A1EB22AF0
:1006F00002D8174A136007E0A3F1B402B42A03D862
:10070000A3F5B473124A1360114B1B6813F12D0F3C
:1007100003DB2D2B03DD2D2301E06FF02C030C4AAE
:100720001360C01A07EE903AB8EEE77ADFED097A67
:1007300067EE277A07EE100AB8EEC77A77EE677A87
:10074000FDEEE77A17EE900A704700BF7014FF1FA6
:100750005013FF1FCDCCCC3D08B54FF6FF710120E3
:10076000FFF7A4FE08BD00BF08B50123614A13606E
:10077000614A1360614B1B68A3F11002B2F5A47FBC
:1007800001D95F490B60A3F15A01362902D8AA208A
:100790005B490860A3F19101232902D8D720584969
:1007A0000860A3F1B501222902D8912054490860BC
:1007B000A3F1D801362902D8BE2051490860514919
:1007C0000968B4292DDD0D2A03D803F11E024C4916
:1007D0000A60A3F11E020E2A03D803F1230248493E
:1007E0000A60A3F12D022C2A03D803F12D024449FB
:1007F0000A60A3F20F122C2A03D8A3F12D0240495C
:100800000A60A3F59E720E2A03D8A3F123023C4985
:100810000A60A3F24B120D2A30D81E3B384A1360EF
:100820002CE00D2A03D803F1280235490A60A3F110
:100830001E020E2A03D803F12D0231490A60A3F1EA
:100840002D022C2A03D803F137022D490A60A3F2A6
:100850000F122C2A03D8A3F1370229490A60A3F505
:100860009E720E2A03D8A3F12D0225490A60A3F235
:100870004B120D2A02D8283B214A13601F4B1B68DC
:10088000A3F13D023A2A03D9A3F1E7023A2A03D899
:10089000D7211D4A116002E0FA211B4A11605A3B20
:1008A000B42B06D8174B1B68B42B02DCBE22164BA8
:1008B0001A60FFF725FE114B1B681F3BB3F5957FB0
:1008C00011D9104B1B688C2B0DDD104BD3ED007A2A
:1008D000FDEEE77A17EE902A0B4B1968084B186863
:1008E00001F056F908BD084B1968054B186801F06E
:1008F0006FF908BD1414FF1F1814FF1F9014FF1F79
:100900006814FF1F501AFF1F1C14FF1FAC14FF1F99
:10091000244B1B68142B09DD234BD3ED007AB1EE79
:100920000E7A77EE877AC3ED007A22E013F1140F86
:1009300009DA1D4BD3ED007AB1EE0E7A77EEC77A65
:10094000C3ED007A15E0184BD3ED007AF5EEC07ACE
:10095000F1EE10FA06DDB1EE007A77EEC77AC3ED5C
:10096000007A06E0B1EE007A77EE877A0E4BC3ED9F
:10097000007A0D4B93ED007AF3EE0E7AB4EEE77A3F
:10098000F1EE10FA01DDC3ED007A074B93ED007A2A
:10099000FBEE0E7AB4EEE77AF1EE10FA01D5C3ED74
:1009A000007A70472014FF1FAC14FF1F704700BF70
:1009B000014B0360704700BFE49B0000012811D188
:1009C0004FF6FF7399420DD110B5074C28224FF016
:1009D000FF31204602F024FC044A0549204606F077
:1009E000A3F810BD704700BF8C13FF1FF806FF1F50
:1009F000B109000010B5054C0821204602F092FC18
:100A00000121204602F03CFC10BD00BF8C13FF1FEB
:100A100030B587B01A220C49684602F01BFDDDE9AB
:100A200000450A4B186807F00DFC02460B462046AD
:100A3000294607F0D5FE28B92046294607F002FFCF
:100A4000024B186007B030BD8C13FF1F7014FF1FDE
:100A500010B5FFF7DDFF084C23685B6805220749E6
:100A600020469847064B1968204602F0B9FE2046FA
:100A700002F068FE10BD00BFAC08FF1FF89B00002D
:100A80007014FF1F10B50446034B0360102103F0E0
:100A90008FFB204610BD00BFE49B000008B54FF659
:100AA000FF710120FFF78AFF08BD00BF08B50123D1
:100AB000854A1360854A1360854B1B68A3F11002B9
:100AC000B2F5A47F11D9834908788349096888421F
:100AD00005DA0021814801608148016005E00020BD
:100AE0007E490860FF207E4908600D2A10D8794AA7
:100AF0001178794A1268914205DA002277490A6032
:100B000077490A6004E0754A1360FF21744A116056
:100B1000A3F11E020E2A12D86E4A11786E4A12688C
:100B2000914206DA5A216D4A1160FF216C4A116028
:100B300005E05A21694A1160FF21694A1160A3F159
:100B40002D022C2A12D8634A1178634A1268914206
:100B500006DA5A21614A1160FF21614A116005E0FD
:100B60005A215E4A1160FF215D4A1160A3F15A02C9
:100B7000362A12D8574A1178574A1268914206DA33
:100B8000B421564A1160FF21554A116005E0B42195
:100B9000524A1160FF21524A1160A3F19102232AA7
:100BA00011D84C4A11784C4A1268914206DAB421A5
:100BB0004A4A1160FF214A4A116004E00022474975
:100BC0000A6047490A60A3F1B502222A11D8414AB6
:100BD0001178414A1268914206DAB4213F4A116005
:100BE000FF213F4A116004E000223C490A603C4971
:100BF0000A60A3F1D802362A12D8364A1178364A4A
:100C00001268914206DAB421344A1160FF21344A55
:100C1000116005E0B421314A1160FF21304A1160B2
:100C2000A3F20F122C2A14D82A4A11782A4A1268E1
:100C3000914207DA4FF48771284A1160FF21284A50
:100C4000116006E04FF48771244A1160FF21244AA5
:100C50001160A3F59E720E2A14D81E4A11781E4AFE
:100C60001268914207DA4FF487711C4A1160FF2124
:100C70001B4A116006E04FF48771184A1160FF218A
:100C8000174A1160A3F24B120D2A10D8114A11789D
:100C9000114A1268914205DA0023104A1360104A83
:100CA000136004E00D4A1360FF220D4B1A600C4BD9
:100CB00019680A4B186800F08BFF0A4B1B683C2B25
:100CC00001DD01F093FA08BD1414FF1F1814FF1F73
:100CD0009014FF1FFC06FF1F501AFF1FA013FF1FD9
:100CE0009C13FF1F881AFF1F012810D14FF6FF73B6
:100CF00099420CD182B0064B1A6801920199054ABB
:100D000011601B680093009A034B1A6002B0704791
:100D10009420FF1FE013FF1FA813FF1F00B583B02F
:100D200050B11B4B1A681B4B1A601B4B1B6800937E
:100D3000009A1A4B1A6027E0164B1B68B3F1FF3F6D
:100D400022D0174B1A68174B1968114B186800F01E
:100D500015FF20B94FF0FF320E4B1A6014E00E4B16
:100D60001B680193019B0D4A12689B1A40F2ED2209
:100D7000934205D800221146104600F009FF03E017
:100D80004FF0FF32034B1A6003B05DF804FB00BF65
:100D90009014FF1F0007FF1F9420FF1FA813FF1FC1
:100DA000C013FF1FF413FF1F10B5A44B1A68A44B08
:100DB0001B689A4206D1A34B1B781BB9A24B1A7829
:100DC000A04B1A70A04B1B78022B01D0082B05D129
:100DD0009E4A137040F2DB519D4A11609C4A126892
:100DE000002A04DC00229A490A6098490A70012B03
:100DF00001D0042B05D1974A137040F2DB51964A7B
:100E00001160954A1268002A04DC002292490A60A7
:100E100090490A700F2B03D18A4B1A788A4B1A70AB
:100E2000894B1B780E2B00F2B881DFE813F00F001E
:100E3000D300EC005401210192006C01EC003A0156
:100E40009D015400220085013A013B00834B196843
:100E5000834A1160FF21834A11604FF0FF321A600C
:100E60000021142003F090FA0021112003F08CFAE5
:100E7000B6E1B4227A4B1A60FF227A4B1A60002442
:100E8000794B1C603C22794B1A602146142003F0F8
:100E90007BFA2146112003F077FA01210D2003F09F
:100EA00073FA9DE100246E4B1C60FF226D4B1A60AB
:100EB000B4226D4B1A603C226C4B1A602146142000
:100EC00003F062FA01210D2003F05EFA21461120A1
:100ED00003F05AFA84E15F4B1B78012B10D1B42246
:100EE0005F4B1A60FF225F4B1A6000225E4B1A6054
:100EF0001E205E4B186040F2745102F0F7FC1BE0BC
:100F0000042B10D10022564B1A60FF21554B19605B
:100F1000B421554B19601E20544B186040F25D11EE
:100F200002F0E4FC08E000224D4B1A604D4B1A60C1
:100F3000DC211E2002F0DAFC0121142003F024FA47
:100F40000021112003F020FA01210D2003F01CFAEA
:100F500046E13E4B1B78022B12D14FF48772404B77
:100F60001A60FF223F4B1A605A223F4B1A601E2024
:100F70003E4B1860002240F2164102F0B7FC1CE024
:100F8000082B11D15A22364B1A60FF22354B1A60BA
:100F90004FF48772344B1A601E20344B18600022C5
:100FA000822102F0A3FC08E000222D4B1A602D4B99
:100FB0001A60DC211E2002F099FC0121142003F0AC
:100FC000E3F90021112003F0DFF901210D2003F0E6
:100FD000DBF905E1B422224B1A60FF22214B1A6093
:100FE0000024214B1C601E22204B1A602146142035
:100FF00003F0CAF921460D2003F0C6F9214611205D
:1010000003F0C2F9ECE04FF48772154B1A60FF222F
:10101000144B1A605A22144B1A603C22134B1A606C
:101020000021142003F0B0F900210D2003F0ACF9E9
:101030000021112003F0A8F9D2E000BFE813FF1F40
:101040000407FF1FD413FF1FEC13FF1FDC13FF1F48
:10105000E413FF1FBD13FF1FD813FF1FF013FF1F63
:101060006414FF1F8C14FF1FF413FF1FC013FF1F16
:101070000024944B1C60FF22934B1A60B422934BC4
:101080001A601E22924B1A602146142003F07CF94C
:1010900021460D2003F078F92146112003F074F960
:1010A0009EE05A22874B1A60FF22874B1A604FF44A
:1010B0008772864B1A603C22854B1A6000211420EF
:1010C00003F062F900210D2003F05EF900211120E8
:1010D00003F05AF984E0E1227A4B1A60FF227A4B3E
:1010E0001A602D22794B1A601420794B1860002168
:1010F00003F04AF900210D2003F046F900211120E8
:1011000003F042F96CE040F23B126E4B1A60FF2292
:101110006D4B1A6087226D4B1A6014206C4B18605F
:10112000002103F031F900210D2003F02DF90021F9
:10113000112003F029F953E02D22624B1A60FF229F
:10114000614B1A60E122614B1A601420604B1860F9
:10115000002103F019F900210D2003F015F90021F9
:10116000112003F011F93BE08722564B1A60FF2251
:10117000554B1A6040F23B12544B1A601420544BEA
:101180001860002103F000F900210D2003F0FCF8A5
:101190000021112003F0F8F822E04E4B1B68B43315
:1011A0004D4883FB00011944DA17C2EB21224FF4AA
:1011B000B47101FB1232434B1A60FF22424B1A609A
:1011C0004FF0FF32454B1A600021142003F0DCF889
:1011D00000210D2003F0D8F80121112003F0D4F8EC
:1011E0003F4B1A783F4B1A703F4A1368013B13601C
:1011F000002B11DD334B1B68B3F1FF3F0CD00120F6
:10120000FFF78CFD2F4B1868344B186000222E4BD3
:10121000196800F0BDFC03E04FF0FF322F4B1A605D
:10122000314B1B68002B0CDC0020FFF777FD1E20E4
:1012300002F0EEFB00232C4A1360224A1360284A76
:101240001370274B1B78012B0BD100210D2003F0CD
:101250009BF80021112003F097F80121142003F0DE
:1012600093F81F4B1B78022B0BD100210D2003F0AC
:101270008BF80121112003F087F80021142003F0DE
:1012800083F8174B1B78042B0BD101210D2003F0A1
:101290007BF80021112003F077F80021142003F0DF
:1012A00073F80F4B1B78082B0BD101210D2003F095
:1012B0006BF80121112003F067F80021142003F0DE
:1012C00063F810BD6414FF1F8C14FF1FF413FF1F7D
:1012D000C013FF1F6814FF1FB7600BB6F013FF1F8A
:1012E000EC13FF1F5514FF1FE813FF1F38B5002430
:1012F000224B1C70224B1C70032C2BDC214B13F84F
:10130000240002F095FDFA28D4BF002001201E4DD4
:1013100045F824001D4B13F8240002F089FDFA283B
:10132000D4BF002001201A4B43F8240055F8243084
:1013300003B918B1174A1168174A1160A3400F4A40
:1013400011780B441370A0400D4B1A78104418709C
:101350000134D1E7094B1A78094B1B781A430F491E
:101360000B7813430B701BB101220D4B1A7002E076
:1013700000220B4B1A70FFF717FD38BDA413FF1F97
:10138000BC13FF1F0807FF1FAC13FF1F1807FF1F29
:10139000C413FF1F0407FF1FE813FF1FEC13FF1FF9
:1013A000FC13FF1F38B5FFF7A1FF2F4C23685B68C4
:1013B0000A222E4920469847204602F0C3F900250C
:1013C000032D1ADC284C2A4B53F82510204602F036
:1013D00007FA23685B680122264920469847264B76
:1013E00053F82510204602F0FBF923685B680322BE
:1013F0002249204698470135E2E71B4C204602F07F
:10140000A1F91A4D23685B680A22294620469847AD
:10141000204602F097F923685B68082218492046A5
:10142000984700230A2217490978204602F09AF9C2
:1014300023685B681222144920469847134B1968A9
:10144000204602F0CDF9204602F07CF9962003F008
:10145000B1F923685B680A2229462046984720464E
:1014600002F070F938BD00BFAC08FF1F009C0000FF
:10147000AC13FF1F38A00000C413FF1F0C9C00001A
:10148000109C0000BC13FF1F1C9C00006414FF1F75
:1014900008B54FF6FF710120FFF726FC08BD00BF1D
:1014A00001280BD14FF6FF73994207D182B0044B4C
:1014B0001B680193019A034B1A6002B0704700BF8A
:1014C0009420FF1F581AFF1F30B52DED028B83B0FB
:1014D00000F090FA0024534B1C60534B1C60534B9C
:1014E0001C700023524A1360524A1360524A14601F
:1014F000524A1460524A1460524A1460524A14709C
:101500000125524A1560524A1560524A1470524AD7
:101510001570524A1570524A1560524A1560524A67
:101520001470524A1460524A1460524A1460524A6B
:101530001460524A1460524A1470524A1460524A5B
:101540001460524A1460524A1460524A1460524A5B
:101550001460524A1460524A1460524A1460524A4B
:101560001460524A1460524A1360524A1360524B3C
:101570001D60524B1D609FED528AB0EE480A02205A
:1015800002F04EFEB0EE480A052002F049FEB0EE31
:10159000480A062002F044FEB0EE480A172002F086
:1015A0003FFE0521162002F021FF0521102002F048
:1015B0001DFF2946142002F019FF29460D2002F0D4
:1015C00015FF2946112002F011FF21461D2002F0CF
:1015D0000DFF21461C2002F009FF43F2D40003F066
:1015E000B7FA40F6230003F051FD43F2D40003F0B4
:1015F00075F9FFF7FFF900F0C9F801F031F900F0D3
:1016000065F9304B1B680193019A2F4B1A604FF418
:10161000FA7003F0CFF800F011FA03B0BDEC028BC2
:1016200030BD00BF7014FF1F501AFF1F4814FF1F6A
:101630006C1AFF1F0814FF1F2C14FF1F2814FF1F14
:101640005814FF1F5C14FF1F0514FF1F8C1AFF1F87
:10165000901AFF1F0614FF1F0C14FF1F0D14FF1F0D
:101660005C1AFF1F601AFF1F2414FF1FF813FF1FCF
:101670000014FF1F4014FF1F7414FF1F741AFF1F74
:101680003814FF1F801AFF1F641AFF1F6814FF1F02
:101690001C14FF1F2014FF1F3C14FF1F6C14FF1F9E
:1016A0003414FF1F3420FF1F1014FF1F701AFF1F78
:1016B0006014FF1FAC14FF1F1814FF1F1414FF1F2A
:1016C00000606A469420FF1F581AFF1F08B51D20AE
:1016D00002F07EFE224B18601C2002F079FE214BA6
:1016E000186004F06DFD002801DD00F0BFFDFFF77C
:1016F0008FF901F0FFF900F0C7F9FEF701FF1A4B6F
:101700001B68012B07D1FFF703F90122174B1A7051
:101710000022154B1A6000F031FC154B1B7843B1C9
:101720000F4B1B6813B1FFF71FF80CE0FFF7BEF972
:1017300009E00B4B1B6823B10021084600F048FA72
:1017400001E000F053FDFFF7D1FD0A4B93ED000AD5
:10175000B8EEC00A084B186800F088FA08BD00BF50
:101760004014FF1F3414FF1F3420FF1F3014FF1FCD
:101770004814FF1F641AFF1F801AFF1F08B54FF699
:10178000FF710120FFF78CFE08BD00BF70B51A4E37
:101790000121707802F02AFE184D0121687802F0CC
:1017A00025FE174C0121607802F020FE0121B0785F
:1017B00002F01CFE0121A87802F018FE0121A07899
:1017C00002F014FE0121F07802F010FE0121E87809
:1017D00002F00CFE0121E07802F008FE01213079D0
:1017E00002F004FE0121287902F000FE0121207997
:1017F00002F0FCFD70BD00BF2807FF1F3007FF1F70
:101800003807FF1F70B5044616461D46074B185C87
:1018100002F0BAFD3146064B185D02F0B5FD2946CF
:10182000044B185D02F01EFE70BD00BF3007FF1FA5
:101830003807FF1F2807FF1F38B51A4D01216878A8
:1018400002F0A2FD184C0121607802F09DFD0121FB
:10185000A87802F099FD0121A07802F095FD012100
:10186000E87802F091FD0121E07802F08DFD012180
:10187000287902F089FD0121207902F085FD0B4CC9
:10188000FF21607802F0EEFDFF21A07802F0EAFD72
:10189000FF21E07802F0E6FDFF21207902F0E2FD71
:1018A00038BD00BF3007FF1F3807FF1F2807FF1F85
:1018B000DFED047A20EE270ADFED037A80EE270AB7
:1018C000704700BFDB0F49400000344338B50024A7
:1018D000B4F5B47F17DA07EE904AB8EEE70AFFF7DF
:1018E000E7FF10EE100A06F0BFFC41EC100B05F00C
:1018F00083F9134D05EB840551EC100B06F0CAFF7C
:1019000028600134E4E70024B4F5B47F17DA07EE69
:10191000904AB8EEE70AFFF7CBFF10EE100A06F088
:10192000A3FC41EC100B05F007F9064D05EB84050F
:1019300051EC100B06F0AEFF28600134E4E738BD2F
:10194000B014FF1F941AFF1F70B504460D4631B145
:10195000002907DC08DA4D420126002304E00026B6
:10196000334601E0002601231946074B185D02F0BB
:101970000BFD3146054B185D02F006FD2946044B70
:10198000185D02F06FFD70BD3007FF1F3807FF1FA5
:101990002807FF1F38B50125042D2ADCECB2C82327
:1019A000012200212046FFF72DFF4FF47A7002F04C
:1019B00001FFC823002211462046FFF723FF4FF402
:1019C000967002F0F7FEC823002201212046FFF79F
:1019D00019FF4FF47A7002F0EDFEC8230022114681
:1019E0002046FFF70FFF4FF4967002F0E3FE01353B
:1019F000D2E738BD08B56422DC211E2001F076FF55
:101A0000642002F0D7FE1E2002F002F86422DC21DE
:101A10001E2001F06BFF642002F0CCFE1E2001F0BE
:101A2000F7FF642240F252311E2001F05FFF642074
:101A300002F0C0FE2F2001F0EBFF08BD08B56422C4
:101A400040F252311E2001F051FF642002F0B2FE3C
:101A50001E2001F0DDFF642240F252311E2001F011
:101A600045FF642002F0A6FE1E2001F0D1FF642293
:101A70006E211E2001F03AFF642002F09BFE1E2022
:101A800001F0C6FF08BD00BF08B503F065FB0028E4
:101A900014DD03F073FBC0B2094B187010F0010F96
:101AA00008D0084B18600128D4BF00200120064B45
:101AB0001870EAE74000054B1860E6E708BD00BF74
:101AC0003C20FF1F501AFF1F4814FF1F9014FF1FD8
:101AD00010B5FFF7D9FF134B1B78A3B1124C134B72
:101AE0001968204601F07CFE23685B6803221049D8
:101AF000204698470F4B1968204601F071FE20469A
:101B000001F020FE09E0084C23685B680F220A49B7
:101B100020469847204601F015FE642002F04AFE58
:101B200010BD00BF4814FF1FAC08FF1F9014FF1F1B
:101B30000C9C0000501AFF1F309C000084B00190E4
:101B40000091884201DA01AB00E06B461B688842D5
:101B500001DB01AA00E06A4612689B1A002BB8BF9D
:101B60005B420393C3F5B4720292934201DA03AB72
:101B700000E002AB186804B0704700BF10B514460F
:101B8000FFF7DCFFA042CCBF0020012010BD00BF4A
:101B90000C4B18600C4B19600C4B1A600B4B1B68FC
:101BA00013F1B40F04DA03F5B473084A1360F5E7D0
:101BB000064B1B68B42B04DDA3F5B473034A136012
:101BC000F6E77047801AFF1F641AFF1F2C14FF1FCF
:101BD00008B50022FFF7DCFF08BD00BF1B4BD3EDAB
:101BE000007AB8EEE77ADFED1A7AB4EEE77AF1EE32
:101BF00010FA03DDDFED177A37EE677A164BD3ED77
:101C0000007AF8EEE77A77EE677A37EEA70A134B99
:101C1000D3ED006A77EEE66A9FED117A26EE877AB9
:101C2000C3ED007A0F4BD3ED006AB6EE006A66EEA4
:101C3000866A77EEA67AC3ED007ADFED0B6A67EE6F
:101C4000A67A30EE070A37EE800A70477014FF1F3D
:101C5000000034430000B4432C14FF1F6C1AFF1F14
:101C6000000000000814FF1FCDCCCC3D2DE9F04151
:101C70002DED028B0446B0EE408A714A8300D118E4
:101C8000D1ED007A27EE807A6E49D1ED007AF8EE38
:101C9000E77A67EE877A6C49C1ED007A6B490B44AD
:101CA00093ED007A60EE476A694B93ED007AB8EEE7
:101CB000C77A27EE267A674B83ED007AD1ED2D6A3D
:101CC00027EEA66AD2ED2D6A67EE266A76EE266AC0
:101CD000DFF89C81C8ED006A91ED876A67EE867A2D
:101CE00092ED876A27EE067A77EE877A5A4FC7ED2C
:101CF000007A5A4EF1EE666AC6ED006A584DF1EE72
:101D0000677AC5ED007AFFF769FF564B83ED000A4D
:101D1000D8ED007A70EE277AD7ED006A70EE266A69
:101D200096ED007A30EE077A95ED006A30EE060AFD
:101D30009FED4D6AF4EEC67AF1EE10FA09D49FEDEC
:101D40004B6AF4EEC67AF1EE10FA04DDF0EE467A54
:101D500001E0DFED457A464BC3ED007A9FED426A24
:101D6000F4EEC66AF1EE10FA09D49FED406AF4EE83
:101D7000C66AF1EE10FA04DDF0EE466A01E0DFED2E
:101D80003A6A354BC3ED006ADFED376AB4EEE67AA6
:101D9000F1EE10FA09D4DFED356AB4EEE67AF1EE31
:101DA00010FA04DDB0EE667A01E09FED2F7A2B4B3E
:101DB00083ED007A9FED2C7AB4EEC70AF1EE10FAAB
:101DC00009D49FED2A7AB4EEC70AF1EE10FA04DDC9
:101DD000B0EE470A01E09FED240A214D85ED000A8F
:101DE000FDEEE77A17EE901A0120FFF7ADFD1A4BD2
:101DF000D3ED007AFDEEE77A17EE901A0220FFF796
:101E0000A3FD164BD3ED007AFDEEE77A17EE901A9C
:101E10000320FFF799FDD5ED007AFDEEE77A17EE86
:101E2000901A0420FFF790FD124B1C60BDEEC88A8B
:101E3000114B83ED008ABDEC028BBDE8F08100BF41
:101E4000941AFF1F1414FF1F7C1AFF1FB014FF1FEA
:101E50001814FF1F4414FF1F7C14FF1F8014FF1F62
:101E60003820FF1F681AFF1F00007FC300007F4358
:101E70007814FF1F841AFF1F781AFF1F022812DC34
:101E8000022910DC10B400EB40030B44064C54F85C
:101E900023301A44952A04D800EB4000084444F843
:101EA00020205DF8044B70474C20FF1F02280DDCFA
:101EB00070B50E4605460024022C06DC324621464B
:101EC0002846FFF7DBFF0134F6E770BD704700BF1F
:101ED00070B506460025022D0BDC0024022C06DC22
:101EE000324621462846FFF7C9FF0134F6E701359F
:101EF000F1E770BD08B54042FFF7EAFF08BD00BF3B
:101F000010B5174B1868FEF7EFFB164C2060164B08
:101F10001868FEF7E9FB0146144B18602068FFF7CC
:101F20000DFE0028B8BF4042142804DC1E21012009
:101F3000FFF7BCFF10E00B4B1A680C4B1B689A4272
:101F400004DD1E210020FFF7B1FF05E09A4203DA0D
:101F50001E210220FFF7AAFF0022054B1A7010BDB8
:101F60002014FF1F4420FF1F3C14FF1F4820FF1FA9
:101F70003014FF1F08B5FFF7C3FF08BD10B50320DD
:101F8000FFF7B8FFFFF7F6FF00210C46022913DC2C
:101F90000023022B0EDC01EB41021A440B4850F8DF
:101FA0002220944204DA0A4801600A480360144679
:101FB0000133EEE70131E9E7064B1B6803EB43030E
:101FC000034A12681344044A136010BD4C20FF1FDB
:101FD0004C14FF1F5014FF1FA814FF1F10B5FFF76C
:101FE00053FD00F087FDFEF713FDFEF789FAFFF7BA
:101FF000C1FF144C23685B6816221349204698479A
:10200000124B1968204601F0EBFB23685B68032242
:102010000F49204698470F4B1968204601F0E0FB16
:10202000204601F08FFB23685B6822220A49204684
:1020300098470A4B1968204601F0D2FB204601F070
:1020400081FB10BDAC08FF1F409C00005C1AFF1F05
:102050000C9C0000601AFF1F589C00004007FF1FE7
:1020600070B5FFF78BFF2C4C23685B6811222B495E
:1020700020469847204601F065FB0026022E19DC19
:102080000024022C11DC04EB44033344224D244A87
:1020900052F82310284601F0A3FB2B685B6803224B
:1020A0002049284698470134EBE71B4801F04AFBDA
:1020B0000136E3E7184C23685B6811221749204674
:1020C0009847204601F03EFB23685B6812221649C0
:1020D00020469847154B1968204601F081FB23687C
:1020E0005B6803220F4920469847114B1968204628
:1020F00001F076FB204601F025FB23685B680C228B
:102100000C49204698470C4B1968204601F068FBA3
:10211000204601F017FB70BDAC08FF1F28A000008F
:102120004C20FF1F0C9C00007C9C00004C14FF1FE7
:102130005014FF1F909C0000A814FF1F30B583B0FF
:10214000234B1B680093009B224A12689B1AB3F52D
:10215000FA7F3AD3204C23685B6806221F49204649
:102160009847204601F0EEFA0025032D14DC1A4CA6
:1021700023685B6804221A4920469847194B53F894
:102180002510204601F02CFB23685B6803221649CA
:10219000204698470135E8E70F4C204601F0D2FA77
:1021A000FFF71CFFFFF75CFFFEF752FC23685B683C
:1021B00006220A4920469847204601F0C3FA044BFC
:1021C0001B680193019A034B1A6003B030BD00BF36
:1021D0009420FF1F4020FF1FAC08FF1F049C00003D
:1021E000A09C00009814FF1F0C9C000008B5012360
:1021F000194A1360194A1360194B1B68022B01D945
:10220000042B04D1FF21B420FFF7E2FC08BD032B0F
:1022100001D0062B04D1FF215A20FFF7D9FC08BDBD
:10222000052B01D0082B05D1FF214FF48770FFF754
:10223000CFFC08BD00220B4B1A700B4B1B68182BF0
:1022400004DDFF21B420FFF7C3FC08BD00210846D0
:10225000FFF7BEFC08BD00BF1414FF1F1814FF1FBA
:10226000A814FF1F9414FF1F881AFF1F70B5FFF7F3
:10227000E3FA984C204601F065FA23685B6829224E
:10228000954920469847204601F05CFA23685B6830
:102290003C22924920469847204601F053FA236891
:1022A0005B6826228E4920469847204601F04AFA6C
:1022B000204601F047FA23685B680B2289492046D3
:1022C0009847204601F03EFA23685B68172286494A
:1022D00020469847204601F035FA23685B680C22B7
:1022E000824920469847204601F02CFA23685B6813
:1022F00009227F4920469847204601F023FA2368A7
:102300005B680A227B4920469847204601F01AFA6A
:1023100023685B680D22784920469847204601F0E3
:1023200011FA23685B680A227449204698472046C0
:1023300001F008FA23685B68092271492046984732
:10234000204601F0FFF923685B680E226D492046A4
:102350009847204601F0F6F923685B680D226A4928
:1023600020469847204601F0EDF923685B68142267
:10237000664920469847204601F0E4F903F0D0FE74
:10238000634D2870534C204601F0DCF923685B68EC
:10239000052260492046984723681B682978204613
:1023A000984723685B6801225B492046984720468E
:1023B00001F0C8F92B78302B09D123685B681F2204
:1023C000564920469847204601F0BCF9C9E0312B18
:1023D0000AD1404C23685B68362251492046984711
:1023E000204601F0AFF9BCE0322B0AD1394C23680A
:1023F0005B682A224B4920469847204601F0A2F903
:10240000AFE0332B0AD1334C23685B682222464964
:1024100020469847204601F095F9A2E0342B0AD1D6
:102420002C4C23685B68312240492046984720465F
:1024300001F088F995E0352B0AD1264C23685B68BA
:1024400028223B4920469847204601F07BF988E046
:10245000362B0AD11F4C23685B681A223549204667
:102460009847204601F06EF97BE0372B0AD1194CD2
:1024700023685B685622304920469847204601F081
:1024800061F96EE0382B0AD1124C23685B68062292
:102490002A4920469847204601F054F961E0392B3B
:1024A0000AD10C4C23685B680522254920469847D1
:1024B000204601F047F954E06C2B45D1054C2368C8
:1024C0005B680E221F4920469847204601F03AF9E2
:1024D00047E000BFAC08FF1FA89C0000D49C000090
:1024E000149D00003C9D0000489D0000609D000080
:1024F000709D00007C9D0000889D0000989D00005C
:10250000A49D0000B09D0000C09D0000D09D000073
:102510000414FF1FE89D0000B49F0000F09D000020
:10252000109E0000489E0000749E0000989E0000CF
:10253000CC9E0000F89E0000149F00006C9F0000DD
:10254000749F00007C9F00006B4C23685B68142222
:102550006A4920469847204601F0F4F80022684B6B
:102560001A7003F02DFE00283FF708AF654B1B786B
:10257000303B3C2B00F25D81DFE813F03D004B0067
:102580005200590060006700720079007F00BB00B4
:102590005B015B015B015B015B015B015B015B015B
:1025A0005B015B015B015B015B015B015B015B014B
:1025B0005B015B015B015B015B015B015B015B013B
:1025C0005B015B015B015B015B015B015B015B012B
:1025D0005B015B015B015B015B015B015B015B011B
:1025E0005B015B015B015B015B015B015B015B010B
:1025F0005B015B01D600404C23685B6809224249BD
:1026000020469847204601F09DF800223C4B1A7066
:1026100070BDFFF75DFA3D4B186802F0CBF808E19A
:1026200000F026F9394B186802F0C4F801E1FEF712
:102630000FFA364B186802F0BDF8FAE0FFF7AAF976
:10264000324B186802F0B6F8F3E0FEF7E1F9052026
:1026500002F0B0F89FED2E0A0020FFF707FBE8E03C
:10266000FDF704FF294B186802F0A4F8E1E0FFF73A
:1026700065FD0A2002F09EF8DBE01C2001F0A8FEB8
:10268000244B1860FDF73CFFFEF7C2F9224D1A4CAF
:102690002968204601F0A4F8204E23685B680322D5
:1026A0003146204698472868FEF71EF80146204626
:1026B00001F096F823685B6805221949204698477F
:1026C000184D2968204601F08BF823685B680322C7
:1026D0003146204698472868FEF706F8014620460E
:1026E00001F07EF8204601F02DF8642002F062F837
:1026F0009FE0FEF757FE9CE0AC08FF1F8C9F000098
:102700005414FF1F0414FF1FA49F00004407FF1F61
:10271000000000003414FF1F2014FF1F0C9C000059
:10272000B09F00003C14FF1F454C23685B681222D9
:10273000444920469847212001F07AFB0146204673
:1027400001F04EF8404D23685B680322294620467D
:102750009847222001F06CFB0146204601F040F82A
:10276000204600F0EFFF23685B68122237492046BD
:102770009847232001F05CFB0146204601F030F829
:1027800023685B680322294620469847242001F0ED
:102790004FFB0146204601F023F8204600F0D2FF0F
:1027A00023685B6812222A4920469847272001F0B7
:1027B0003FFB0146204601F013F823685B680322C3
:1027C0002946204698470E2001F032FB014620465C
:1027D00001F006F8204600F0B5FF23685B6812227E
:1027E0001C49204698470F2001F022FB0146204655
:1027F00000F0F6FF23685B680322294620469847CD
:10280000102001F015FB0146204600F0E9FF236887
:102810005B681B2210492046984723685B680122A9
:102820000E4920469847204600F08CFF642001F0B6
:10283000C1FF03F0C5FC00283FF498AE70BD00BF97
:10284000AC08FF1FB89F00000C9C0000CC9F00004C
:10285000E09F0000F49F000008A00000B49F00006B
:1028600008B5024800F0DCF908BD00BF2008FF1FD2
:102870002DE9F0410026032E59DC06F17007FFB266
:102880004FEA47085FFA88F8434C84F83B800125FB
:1028900084F85E5084F85D500021204600F06CF909
:1028A0005121204600F068F92946204600F0FEFA42
:1028B000462001F07FFF84F83B8084F85E5084F866
:1028C0005D500221204600F057F92946204600F0CD
:1028D000EDFA2B4602223946204600F06BFB94F8B5
:1028E000392094F83830D11AA9421EDD9A4205D910
:1028F000581984F8380023441B7E01E04FF0FF3361
:102900001902254B93F83830934206D2224A581CBC
:1029100082F8380013441B7E01E04FF0FF330B4375
:102920001E4A13601E4A42F826300136A3E71C4BAC
:1029300019681C4A116059681B4A116099681B4A42
:102940001160DA681A4B1A601A4C23685B6815220A
:10295000194920469847204600F0F4FE0024032C35
:102960000EDC144D0E4B53F82410284600F038FFAF
:10297000284600F0E7FEFA2001F01CFF0134EEE7E4
:102980000C4C23685B6815220B492046984720466B
:1029900000F0D8FEBDE8F0812008FF1F2814FF1FBB
:1029A0009814FF1F8814FF1F8414FF1F881AFF1F2D
:1029B000541AFF1FAC08FF1F24A0000070B50025AB
:1029C000032D19DC05F17003DBB20C4C5B0084F8BD
:1029D0003B30012684F85E6084F85D60002120466B
:1029E00000F0CAF85121204600F0C6F831462046D2
:1029F00000F05CFA3544E3E770BD00BF2008FF1F1C
:102A00002DE9F0410025032D40D8A84605F17006B8
:102A1000F6B21F4C730084F83B30012784F85E70D7
:102A200084F85D700221204600F0A6F83946204661
:102A300000F03CFA3B4602223146204600F0BAFA4A
:102A400094F8383094F839108B4205D2D81984F8AC
:102A5000380023441B7E01E04FF0FF331A020C4B79
:102A600093F838308B4206D20949581C81F8380057
:102A70000B441B7E01E04FF0FF331343054A136004
:102A8000054A42F828300135EDB2BCE7BDE8F081D7
:102A90002008FF1F2814FF1F9814FF1F00B583B0E4
:102AA000104B1B785BB9FFF789FF01220D4B1A70A1
:102AB0000D4B1B680093009A0C4B1A600FE00A4BF9
:102AC0001B680193019B0A4A1360084A12689B1A0B
:102AD000462B04DDFFF794FF0022024B1A7003B06F
:102AE0005DF804FB0514FF1F9420FF1F5814FF1FFF
:102AF0005C14FF1F08B5FFF7D1FF074B1968074AA1
:102B000011605968064A11609968064A1160DA68CE
:102B1000054B1A6008BD00BF9814FF1F8814FF1FE3
:102B20008414FF1F881AFF1F541AFF1F00207047CC
:102B300090F8392090F83800101A704790F8383023
:102B400090F83920934205D25A1C80F8382003446B
:102B5000187E70474FF0FF30704700BF90F8383054
:102B600090F83920934202D20344187E70474FF008
:102B7000FF307047704700BFB0F85E307BB190F80F
:102B80005D30202B03D901230371002070475A1CAC
:102B900080F85D20184480F83B1001207047002029
:102BA000704700BF38B5B0F85E30BBB1054614467B
:102BB00090F85D30C3F12102A24202D201202871B7
:102BC000144605F13B002246184401F0EFF995F850
:102BD0005D30234485F85D30204638BD002038BD87
:102BE00043691A6812685B681A4213D00A4B99420B
:102BF00003D803692C225A7009E0084B994203D884
:102C000003691C225A7002E0036912225A70036998
:102C100004229A71704700BF7F1A06003F420F00DE
:102C200070B50446002380F8383080F8393080F8D9
:102C30005C3080F85D3080F85E304366836680F8F3
:102C40005F30456929680E686A6832430A60026924
:102C50009370426990F861301344197A114A02EB7B
:102C6000C10149685B7B1B0203F4E06343F064032A
:102C70000B60416990F862300B44997C02EBC10211
:102C80005268DB7D1B0203F4E06343F064031360CE
:102C90000549FFF7A5FF236920225A712369802285
:102CA0009A7070BD90A10000A086010038B503693C
:102CB000DD78EDB215F0100F04D01022DA7015F0A7
:102CC000400F7DD0044615F0400F2DD015F0040FB5
:102CD0001BD000233B4A137080F85D30436E03B174
:102CE000984794F85D302BB9012384F85D300023B8
:102CF00084F83B302369D0229A70236994F83B20F2
:102D00001A71012384F85C300AE001222D4B1A70FD
:102D1000002380F839300369C0229A7003691B7957
:102D200023690222DA7038BD02699379DBB203F0BD
:102D3000600160290AD103F0DF039371836E2BB128
:102D4000002280F8382090F83900984723699A7853
:102D500012F0100F1BD015F0010F13D194F85C2066
:102D600094F85D108A4207D2511C84F85C1022440A
:102D700092F83B201A7101E000221A712369D022D7
:102D80009A701AE0C0229A7023691B7915E000221C
:102D900084F860209A7942F020029A7123691B79A5
:102DA000DBB294F839201F2A07D80649097821B1E7
:102DB000511C84F839102244137623690222DA70F8
:102DC00038BD00BF7020FF1F2DE9F04182B00646DC
:102DD000344B1B680093009F00213269D37813F0B5
:102DE000200F5AD02F4B1B680193019BDB1B0F2B2D
:102DF0004BD9002949D1726996F8613013440521F5
:102E0000187A01F0F3FA726996F86130134493F876
:102E100012800121404601F0E9FA0025082D0FDC5F
:102E20000021404601F0B0FAC8242346013BFDD101
:102E30000121404601F0A8FA013CFDD10135EDE742
:102E4000726996F861301344197A174A02EBC1018E
:102E500049685B7B1B0203F4E06343F064030B608F
:102E6000716996F862300B44997C02EBC10252689A
:102E7000DB7D1B0203F4E06343F0640313604FF453
:102E8000C873013BFDD10121A7E7102BA5D9002074
:102E90009070336980229A7000E0012002B0BDE892
:102EA000F08100BF9420FF1F90A1000030B585B0D5
:102EB00004460D4603691222DA7003699A7812F00B
:102EC000200F02D0B4229A7009E0FFF77DFF00289E
:102ED0006AD0002384F85F302369B0229A70344BA3
:102EE0001B68009300992269D37813F0200F0DD14D
:102EF0002F4B1B680193019B5B1A042BF3D9002312
:102F00009370236980229A7004204EE0002094F888
:102F10005D3098423CD22369221892F83B201A7106
:102F2000234B1B68029302992269D378DBB213F01A
:102F3000020F10D113F0200F0DD01D4B1B6803930F
:102F4000039B5B1A052BEFD9002393702369802222
:102F50009A70042029E00223D3702269D378DBB26F
:102F600013F0100F03D080239370042014E013F0AB
:102F7000200F03D18023937004200DE013F0010F84
:102F800003D038B90220012506E00130C0B2BEE707
:102F9000002001E00320012515B1236980229A70E9
:102FA000002384F85E3000E0042005B030BD00BF8F
:102FB0009420FF1F2DE9F04188B004460D461646C7
:102FC0001F46002380F8383080F839300369122218
:102FD000DA700269937803F0200313B1B42393707D
:102FE0000CE003F0FF08FFF7EFFE002800F0DA80A6
:102FF000002384F85F302369B0229A706B4B1B6802
:10300000009300992269D37803F0200303F0FF08AE
:1030100063B9664B1B680193019B5B1A042BF1D9C2
:1030200000239370236980229A70BBE06B0043F009
:103030000103DBB213715D4B1B6802930299226995
:10304000D37803F0020303F0FF0863B9574B1B6802
:103050000393039B5B1A052BF1D90023937023691B
:1030600080229A709EE00223D370236993F8038034
:1030700018F0110804D080229A704FF0000891E0F7
:103080002EB90FB1802200E0A0229A708AE0012EB2
:1030900002D1A8229A7001E0A0229A7023691B79BC
:1030A0004FF00008012E38D9404B1B680493049957
:1030B0002269D37813F0020F0ED13C4B1B680593A5
:1030C000059B5B1A052BF3D900239370236980229B
:1030D0009A7084F8398065E00223D3702269D3782E
:1030E000DBB213F0100F5DD113F0200F5AD0013E68
:1030F000F6B2012E01D1A8239370B8F11F0F09D8A1
:1031000008F1010322691279A04488F818205FFAB7
:1031100083F8C7E723691B79C4E7244B1B68069330
:1031200006992269D37813F0020F0ED11F4B1B684A
:103130000793079B5B1A052BF3D900239370236930
:1031400080229A7084F839802CE00223D37022699F
:10315000D378DBB213F0100F0AD01023D370C8233A
:10316000013BFDD12269937803F0F703937019E0D6
:1031700013F0200F16D0B0239370B8F11F0F09D8A9
:1031800008F1010322691279A04488F818205FFA37
:1031900083F801E023691B7917B1236980229A70B3
:1031A00084F83980404608B0BDE8F0819420FF1FC4
:1031B00008B50248FFF77AFD08BD00BFB407FF1F3E
:1031C00008B50248FFF772FD08BD00BF2008FF1FC9
:1031D00008B50248FFF76AFD08BD00BF4807FF1F9A
:1031E00038B505460C4628220021204605F020FF70
:1031F0000B220949204606F051FA0023E37201220E
:10320000E260AA6822610322626163620023A36113
:10321000E361024B236238BDC0A000000AD7233C03
:1032200010B4034C0460816042715DF8044B704738
:10323000D0A0000070B5164643790B4C5B0084F8B3
:103240003B30012584F85E5084F85D502046FFF73E
:1032500093FC31462046FFF78FFC29462046FFF7B6
:1032600025FE284670BD00BFB407FF1F08B50A46FB
:1032700001733D21FFF7DEFF1E2001F09BFA08BD20
:1032800070B504460E46057B0021FFF7EFFF1920BD
:1032900001F090FA002207212046FFF7CBFF2EB164
:1032A00080223F212046FFF7C5FF04E000223F2196
:1032B0002046FFF7BFFF0A2001F07CFA294620468E
:1032C000FFF7D4FF142001F075FA70BD70B5064603
:1032D0004379134C5B0084F83B30012584F85E5041
:1032E00084F85D502046FFF747FC29462046FFF74B
:1032F000DDFD2B462A4671792046FFF75BFE94F8E8
:10330000383094F83920934205D2591984F838108E
:103310002344187E01E04FF0FF30C0B270BD00BF03
:10332000B407FF1F38B504460D462C48FFF778FC5C
:1033300000212046FFF7CAFFA02809D04FF47A7079
:1033400001F038FA00212046FFF7C0FFA02843D142
:1033500000212046FFF78AFF20223F212046FFF769
:1033600069FF00212046FFF7B1FFA02803D00A2003
:1033700001F020FAF5E7322001F01CFA00223E218C
:103380002046FFF757FF0A2001F014FA0022072118
:103390002046FFF74FFF242241212046FFF74AFF36
:1033A0000A2001F007FA052242212046FFF742FFDA
:1033B0000A2001F0FFF900223F212046FFF73AFFE3
:1033C0000A2001F0F7F929462046FFF74FFF1420A5
:1033D00001F0F0F9012038BD002038BDB407FF1F0F
:1033E0002DE9F041804615461C464379184E5B0096
:1033F00086F83B30012786F85E7086F85D703046AF
:10340000FFF7BAFB39463046FFF750FD3B462246F0
:1034100098F805103046FFF7CDFD0023A34214D2E3
:10342000E8180B4991F8382091F839108A4206D2F1
:103430000749561C81F838600A44127E01E04FF0BB
:10344000FF3202700133DBB2E8E70120BDE8F08112
:10345000B407FF1FF0B583B00446084615460023A5
:1034600023606360A360E360236163610093ADF850
:10347000043006236A462946FFF7B2FF9DF8003064
:103480009DF8010043EA002000B29DF802309DF84B
:10349000032043EA02231FB29DF804309DF8052063
:1034A00043EA02231EB2083D262D00F28180DFE8A8
:1034B00005F0657F7F7F7F7F147F7F7F7F7F2F7FFA
:1034C0007F7F7F7F4A7F7F7F7F7F7F7F7F7F7F7F41
:1034D0007F7F657F7F7F7F7F650004F0B3FE0022E2
:1034E000354B04F015FFC4E90001384604F0AAFE8C
:1034F0000022314B04F00CFFC4E90201304604F015
:10350000A1FE00222C4B04F003FFC4E904014FE0AC
:1035100004F098FE0022284B04F0FAFEC4E90001F2
:10352000384604F08FFE0022234B04F0F1FEC4E97C
:103530000201304604F086FE00221F4B04F0E8FE34
:10354000C4E9040134E004F07DFE00221A4B04F0CB
:10355000DFFEC4E90001384604F074FE0022164B79
:1035600004F0D6FEC4E90201304604F06BFE0022EE
:10357000114B04F0CDFEC4E9040119E004F062FE31
:1035800000220E4B04F0EEFFC4E90001384604F0BF
:1035900059FE0022094B04F0E5FFC4E90201304660
:1035A00004F050FE0022054B04F0DCFFC4E90401E6
:1035B000204603B0F0BD00BF0000B03F00005940FE
:1035C00070B588B005460C462426324600212046B8
:1035D00005F02EFD2660AB6863600323A3600E4BED
:1035E0001B680193019B23611A22294602A8FFF759
:1035F00031FFDDE9020105F04DF96061DDE904010B
:1036000005F048F9A061DDE9060105F043F9E06144
:10361000012008B070BD00BF9420FF1F08B50368EB
:103620001B68C9B2984708BD08B503681B68C9B2D2
:10363000984708BD08B503681B68C9B2984708BD1C
:1036400008B503681B68C9B2984708BD08B50846A5
:1036500001F0C0FB012008BD08B5084601F0BAFB27
:10366000012008BD38B50D46084605F0A9FF0446FF
:103670000146284601F0FEFB204638BD10B508463D
:103680001446114601F0F6FB204610BD08B501F0C6
:1036900079FC08BD08B5084601F07AFB003018BF78
:1036A000012008BD08B5084601F050FB003018BFE6
:1036B000012008BD08B50846114601F019FB08BDF8
:1036C00008B5084601F040FB08BD00BF08B5084634
:1036D00001F0F2FA08BD00BF08B501F0B7FA08BD65
:1036E00008B5044B03EB5100B0FBF1F001F030FAE8
:1036F00008BD00BF000E270710B51446054B03EBAD
:103700005100B0FBF1F001F023FA204601F064FA19
:1037100010BD00BF000E270708B501F019FC08BD59
:1037200008B501F0E5FB08BD08B501F0CFFB08BD09
:1037300008B501F0ABFB08BD08B501F0B3FB08BD4F
:10374000704700BF00B583B0054B1B88ADF804304F
:1037500003685B68022201A9984703B05DF804FB87
:1037600044A10000F0B58BB022B903681B68C9B250
:10377000984732E01646012A00D10A2621B93022A4
:103780008DF82520212419E021243746B1FBF6F2DB
:1037900006FB1212D2B22546092A02D83032D2B222
:1037A00001E03732D2B20DF1280E754405F8242C11
:1037B000B1FBF7F111B1013CE4B2E6E733B1013CF2
:1037C000E4B20AAB23442D2203F8242C03685B687F
:1037D000C4F1220201A9214498470BB0F0BD00BFFB
:1037E00008B5002902DA49422D2300E000230A220D
:1037F000FFF7B8FF08BD00BF10B5044602F05AFF3E
:10380000204610BD08B5244B1B687BB1234A1268C3
:10381000012182F88010013B1F4A136013F1050F4C
:1038200039D16FF002021C4B1A6008BD1B4B1B689C
:1038300001221A701A4B1B683BB31A4BD3ED007A66
:10384000F5EEC07AF1EE10FA18D99FED177AF4EE82
:10385000C77AF1EE10FA11DC9FED147A67EE877AE1
:10386000B6EE007A77EEC77AFCEEE77A17EE902A8A
:10387000232A03D90E490F4802F0D2FE084B1968DB
:10388000054A116000221A6008BD0A4802F012FFC2
:10389000FF22094B1A7008BD8420FF1F7C20FF1FE8
:1038A0008020FF1F8820FF1F8988884C00007042FD
:1038B000053800007420FF1F9C08FF1F01280ED14F
:1038C00008B54FF6FF73994208D1054800230360FD
:1038D00080230371034A044903F026F908BD7047A9
:1038E0007420FF1FF806FF1FF93700003F2876D825
:1038F00010B542B102FB01F2394BA3FB02239B0935
:103900005B00013301E06FF0020301B9012107EE12
:10391000901AF8EE677ADFED336A86EEA77A324ABC
:1039200002EBC002546872B6304A127890421AD143
:103930002F4AD2ED007AB4EE677AF1EE10FA07D191
:103940002C490A6802F001021344013B0B6044E079
:10395000274A82ED007A284A1360264A136803F04A
:103960000103136039E03F2A03D8244A1268012179
:1039700011701E4A10701C4A52F8300000F5807217
:103980001E490A60012180F8001180F880124FF46E
:10399000A2722260174A1360154B83ED007AB5EED0
:1039A000C07AF1EE10FA18D9DFED157AB4EEE77AA5
:1039B000F1EE10FA11DCDFED137A27EE277AF6EE3E
:1039C000007A37EE677AFCEEC77A17EE902A232A40
:1039D00003D90D490D4802F023FE62B610BD7047B1
:1039E000D34D62100024F44890A100009C08FF1FF2
:1039F0008820FF1F8420FF1F8020FF1F7C20FF1FC7
:103A00008988884C00007042053800007420FF1F30
:103A10003F2811D808B572B6084B1B78984209D1D7
:103A2000074802F047FE074B1B6801221A70FF226D
:103A3000024B1A7062B608BD704700BF9C08FF1F9A
:103A40007420FF1F7C20FF1F08B54FF6FF71012077
:103A5000FFF734FF08BD00BF10B50446006804F04E
:103A6000ADFF204610BD00BF38B504460D460131FC
:103A7000006805F02FFB18B120606560012038BD9B
:103A8000002038BD43688B420CD210B50446FFF7C6
:103A9000EBFF034650B1A3683BB9236800221A70BC
:103AA000012303E00123184670470123184610BD87
:103AB00070B504462AB9036803B11A700023A360E5
:103AC00014E00E4615461146FFF7DCFF48B92068A2
:103AD00018B104F073FF0023236000236360A36028
:103AE00004E0A5603146206805F0FEFC204670BD6C
:103AF00038B504460023036043608360037341B11B
:103B00000D46084605F05CFD024629462046FFF7B3
:103B1000CFFF204638BD00BF38B5044649B10D4639
:103B2000084605F04DFD024629462046FFF7C0FF36
:103B300001E000238360204638BD00BF2DE9F84333
:103B400004460E46154683689F1802688A4207D8C5
:103B50001344994207D2C2EB01084FF0010904E077
:103B60004FF0000901E04FF0000935B13946204619
:103B7000FFF788FF18B1002302E0012300E00123D2
:103B8000ABB9B9F1000F0BD02368A0682A4603EB4C
:103B90000801184400F00AFA23680022DA5505E00B
:103BA0002068A3683146184405F09EFCA7602046B3
:103BB000BDE8F88310B582B004468DF804100023E8
:103BC0008DF80530012201A9FFF7B8FF204602B0A9
:103BD00010BD00BF006818B108B504F0ABFE08BD09
:103BE00000207047394B1B6813F0800FFAD1384B17
:103BF0001B6813F0800FF5D172B6364B1B78002B83
:103C000062D030B4344B1D6804331C680433186828
:103C10000433196804331A6804331B682C442044A5
:103C200001440A441344C3F34E0343F400432B4AB4
:103C300013602B4B1D6804331C680433186804336D
:103C4000196804331A6804331B682C442044014467
:103C50000A441344C3F34E0343F40043214A136060
:103C6000214B1D6804331C68043318680433196839
:103C700004331A6804331B682C44204401440A446A
:103C80001344C3F34E0343F40043184A1360184B24
:103C90001D6804331C68043318680433196804333E
:103CA0001A6804331B682C44204401440A4413441A
:103CB000C3F34E0343F400430E4A13600022054B46
:103CC0001A7062B630BC704762B6704724B00340C9
:103CD00024B00B408D20FF1F38B003402CB00340B0
:103CE00058B0034030B0034038B00B402CB00B400C
:103CF00058B00B4030B00B406022434B1A70E122A9
:103D000001331A70414B1B78082B10D1212203F18B
:103D1000804303F56C331A6013233D490B6001F5B2
:103D2000FF2101F2FC710A603A4A13602CE00A2B71
:103D30000DD13922384B1A60132335490B6001F538
:103D4000FF2101F2FC710A60324A13601CE00C2B67
:103D50000DD13522304B1A6012232D490B6001F52D
:103D6000FF2101F2FC710A602A4A13600CE05D2217
:103D7000294B1A60122326490B6001F5FF2101F23D
:103D8000FC710A60234A1360244B1B7833B1012372
:103D9000234A136002F50022136005E00023204A45
:103DA000136002F5002213601E4B1B78012B06D80E
:103DB00080231D4A136002F50022136020E0042BCB
:103DC00006D88423184A136002F50022136017E016
:103DD000082B06D88523144A136002F500221360CD
:103DE0000EE0102B06D886230F4A136002F500223E
:103DF000136005E087230C4A136002F5002213606C
:103E000001220A4B1A707047004007409D08FF1FAF
:103E10000CB003400CB00B4008B003409020FF1FD3
:103E200020B003409E08FF1F24B003408D20FF1FD9
:103E300047285ED810B5314B1C5CFF2C5BD0304B53
:103E40001B780BB1FFF7CEFE14F0800F20D172B6B5
:103E50002C4B1C6001222C4B1A7062B672B6294B97
:103E60001B6813F0800F0AD0284B1B680021264ADC
:103E7000117062B6264A107843FA00F010BD224B4A
:103E80001B7813F0FF0FE3D062B602F0BFFAE5E74C
:103E900072B614F0400F05D01E4A136823F01003C9
:103EA000136004E01B4A136843F01003136004F02E
:103EB0003F03194A13600122184B1A7062B672B69A
:103EC000154B1B6813F0800F0AD0154B1B6800219F
:103ED000124A117062B60E4A107843FA00F010BD13
:103EE0000E4B1B7813F0FF0FD3D062B602F08EFAA0
:103EF000E5E700207047002010BD00BF48A100008A
:103F00008D20FF1F00B003408F20FF1F10B0034023
:103F10008C20FF1F0CB00B4000B00B408E20FF1F09
:103F200010B00B400A4A136843F480531360094BE6
:103F30001B781BB18022084B1A7002E0C022064B8E
:103F40001A7080F30C0000B2044B1880704700BF59
:103F50002C8004409020FF1F21C00C4000C00C406A
:103F60000A4A136843F400531360094B1B781BB1D2
:103F70008022084B1A7002E0C022064B1A7080F3B0
:103F80000C0000B2044B1880704700BF2C80044026
:103F90009020FF1F21D00C4000D00C4008B5FDF749
:103FA00093FAFDF793FB02F031FAFAE7844641EA0F
:103FB000000313F003036DD1403A41D351F8043BA1
:103FC00040F8043B51F8043B40F8043B51F8043BF3
:103FD00040F8043B51F8043B40F8043B51F8043BE3
:103FE00040F8043B51F8043B40F8043B51F8043BD3
:103FF00040F8043B51F8043B40F8043B51F8043BC3
:1040000040F8043B51F8043B40F8043B51F8043BB2
:1040100040F8043B51F8043B40F8043B51F8043BA2
:1040200040F8043B51F8043B40F8043B51F8043B92
:1040300040F8043B51F8043B40F8043B403ABDD201
:10404000303211D351F8043B40F8043B51F8043BA3
:1040500040F8043B51F8043B40F8043B51F8043B62
:1040600040F8043B103AEDD20C3205D351F8043B32
:1040700040F8043B043AF9D2043208D0D2071CBFFE
:1040800011F8013B00F8013B01D30B880380604627
:10409000704700BF082A13D38B078DD010F003039D
:1040A0008AD0C3F10403D21ADB071CBF11F8013B0D
:1040B00000F8013B80D331F8023B20F8023B7BE75C
:1040C000043AD9D3013A11F8013B00F8013BF9D287
:1040D0000B7803704B7843708B7883706046704721
:1040E00008B50E4B1B6813F4802F01D001F0C4F902
:1040F0000A4B1B6813F4806F01D002F041FB074BA1
:104100001B6813F4006F01D000F094FC034B1B6894
:1041100013F4805FE5D000F047FFE2E7348004400D
:1041200008B5FFF7DDFF00BF1022014B1A80704772
:1041300000200540704700BF08B50B4B1B6880B1DD
:104140006A461818A2F50052904206D304F0FCFB10
:104150000C2303604FF0FF3008BD034A106018467F
:1041600008BD184608BD00BFA008FF1FFEE700BF3E
:10417000EFF31383ABB9EFF31083ABB9EFF3058320
:1041800023B10F2B05D9094A985C03E04FF48070E6
:1041900000E00020EFF311833BB1984205D91846A7
:1041A00070474FF0FF30704700207047F0E300E0A9
:1041B00008B504F003FC08BD70B40024B0FBF2F3B2
:1041C00002FB130326460D19092B02D83033DBB24C
:1041D00001E03733DBB22B70B0FBF2F008B10134F1
:1041E000ECE7013600238B5505E0CA5C085DC85436
:1041F0000A550133013C9C42F7DC084670BC70470D
:10420000044B00221A6004490A60044A106010221C
:104210001A60704714D0034004D0034000D003401C
:1042200030B4DFED4A7AB4EEE70AF1EE10FA03D5C6
:10423000022447F6122201E00124454A00230FE040
:1042400022FA03F107EE901AF8EE677A9FED417AB1
:1042500067EE877AB4EEE70AF1EE10FA02DA01337C
:10426000062BEDD9DA4007EE902AF8EE677A87EE52
:10427000807AF6EE007A77EE677AFCEEE77A17EE50
:10428000902AB2F5803F01D34FF6FF72C11EC9B22A
:1042900001290CD8304900200860304D2860304892
:1042A000026003F0070343EAC4030B604BE0A0F194
:1042B0001601C9B201290BD9092809D00A2807D04B
:1042C000062805D0142803D0152801D005280CD1C4
:1042D000244900200860244D28602448026003F02F
:1042E000070343EAC4030B602DE0A0F11D01C9B22E
:1042F00001290CD81E49002008601E4D28601E4868
:10430000026003F0070343EAC4030B601BE00228CA
:104310000DD00E280BD0072809D0082807D0232855
:1043200005D0242803D0252801D026280BD11349F5
:1043300000200860124D28601248026003F0070355
:1043400043EAC4030B6030BC704700BFC0E1E440E7
:1043500000879303000080370090034004900340DF
:10436000089003400080034004800340088003401D
:1043700000800B4004800B4008800B4000900B40F5
:1043800004900B4008900B403F281ED80F4B53F869
:10439000303093F8802212F0FF0F08D019B10122BB
:1043A00083F880207047012283F800217047074B73
:1043B00003EBC000436821B11A6842F003021A609F
:1043C00070471A6822F002021A60704790A100003C
:1043D0003F2806D8044B53F8303093F80002C0B29F
:1043E00070470020704700BF90A100003F2835D8DB
:1043F0001B4B03EBC0035B68012901D0042914D1D6
:10440000174A52F83020012082F880024FF4A2723D
:104410001A60042904D11A6842F020021A60704719
:104420001A6822F020021A6070470D4A52F83020B4
:10443000002082F8800219B94FF480721A60704728
:10444000022903D140F203121A607047032903D1F5
:104450004FF481721A60704700221A60704700BFE3
:1044600090A1000038B50446A0F14203DBB2012B55
:1044700015D8924B1B780B2B03D8C3F10C03994032
:1044800003E00C2B01D90C3B1941422C03D1084607
:10449000FFF748FD38BD0846FFF762FD38BD874B82
:1044A0001D780122AA40002907DC0021FFF76CFFDC
:1044B00001212046FFF79AFF38BD0B468A4207D8F4
:1044C0000121FFF761FF01212046FFF78FFF38BD73
:1044D000C21ED2B2012A06D8794A106800FB011226
:1044E00022FA05F327E01D38C0B2012806D8754A24
:1044F000106800FB011222FA05F31CE0022C0DD01B
:104500000E2C0BD0072C09D0082C07D0232C05D05B
:10451000242C03D0252C01D0262C06D16A48006813
:1045200000FB033222FA05F305E0684A126802FB39
:10453000011222FA05F3A21E242A00F2B380DFE85A
:1045400012F079005D0064005600410087008E0083
:1045500033003A00B100B100B1008000B100B100F9
:10456000B100B100B10048004F0025002C00B1009F
:10457000B100B100B100B1006B007200B100B10038
:10458000B100B10095009C00A300AA00504A13603E
:1045900040F244424F4B1A6038BD4F4A136040F21C
:1045A00044424E4B1A6038BD4D4A136040F24442BB
:1045B0004C4B1A6038BD4C4A136040F244424B4B9E
:1045C0001A6038BD4A4A136040F24442494B1A60AF
:1045D00038BD494A136040F24442484B1A6038BD26
:1045E000474A136040F24442464B1A6038BD464A7F
:1045F000136040F24442454B1A6038BD444A136090
:104600004FF45172434B1A6038BD434A13604FF464
:104610005172424B1A6038BD414A13604FF45172D7
:10462000404B1A6038BD404A13604FF451723F4B03
:104630001A6038BD3E4A136040F244423D4B1A6056
:1046400038BD3D4A136040F244423C4B1A6038BDCD
:104650003B4A136040F244423A4B1A6038BD3A4A32
:10466000136040F24442394B1A6038BD384A136037
:104670004FF45172374B1A6038BD374A13604FF40C
:104680005172364B1A6038BD354A13604FF451727F
:10469000344B1A6038BD344A13604FF45172334BB7
:1046A0001A6038BD7F29D4BF002101212046FFF7C1
:1046B0006BFE01212046FFF799FE38BDA408FF1FBD
:1046C0000890034008800B4008900B40088003408E
:1046D0001080034004B004401880034008B0044038
:1046E000208003400CB004402880034010B00440F8
:1046F0003080034010C004403880034014C00440A0
:104700004080034018C00440488003401CC004405F
:1047100010900340309004401890034034900440BF
:1047200010800B4048A0044018800B404CA004406F
:1047300010900B4000C0044018900B4004C004408F
:1047400020900B4008C0044028900B400CC004404F
:1047500030900B4020B0044038900B4024B004400F
:1047600040900B4028B0044048900B402CB00440CF
:1047700072B60C4B1B680C4A12680C49096862B689
:1047800011F0806F02D0322B00D90132C3F5EA3329
:10479000BF330748A0FB03139B094FF47A7000FB5B
:1047A0000230704718E000E09420FF1F04ED00E0A5
:1047B0008988888838B50546FFF7DAFF044625B9A9
:1047C00038BD013D0AD004F57A74FFF7D1FF001B14
:1047D000B0F57A7FF5D201F019FEF6E738BD00BFDB
:1047E00070B5364B4FF000621A604FF080521A607D
:1047F0004FF000521A604FF080421A604FF00042B2
:104800001A6000202E4B18604EF6FF7104331960B9
:1048100028232C4A136008321360083213600832D0
:1048200013600832136008321360083213600832D4
:104830001360254D2B60254C236002F5002202F603
:10484000D8721360083213600832136008321360A4
:10485000083213600832136009221D4E326006F5DB
:1048600080560436306004363160043633600836D2
:104870003360143E326006F5FE260436306004369E
:1048800031600436336008363360143E326006F51A
:104890008056043630600F4801602B6023600E4B59
:1048A0001A60FFF729FA1920FFF784FF01F04EFB89
:1048B00040F21310FFF77EFF70BD00BF04E100E07F
:1048C000048003400C8003400C900B4014900B407C
:1048D0000080034008900B4000900B40264A13686C
:1048E00043F4006313600023244A1370244A1370B6
:1048F000244A1370244A1370244A1370244B1B78E3
:10490000092B02D03B2B05D008E040F21332214B9B
:104910001A6003E040F213321F4B1A601F4B1B78E2
:104920000A2B02D03A2B05D008E04FF451721C4BF1
:104930001A6003E04FF451721A4B1A601F2800D816
:104940002020C0F34432184B1A70C0F347125A703B
:1049500000F01F009872042199700222DA745975D0
:10496000882119743C21D9704021104B1970A3F291
:104970001D331A60704700BF348004400821FF1FB8
:104980009D20FF1F1021FF1F0921FF1F9C20FF1FDB
:10499000A508FF1F0CB0044004D00440A608FF1F68
:1049A00010B0044000D0044000B0064021E400E014
:1049B000064B1B78DBB2064A1078C0B2834201D3A3
:1049C000181A70471B1A03F1400070470821FF1F97
:1049D0009D20FF1F134B1A78D2B2134B1B78DBB20A
:1049E0009A4218D010B401333F2B00D900230F494D
:1049F000C85CC0B2D9B20C4C21700D49096869B1CC
:104A0000934201D8D31A01E0D31A40331A2B05DCA4
:104A100000230B7002E04FF0FF3070475DF8044B4D
:104A2000704700BF0821FF1F9D20FF1FC820FF1FE8
:104A30009820FF1F30B43C4B1B7913F0300F32D05D
:104A400072B6394B9A7D02F0FF032AB9364BDA79F8
:104A500040225A7462B626E062B6344A1078C0B278
:104A6000334A1578EDB2304AD279D1B2421C3F2A8E
:104A700000D90022AA4202D02E4CA1541046013B7C
:104A800013F0FF03EFD1C3B2284A13702A4B1B68FF
:104A90004BB1A84201D3401B01E0401B4030272806
:104AA00001DD01221A70204BDB78DBB213F0800F9E
:104AB00025D01D4A127912F0800F20D01F4A147899
:104AC000E4B21F4A1278D2B2A2420DD00132272A94
:104AD00000D90022144908791A48805CC0B2C87114
:104AE000097DC9B20729EFD9D2B215490A700E4A19
:104AF000127912F0800F02D07C210B4AD17013F092
:104B0000400F0ED0084B1B7913F0400F09D0002244
:104B10000D4B1A700D4B1B6803B11A703C22024BEF
:104B2000DA7030BC704700BF00B006400821FF1F9C
:104B30009D20FF1FC820FF1F9820FF1F1021FF1F6F
:104B40000921FF1FA020FF1F9C20FF1F0C21FF1F1A
:104B5000184A136843F4805313600023164A1370F5
:104B6000164A1370164A1370164A1370164A1370B9
:104B700040F21332154B1A604FF4517204331A602D
:104B80001F2800D82020C0F34432114B1A70C0F304
:104B900047125A7000F01F00987200229A701A741F
:104BA0002C22DA7040220B4B1A700822A3F21F331A
:104BB0001A607047348004408421FF1F1921FF1FB1
:104BC0008C21FF1F8521FF1F1821FF1F08C00440F3
:104BD00000C0064023E400E01B4B9B7803F0EC028E
:104BE00000F00303134310F0040F01D043F010034F
:104BF000154A937000F00F03042B03D1937943F00F
:104C000040039371104B5B7903F0EF0310F0100F2A
:104C100001D043F010030C4A5371937903F0EF0372
:104C200010F0200F01D043F01003074A937110F4E5
:104C3000807F07D013465278D2B2197841F0200114
:104C400019705A70704700BF00C0064008B5124B7B
:104C50001B6813F4805F02D108BD01F0D7FB0F4B36
:104C60001B7813F0FF0FF8D108220D4B1A600D4A84
:104C70000023D37040F203110B480160043001603F
:104C80001179D279094A1370094A1370094B1B68CC
:104C90000BB101221A7008BD348004401821FF1F97
:104CA00084E100E000C0064008C004408421FF1FEA
:104CB0001921FF1F1421FF1F10B50446094B1B7853
:104CC00013F0FF0FFAD101212046FFF78FFB0021DF
:104CD0002046FFF759FB044B53F83420034B1A606E
:104CE00010BD00BF1821FF1F90A100008821FF1FE9
:104CF00010B40C4609B140F08000104B1B7898426C
:104D000019D00F4A126812F4805F12D003F07F03AB
:104D1000082B02D100220B4B1A600CB1602300E07B
:104D2000442300F07F02082A03D143F44073054A6C
:104D30001360024B18705DF8044B7047A708FF1F03
:104D4000348004400CC00440704700BF0D4B1B680A
:104D500013F4805F13D03F280DD810B50A4B53F8D9
:104D600030300A4C23600121FFF740FB236800220A
:104D70001A70012010BD0020044B186070470020FD
:104D8000704700BF3480044090A100001421FF1F31
:104D90000D4B1B6813F4805F13D00E280AD140F22C
:104DA00002320A4B1A600A4A537B43F001035373E1
:104DB00001207047064A537B03F0FE035373002023
:104DC00070470020704700BF3480044004C0044096
:104DD00000C0064038B5204B1B6813F4805F39D003
:104DE0001E4B1B680BB101221A7005461C4B1C7828
:104DF0000134272C1DD900241BE0FFF7B9F9402806
:104E000013DC184B1B7913F0800F12D0164B1B7854
:104E10000133272B00D90023144AD25CD2B21149A6
:104E2000CA71DBB2104A137003E0FF2801DD01F004
:104E3000EDFA0D4B1B78DBB29C42DED0EDB20B4B92
:104E40001D5501220A4B1A70E4B2054B1C70AC22AE
:104E5000044BDA7038BD00BF348004408821FF1F46
:104E60008C21FF1F00C006408521FF1F1C21FF1F52
:104E70001821FF1F38B505E0451C0078FFF7AAFF91
:104E8000214628464C1E0029F6D138BD08B501E060
:104E900001F0BCFA024B1B7813F0FF0FF8D108BDEC
:104EA0001821FF1F074B1B78D8B2074B1B78DBB2CA
:104EB000984203D31B1A03F1270070471B1A581E90
:104EC000704700BF8C21FF1F8521FF1F064B1B78F9
:104ED000DBB2064A1078C0B2834201D3181A704779
:104EE0001B1A03F1400070478421FF1F1921FF1F87
:104EF000134B1A78D2B2134B1B78DBB29A4218D0FC
:104F000010B401333F2B00D900230F49C85CC0B255
:104F1000D9B20C4C21700D49096869B1934201D88E
:104F2000D31A01E0D31A40331A2B05DC00230B708F
:104F300002E04FF0FF3070475DF8044B704700BF50
:104F40008421FF1F1921FF1F4421FF1F1421FF1F70
:104F5000094B1A78D2B2094B1B78DBB29A4207D0C0
:104F600001333F2B00D90023054AD05CC0B2704703
:104F70004FF0FF30704700BF8421FF1F1921FF1F32
:104F80004421FF1F054B1B78DBB2054A1370054B0C
:104F90001B680BB100221A70704700BF1921FF1F58
:104FA0008421FF1F1421FF1F2E4B1B7913F0200FAC
:104FB00022D02C4BDB79D9B22B4B1B7801333F2B02
:104FC00000D90023294A1278D2B2934204D0284A49
:104FD000D154DAB224490A70264A116861B1264ACE
:104FE0001278D2B2934201D39B1A01E09B1A40334C
:104FF000272B01DD01230B701A4BDB78DBB213F09A
:10500000800F1CD0174A127912F0800F17D01B4A5C
:105010001178C9B2184A1278D2B2914203D16C21E8
:10502000104AD1700BE00132272A00D9002214491E
:10503000895CC9B20B48C171D2B20F490A7013F032
:10504000400F0ED0074B1B7913F0400F09D0002200
:105050000C4B1A700C4B1B6803B11A702C22014BBD
:10506000DA70704700C006408421FF1F1921FF1F1E
:105070004421FF1F1421FF1F8521FF1F8C21FF1FCB
:105080001C21FF1F1821FF1F8821FF1F244A1368BE
:1050900043F4005313600023224A1370224A137012
:1050A000224A1370224A1370224A1370224B1B7833
:1050B0001F2B02D03F2B05D008E040F213321F4BCC
:1050C0001A6003E040F213321D4B1A601D4B1B782F
:1050D000202B02D03E2B05D008E04FF451721A4B22
:1050E0001A6003E04FF45172184B1A601F2800D861
:1050F0002020C0F34432164B1A70C0F347125A7086
:1051000000F01F00987200229A701A742C22DA7034
:105110004022104B1A702022A3F221331A607047EC
:10512000348004400022FF1F9521FF1F0822FF1F2B
:105130000122FF1F9421FF1FA808FF1F28A0044081
:1051400014D00440A908FF1F2CA0044010D0044034
:1051500000D0064025E400E0064B1B78DBB2064A8F
:105160001078C0B2834201D3181A70471B1A03F19A
:10517000400070470022FF1F9521FF1F134B1A7834
:10518000D2B2134B1B78DBB29A4218D010B4013361
:105190003F2B00D900230F49C85CC0B2D9B20C4CD8
:1051A00021700D49096869B1934201D8D31A01E011
:1051B000D31A40331A2B05DC00230B7002E04FF0AA
:1051C000FF3070475DF8044B704700BF0022FF1F9F
:1051D0009521FF1FC021FF1F9021FF1F2E4B1B7920
:1051E00013F0200F22D02C4BDB79D9B22B4B1B783C
:1051F00001333F2B00D90023294A1278D2B29342BF
:1052000004D0284AD154DAB224490A70264A1168D7
:1052100061B1264A1278D2B2934201D39B1A01E0BF
:105220009B1A4033272B01DD01230B701A4BDB78CF
:10523000DBB213F0800F1CD0174A127912F0800FE6
:1052400017D01B4A1178C9B2184A1278D2B29142CB
:1052500003D16C21104AD1700BE00132272A00D90A
:1052600000221449895CC9B20B48C171D2B20F49FE
:105270000A7013F0400F0ED0074B1B7913F0400F4C
:1052800009D000220C4B1A700C4B1B6803B11A702A
:105290002C22014BDA70704700D006400022FF1F1D
:1052A0009521FF1FC021FF1F9021FF1F0122FF1F1B
:1052B0000822FF1F9821FF1F9421FF1F0422FF1FB8
:1052C000431E032B14D872B60A4951F8230068B163
:1052D00070B4094C058834F81320466841F82360FF
:1052E000521B24F8132062B670BC704762B6704738
:1052F000002070476422FF1FE424FF1F01380328A9
:105300000BD872B6074B53F8203043B100205B68CE
:105310000130002BFBD162B6704700207047184661
:10532000F9E700BFB822FF1F30B472B62B4A1378DA
:105330001D0706D52A4B196A002936D0996A00291B
:1053400041D053781C0706D5254B196C00293ED057
:10535000996C002939D09378190705D5204B196E1F
:10536000002936D0996E89B1D3781B0707D51C4B1D
:10537000D3F880207AB3D3F8882011213AB162B6ED
:10538000184B00221A7030BC00F0A0BE0D21154C45
:10539000154D227843F8315003EBC1030830013A30
:1053A0005860227062B630BC704704220D4C0F4D1D
:1053B000217843F8325003EBC20308304A1E58608C
:1053C000227062B6EFE70521E1E70921DFE7082255
:1053D000ECE70C22EAE71022E8E700BFB8A30000E0
:1053E0000000FF1FE122FF1FC800400088004000AE
:1053F000421E032A1FD81C4B800040F0020030B42C
:1054000003EBC00072B6194CA35C032B1CD8DFE879
:1054100003F002131618032501F10803436010F08E
:10542000080F0988A55414BFC823882343EA014301
:10543000036062B630BC704708300225ECE70525F2
:10544000EAE708300425E7E7094B53F8220038B1B2
:10545000084B53F82200416043F8221062B6E9E796
:1054600043F82210034BF7E70000FF1FF022FF1F55
:10547000B822FF1FC822FF1F2DE9F04FDFF810B33D
:10548000DFF810A387B046E0AC4F4FEA930807EB74
:10549000C809013ED9F8042003F00803F6B2A2F1CE
:1054A000080003F0FF04002B40F0048157F8383067
:1054B0001B0C99B222F8081C002B00F0F280A04DC2
:1054C00022F8064C42F8044C55F82630002B00F028
:1054D000C7829C4D55F82630586032F8081C9A4C0B
:1054E00045F8260034F81630194424F8161000F058
:1054F000CDFD002800F0AD82944A954B19F0080FBD
:1055000000F1080018BF1346C9F8040047F8383006
:1055100008238BF800309BF80040E4B261071AD5ED
:105520008C4B1B78A3B18C490A7802F0FF0322B19F
:10553000013BDBB20B7003B900BE88490A7802F068
:10554000FF032AB1013BDBB20B70002B00F0578246
:1055500004238BF8003004F0080303F0FF02002B53
:1055600000F0CC809AF80030DBB21E098CD19C0888
:10557000DFF8C89159F8342009EBC401C2F3830263
:10558000013A49680C2A00F28880DFE802F07C7C4E
:105590008686868686864786868607000868704DDA
:1055A0004A68704F704E286081B240F28160674B4C
:1055B0006A604FF0010E0022814249F834303A60AF
:1055C000C9F81020C9F8182086F800E05B4C00F2FA
:1055D000E380B1F5D06F80F04683B1F5817F00F0B4
:1055E000FC8200F28D82802900F07783822940F0CE
:1055F000FA82A98801F07F01042900F2F4825B4855
:105600005B4C89000844227062700278930740F175
:10561000588484F800E04FF0020E42E3514F3A689C
:1056200032B3544B504E5449188834780D78402882
:10563000864645F0020828BF4FF0400E002C84F04B
:1056400001043470CEEB00000CBF8824C82409EBA1
:10565000C80680B285F0010544EA0E4472601880E5
:1056600049F8384072440D70002800F045813A60D6
:105670003B4B1A88B2F5A06F0FD100219A78597070
:105680003E4B1A7009E0364A108842F221029042DD
:1056900000F037812D4A49F83420394A012313702C
:1056A00036E72A4A2A4B19F0080F18BF134647F865
:1056B00038302DE700F00AFD324A334952F82630DF
:1056C000002B00F0D18158688C5D42F8260003F170
:1056D0000802C9F80420032C05D8DFE804F02C02E6
:1056E000292602228A551A8819F0080F0CBF882330
:1056F000C82343EA024347F8383009E7E00700F1DE
:105700008181210600F1F281A20706D51F4A2049B6
:1057100013780220DBB213700870E30602D51C4B2D
:1057200010221A7007B0BDE8F08F04228A55DAE71C
:1057300005228A55D7E703228A55D4E70000FF1FC8
:105740006422FF1F1022FF1FE424FF1FC800400037
:1057500088004000EC22FF1F7522FF1FF422FF1F6C
:10576000D822FF1F0C22FF1F7422FF1FC0200740FA
:10577000E422FF1F2022FF1FE022FF1F9820074086
:1057800094200740B822FF1FF022FF1F8820074007
:10579000802007409020074042F22100814200F023
:1057A0002A8100F2D880B1F5086F00F07682B1F559
:1057B000106F40F01882226AB349A8780870120668
:1057C00000F13A83D9F82820B049130600F10C8380
:1057D000D9F83020AD49150600F10183D9F83820F9
:1057E000AA49140600F1F682D9F84020A74910060C
:1057F00000F14A83D9F84820A449120600F13F83FA
:10580000D9F85020A149130600F13483D9F8582063
:105810009E49150600F12983D9F860209B4914069A
:1058200000F11E83D9F868209849100600F113830F
:10583000D9F870209549120600F10883D9F878202C
:105840009249130600F1FD82D9F880208F49150690
:1058500000F13183D9F888208C49140600F12583A2
:10586000D9F890208949100600F11983D9F89820B9
:105870008649120600F10D838548864A86490190C3
:105880008648874D874C04970023059602958046ED
:105890000F4616461D460394306828B1446800F050
:1058A00015FC2046002CF9D100233360029B386898
:1058B0001A46002342F8253028B1446800F006FC5F
:1058C0002046002CF9D100223A60019A98F8003065
:1058D0001146002241F8042B039A0191023B4FF03C
:1058E000000122F81510032B00F22B81DFE813F0E2
:1058F0007001250170012501BEF1400F18BF002283
:10590000B5E6694A0D784878157050708D78C8787A
:105910009570D07010680D79157186284D79897948
:105920005571917100F09B816049614E0A78307821
:1059300082F00105002842F002020D700CBF8821A0
:10594000C82149F8321009EBC20280F001000021A1
:10595000307051609EE642F22120814240F0CB81BE
:10596000544B554C5549A8781D682560CDF804E086
:105970000870002002908046844604464B490D780A
:1059800045F0020E09EBCE030393019B002B039B12
:105990005C600CBF8824C82444EA080385F0010435
:1059A00049F83E3032700C70DFF8E0E0404BDFF831
:1059B000FC80002840F01E81BCF1400F1BD144F058
:1059C000020C09EBCC03029CDFF8C0E05C60002A0B
:1059D00040F02681020442F088029DF804304EF81F
:1059E0003C20044433700D702346402803D100202E
:1059F000334A3B601080334A012313704DE600F0B8
:105A0000E1FCA5E5214B2F4828491A614FF0020E11
:105A100080F800E02C4F0A702C49196099602C4ED8
:105A20002C4D2D4C9A610D213970FF213170DFF81A
:105A3000B8E029702270294D294A8EF800109F275E
:105A4000012406F8047C5D600470DA6007B0BDE8EC
:105A5000F08F244A47F8380013780133137057E564
:105A600045F826000E4D3AE58B5D032B00F2F080E1
:105A700001A252F823F000BF11550000115500009B
:105A8000355B00002F5B0000EC22FF1F0000FF1FB2
:105A9000C822FF1F6422FF1FB822FF1FF022FF1F32
:105AA0001022FF1FE424FF1FEC24FF1FE022FF1F32
:105AB0007422FF1F9420FF1FF424FF1F0423FF1FE5
:105AC0002022FF1F94200740C0200740880040008C
:105AD0008820074080200740982007402422FF1F8D
